:020000040000FA
:100000009049001051020000550200005702000004
:10001000590200005B0200005D02000000000000C9
:100020000000000000000000000000006903000064
:100030006102000000000000F10300004104000024
:10004000670200006702000057AA0100B9AA010078
:1000500067020000FBAE04000FB00400670200005E
:1000600023B104006702000001A301000BA30100FB
:1000700067020000670200006702000067020000DC
:100080006702000067020000670200008BA0010009
:10009000A9A00100C7A001006702000067020000DC
:1000A00067020000670200006702000067020000AC
:1000B000670200006702000067020000670200009C
:1000C00067020000670200006702000000F002F80B
:1000D00000F068F80AA090E8000C82448344AAF17A
:1000E0000107DA4501D100F05DF8AFF2090EBAE878
:1000F0000F0013F0010F18BFFB1A43F0010318475C
:10010000F0000500300105000A444FF0000C10F823
:10011000013B13F0070408BF10F8014B1D1108BF85
:1001200010F8015B641E05D010F8016B641E01F825
:10013000016BF9D113F0080F1EBF10F8014BAD1C75
:100140000C1B09D16D1E58BF01F801CBFAD505E093
:1001500014F8016B01F8016B6D1EF9D59142D6D3ED
:1001600070470000103A24BF78C878C1FAD8520707
:1001700024BF30C830C144BF04680C607047000021
:100180000023002400250026103A28BF78C1FBD8A0
:10019000520728BF30C148BF0B6070471FB51FBD55
:1001A00010B510BD4BF080FE1146FFF7F7FF19F0B8
:1001B00061F94BF09EFE03B4FFF7F2FF03BC4BF076
:1001C000A1FE000000BF00F007021D4B19684FF6AA
:1001D000FF0319401B4B0B4343EA0221184B1960E4
:1001E00000BF704700BF00F01F020121914042098B
:1001F000920002F1E022C2F8001100BF704700BF78
:1002000000F01F02012191400F4A430942F82310D8
:1002100000BF704770B502460B46104619460028CD
:1002200008DACC06260E064C0C3400F00F052D1F04
:10023000665503E0CC06250E044C255400BF70BD66
:100240000CED00E00000FA0580E100E000E400E0D1
:1002500008480047FEE7FEE7FEE7FEE7FEE7FEE7A9
:10026000FEE7FEE7FEE7FEE703480449024A044BC7
:1002700070470000CD000000800908209049001060
:10028000904700100146042241EA0220154B1860F5
:100290000020704701461348006820F0FF00084323
:1002A000104A1060012070470E48006820F0E0609E
:1002B00040F080700B4908600120704709480068D1
:1002C00020F0E0600749086070470648006840F485
:1002D000001004490860704702484068C0F30B10E2
:1002E0007047000000400340004870472C47001052
:1002F00070477047704719F0BEBD7047FFFFFFFFA2
:1003000080F309887047EFF309807047684680F3EF
:10031000098804480078C00714BF0220032080F336
:100320001488704720000500DFF818C0EFF305833C
:100330001B0618BF6047EFF31483DB0708BF604755
:1003400000DF70470FCB0400DFF818C0EFF3058320
:100350001B0618BF6047EFF31483DB0708BF604735
:1003600000DF70475DCD0400EFF30980816911F86B
:10037000021C39BB90E80F10E047EFF3098C194BD2
:1003800093E80600914218D059B10CB44FF0010324
:1003900081F826302CE9F00FC1F82CC04CF09AFF00
:1003A0000CBC1A60D2F82CC0BCE8F00F92F82630D2
:1003B0008CF309881BB192F82500CCF800006FF08F
:1003C000020E704710B5084A1268914209D8074CCE
:1003D00054F8214090E80F10A047EFF3098C8CE807
:1003E0000F0010BDE005001010BF040010BF040096
:1003F0004CF04AFE114B93E8060091421BD00CB41E
:100400004FF0000381F82630EFF3098C2CE9F00F50
:10041000C1F82CC04CF05EFF0CBC1A60D2F82CC0A6
:10042000BCE8F00F8CF3098892F826301BB192F8E3
:100430002530CCF800306FF0020E7047E005001058
:100440004DF018F8D6E700004CF060FB4DF012F8C4
:10045000D0E7000020207449086000BF724800689F
:1004600000F040000028F9D003206F499C39086053
:1004700000206E49C1F8A8016B490C3108600120C9
:100480006949943908606A486849843108600120E4
:10049000091F0860AA2065498C310860552063490E
:1004A000C1F88C0000BF61488830006800F08060AF
:1004B0000028F8D003205D4980310860AA205B49FC
:1004C000C1F88C00552059498C31086000205649EC
:1004D0009839086057485549C4310860002053498D
:1004E000C1F8C801514888300068C0F30160032892
:1004F00060D14D489438006800F0030030B1012805
:1005000020D0022839D0032853D100E000BF47484B
:1005100088300068C0F30E00401C40004649484344
:100520004249D1F88810C1F30741491CB0FBF1F1F1
:100530003D489C380068C0B2401CB1FBF0F03F4918
:10054000086036E0394888300068C0F30E00401C6F
:1005500040003B4948433549D1F88810C1F3074171
:10056000491CB0FBF1F130489C380068C0B2401C17
:10057000B1FBF0F0314908601BE02C48883000687E
:10058000C0F30E00401C40004FF4FA414843274995
:10059000D1F88810C1F30741491CB0FBF1F12248A2
:1005A0009C380068C0B2401CB1FBF0F023490860E1
:1005B00000BF30E01C489438006800F0030030B100
:1005C000012810D0022819D0032823D100E000BF51
:1005D00015489C380068C0B2401C1749B1FBF0F0C8
:1005E0001649086016E010489C380068C0B2401CEC
:1005F0001349B1FBF0F0114908600BE00A489C3840
:100600000068C0B2401C4FF4FA41B1FBF0F00B4956
:10061000086000BF00BF0548006820F4704040F447
:100620008040024908607047A0C10F4000C00F40E1
:1006300063000500DE87280400093D0000C0072094
:10064000001BB70070B59AB005460E4619208DF80C
:10065000000064208DF8010065236A46A421002073
:1006600002F0B4F9B8B162210DF1020000F08EFE83
:100670009DF8641088420ED1002405E0A01C1DF8EE
:1006800000002855601CC4B2622CF7DB6220307079
:1006900001201AB070BD0020FBE770B59AB0064685
:1006A0000C46622C2DDC19208DF8000064208DF89A
:1006B0000100002505E0715DA81C0DF80010681C04
:1006C000C5B2A542F7DB21460DF1020000F05EFE47
:1006D000A11C0DF801000021012000F0A5FEE31C83
:1006E0006A46A421002002F0B0F830B90121084682
:1006F00000F09AFE01201AB070BD0121084600F0FA
:1007000093FE0020F7E72DE9FF5F044689460025A8
:100710000026B9F1620F7CD194F82A0094F82B10CE
:1007200000EB012505F40040C0B1E843401CC0F3D4
:100730000E0528464DF068FE82464FF096414DF07A
:1007400077FE8046FE494DF07DFD07464DF03CFEAC
:100750000546E843401C20F070450FE028464DF068
:1007600053FE82464FF096414DF062FE8046F449BA
:100770004DF068FD07464DF027FE05460422294648
:100780004FF487401AF037FB08B1701CC6B294F8DA
:10079000240094F8251000EB012505F40040C0B1B9
:1007A000E843401CC0F30E0528464DF02DFE82465E
:1007B0004FF096414DF03CFE8046E2494DF042FD3F
:1007C00007464DF001FE0546E843401C20F0704509
:1007D0000FE028464DF018FE82464FF096414DF04E
:1007E00027FE8046D7494DF02DFD07464DF0ECFD24
:1007F00005460422294644F281301AF0FCFA08B179
:10080000701CC6B294F82C0094F82D1000EB012552
:1008100000E003E205F40040C0B1E843401CC0F32F
:100820000E0528464DF0F0FD82464FF096414DF002
:10083000FFFD8046C2494DF005FD07464DF0C4FD61
:100840000546E843401C20F070450FE028464DF077
:10085000DBFD82464FF096414DF0EAFD8046B849F7
:100860004DF0F0FC07464DF0AFFD05460422294649
:1008700044F282301AF0BFFA08B1701CC6B294F884
:10088000260094F8271000EB012505F40040C0B1C4
:10089000E843401CC0F30E0528464DF0B5FD8246E6
:1008A0004FF096414DF0C4FD8046A6494DF0CAFC7C
:1008B00007464DF089FD0546E843401C20F0704591
:1008C0000FE028464DF0A0FD82464FF096414DF0D6
:1008D000AFFD80469B494DF0B5FC07464DF074FDD9
:1008E00005460422294644F283301AF084FA08B1FE
:1008F000701CC6B294F82E0094F82F1000EB01255E
:1009000005F40040C0B1E843401CC0F30E05284682
:100910004DF07AFD82464FF096414DF089FD8046BC
:1009200087494DF08FFC07464DF04EFD0546E843E4
:10093000401C20F070450FE028464DF065FD8246D2
:100940004FF096414DF074FD80467D494DF07AFCA4
:1009500007464DF039FD05460422294644F284300D
:100960001AF049FA08B1701CC6B294F8280094F83D
:10097000291000EB012505F40040C0B1E843401CFC
:10098000C0F30E0528464DF03FFD82464FF09641DC
:100990004DF04EFD80466B494DF054FC07464DF03E
:1009A00013FD0546E843401C20F070450FE0284643
:1009B0004DF02AFD82464FF096414DF039FD8046BC
:1009C00060494DF03FFC07464DF0FEFC0546042211
:1009D000294644F285301AF00EFA08B1701CC6B2EE
:1009E0002078617800EB0120A17800EB0140E178EC
:1009F00000EB01605449C861701CC6B2207961796E
:100A000000EB0120A17900EB0140E17900EB0160EE
:100A10004E49C861701CC6B2207A617A00EB012091
:100A2000A17A00EB0140E17A00EB01604849C8611E
:100A3000701CC6B294F8300094F8311000EB012518
:100A400005F40040E8B1E843401CC0F30E05284619
:100A50004DF07EF982463F4A3F4B4DF0C9F90746BB
:100A60003E4A3F4B4CF0A8FF00224FF08143CDE9B6
:100A700000014CF0E5FECDE902014DF025F90546F7
:100A800011E028464DF064F9324A334BCDE90201BA
:100A90004DF0AEF90746314A314B4CF08DFF82469E
:100AA0004DF012F90546022229464EF214601AF062
:100AB000A2F908B1701CC6B294F8320094F8331051
:100AC00000EB012505F40040E8B1E843401CC0F309
:100AD0000E0528464DF03CF982461E4A1E4B4DF04D
:100AE00087F91E4A1E4BCDE900014CF065FF074611
:100AF00000224FF081434CF0A3FECDE902014DF0FE
:100B0000E3F8054611E028464DF022F98246114AE5
:100B1000114B4DF06DF9114A114BCDE902014CF02A
:100B20004BFF07464DF0D0F80546022229464EF20B
:100B300015601AF060F908B1701CC6B212E000002E
:100B40000080BB4500D85648F00800101809001076
:100B500040090010FCA9F1D24D62503F2F6EA30155
:100B6000BC05923F94F8340094F8351000EB012551
:100B700005F40040E8B1E843401CC0F30E052846E8
:100B80004DF0E6F8C74AC84BCDE900014DF030F909
:100B90000746C64AC64B4CF00FFF824600224FF074
:100BA00081434CF04DFECDE902014DF08DF8054634
:100BB00011E028464DF0CCF80746BA4ABA4B4DF042
:100BC00017F9BA4ABA4BCDE902014CF0F5FE82465C
:100BD0004DF07AF80546022229464EF216601AF0C8
:100BE0000AF908B1701CC6B214F8360F617800EB30
:100BF0000120B0494883A078E17800EB0120AE499C
:100C0000488320796179363C00EB0120AB49488369
:100C10000C2E03D1012004B0BDE8F09F0020FAE7BC
:100C2000A2B000202190814607900590ADF81800F1
:100C30000390ADF810000190ADF808005520A049D0
:100C4000087007A908A8FFF7FDFC40B9002404E0DC
:100C5000002008A90855601CC4B2622CF8DB00BF54
:100C6000002555209649087009F101001FFA80F906
:100C7000042221A944F2C0301AF094F8E0B121987E
:100C800000F4000018B1219840F07F402190219895
:100C90004DF047F821F0004107460022894B4DF006
:100CA0006BF809D82199059808440590BDF81800FB
:100CB000401C80B2ADF81800042221A944F2C230D1
:100CC0001AF070F8E0B1219800F4000018B12198F2
:100CD00040F07F40219021984DF023F821F0004111
:100CE00007460022774B4DF047F809D82199039821
:100CF00008440390BDF81000401C80B2ADF810000D
:100D0000042221A944F2C4301AF04CF8E0B1219831
:100D100000F4000018B1219840F07F402190219804
:100D20004CF0FFFF21F0004107460022654B4DF0DB
:100D300023F809D82199019808440190BDF80800CA
:100D4000401C80B2ADF80800B9F57A7F7EDB002642
:100D500093E00025BDF81810059890FBF1F0059080
:100D6000059901FB01F04CF0DCFF07460022564BD1
:100D70004CF022FE82464CF0A7FF21902198C04300
:100D8000401C21904B492198C8612198C0B28DF830
:100D900020002198000A8DF821002198000C8DF880
:100DA00022002198000E8DF823006D1CBDF8101054
:100DB000039890FBF1F00390039901FB01F04CF0D4
:100DC000B0FF07460022404B4CF0F6FD82464CF047
:100DD0007BFF21902198C043401C219036492198E7
:100DE000C8612198C0B28DF824002198000A8DF8BE
:100DF00025002198000C8DF826002198000E8DF812
:100E000027006D1CBDF80810019890FBF1F00190CF
:100E1000019901FB01F04CF084FF074600222A4BA8
:100E20004CF0CAFD82464CF04FFF21902198C04300
:100E3000401C219021492198C8612198C0B28DF8A9
:100E400028002198000A8DF8290000E024E021986C
:100E5000000C8DF82A002198000E8DF82B006D1CD7
:100E6000032D08D1622108A8FFF717FC18B1002054
:100E70001349087004E0701CC6B2032EFFF669AF78
:100E800000BF032E02D1EE200D4908700020DFF8CC
:100E90003CC000DF00BFFEE70A20DFF834C000DFFF
:100EA000DEE60000FCA9F1D24D62503F2F6EA30197
:100EB000BC05923FF008001018090010400900100E
:100EC00004C007200000B0400000604085D5040049
:100ED00061CC04001FB501A801230B220021009062
:100EE000042001F024FC0446022C0BD19DF80400E0
:100EF0004AF0F1FBFC4908709DF805004AF0EBFB55
:100F0000F949487001A802230B2200210090042017
:100F100001F00DFC0446022C0BD19DF804004AF0B0
:100F2000DAFBF149C8709DF805004AF0D4FBEE49A0
:100F3000087101A803230B2200210090042001F076
:100F4000F6FB0446022C09D199204AF0C4FBE6497D
:100F5000887199204AF0BFFBE349C871012004B0B1
:100F600010BD2DE9F04387B0002006900590804623
:100F70008146019000250027F7E107EB4701DA4A97
:100F800088180222632128F006FA00286FD107EBA7
:100F90004700D54908448078D4490979884266D009
:100FA00007EB4700D04A81180222D048801C27F066
:100FB000B5FC0028F3D009F1010000F0FF0901237E
:100FC00006AA1946002002F08DFD00287ED00024DC
:100FD00030E000262AE001A802AB2246314600900C
:100FE00000201CF03EFEF8B11CB1032C01D0042CF3
:100FF0000FD19DF8040030B19DF80B0040F0800047
:101000008DF80B0005E09DF80B0000F07F008DF8D7
:101010000B0002A800909DF81830324621460020AF
:1010200001F0EFFC284485B2701CC6B2052ED2DB5D
:10103000601CC4B20B2CCCDB00242EE001A8009075
:1010400004F11500C2B202AB002108461CF009FEF3
:1010500008B3032C01D0022C10D19DF8040038B144
:101060009DF80B0040F080008DF80B0006E07AE15F
:101070009DF80B0000F07F008DF80B0002A8009097
:1010800004F11500C1B29DF818300022104601F09D
:10109000B8FC284485B2601CC4B20A2CCEDB002404
:1010A0002FE001A8009004F12900C2B202AB002198
:1010B00008461CF0D6FD10B3032C01D0022C11D130
:1010C0009DF8040040B19DF80B0000E04DE040F0B9
:1010D00080008DF80B0005E09DF80B0000F07F000C
:1010E0008DF80B0002A8009004F12900C1B29DF810
:1010F00018300022104601F084FC284485B2601CA0
:10110000C4B20A2CCDDB00242DE001A8009004F12C
:101110003D00C2B202AB002108461CF0A2FD00B3A4
:10112000032C01D0022C0FD19DF8040030B19DF8A2
:101130000B0040F080008DF80B0005E09DF80B00DF
:1011400000F07F008DF80B0002A8009004F13D0034
:10115000C1B29DF818300022104601F052FC28441C
:1011600085B2601CC4B20A2CCFDB012305AA194644
:10117000184602F0B7FC00287ED0002431E000269B
:101180002BE001A80090601CC2B202AB31460020E7
:1011900048F0F0FFF8B1032C01D0022C0FD19DF8DC
:1011A000040030B19DF80A0040F080008DF80A007C
:1011B00005E09DF80A0000F07F008DF80A0002A803
:1011C0000090601CC1B29DF814303246012001F03D
:1011D00018FC284485B2701CC6B2052ED1DB601CF9
:1011E000C4B20A2CCBDB00242DE001A8009004F14E
:1011F0001500C2B202AB0021084648F0BBFF00B3A5
:10120000032C01D0022C0FD19DF8040030B19DF8C1
:101210000A0040F080008DF80A0005E09DF80A0001
:1012200000F07F008DF80A0002A8009004F115007C
:10123000C1B29DF814300022012001F0E2FB2844E5
:1012400085B2601CC4B20A2CCFDB00242FE001A8B9
:10125000009004F12900C2B202AB0021084648F018
:1012600089FF10B3032C01D0022C11D19DF804008A
:1012700040B19DF80A0000E051E040F080008DF898
:101280000A0005E09DF80A0000F07F008DF80A00D2
:1012900002A8009004F12900C1B29DF81430002288
:1012A000012001F0AEFB284485B2601CC4B20A2CB8
:1012B000CDDB002431E001A8009004F13D00C2B272
:1012C00002AB0021084648F055FF20B3032C01D0A3
:1012D000022C13D19DF8040050B19DF80A0040F093
:1012E00080008DF80A0009E074C00720D6050010C0
:1012F0009DF80A0000F07F008DF80A0002A8009017
:1013000004F13D00C1B29DF814300022012001F02B
:1013100078FB284485B2601CC4B20A2CCBDBA52D17
:1013200020D117480068401C15490860084600682D
:101330000C2801D90120086011484068401C104960
:101340004860084640680C2801D90120486008F12F
:10135000010000F0FF080B48007907EB47010A4A3B
:10136000114488700025781CC7B2032FFFF605AE24
:10137000C14503D1012007B0BDE8F0830020FAE7A2
:1013800004060010D605001074C0072030B50246D0
:101390000B46002018E0802113E000F0800424B107
:1013A0004406200E80F0070001E04406200E147869
:1013B0000C400CB180F007000C4601EBD475C5F36E
:1013C00047010029E9D1521C1C1EA3F10105ABB253
:1013D000E1D130BD30B504460D4629462046FFF721
:1013E000D5FF615D884201D1012030BD0020FCE7BE
:1013F00010B50246002003E013780344D8B2521C13
:101400000B1EA1F10104A1B2F6D110BD30B5044606
:101410000D4629462046FFF7EBFF615D884201D16A
:10142000012030BD0020FCE768B931B1FD4A926F60
:1014300042F08062FB4B9A6705E0FA4AD26F42F0B5
:101440008062F84BDA6701280DD131B1F54A926F0D
:1014500042F00072F34B9A6705E0F24AD26F42F015
:101460000072F04BDA67704700B501210020FFF7EA
:10147000DBFF01210846FFF7D7FFEB48C06920F0EA
:101480007F70E949C861E748006E40F08060E54937
:1014900008660846006E40F00070086601210020D2
:1014A000FFF7C2FF01210846FFF7BEFF00BD2DE98F
:1014B000FF4F81468C4690469A46DDE90D45002354
:1014C000002003900290207800F010000190207816
:1014D00000F0E000E02816D0019888B96079801DFE
:1014E00094F804B0A0EB0B00001D235C6079801D14
:1014F00094F804B0A0EB0B00401D205C039002E0C8
:10150000A37AE07A0390207800F00F00072878D0C3
:101510000B2877D00D2876D00E2841F08E802078C9
:1015200000F0E00060286FD0A0286ED0C02802D064
:10153000E0286BD1BDE16078484561D1A078604575
:10154000FBD198455CDB0398804559DC20795045F8
:10155000FBDC60795045F5DB0198002857D10090FD
:10156000002106E0881D14F800B00098584400904F
:10157000491C607994F804B0A0EB0B00401C884231
:10158000F0D80027002103E0881D205C0744491C97
:101590002079AAEB00008842F6D8002104E0581810
:1015A000404500D104E0491C0398C01A8842F6D295
:1015B00000BF009801FB00766079C01D94F804B06C
:1015C000A0EB0B00205C4FEA004B6079083094F8E8
:1015D00004E0A0EB0E00205C0BEB002B60790930DF
:1015E000A0EB0E00205C58448219100C2870100AE1
:1015F0006870AA702079AAEB0000801D205C029020
:101600002EE0F8E3D4E3B1E1BDE02AE0ABE1A0795C
:101610000290002104E05818404500D104E0491C24
:101620000398C01A8842F6D200BF607994F804B0DB
:10163000A0EB0B00401C00FB01A0A0EB0B06E07927
:10164000000494F808B000EB0B2094F809B0834430
:10165000029806FB00B2100C2870100A6870AA707D
:1016600082E16078484563D1E0784045FBD19C45F4
:101670005EDB039884455BDC2079504558DC60795B
:1016800050457FDB0198E8BB00200090002106E078
:10169000881D14F800B0009858440090491C6079E7
:1016A00094F804B0A0EB0B00401C8842F0D800274F
:1016B000002103E0881D205C0744491C2079AAEB27
:1016C00000008842F6D8002104E05818604500D197
:1016D00004E0491C0398C01A8842F6D200BF009863
:1016E00001FB00766079C01D94F804B0A0EB0B00FC
:1016F000205C4FEA004B6079083094F804E0A0EBDE
:101700000E0000E015E0205C0BEB002B6079093047
:10171000A0EB0E00205C58448219100C2870100AAF
:101720006870AA702079AAEB0000801D205C0290EE
:1017300028E0A0790290002104E05818604500D10B
:1017400004E0491C0398C01A8842F6D200BF6079B1
:1017500094F804B0A0EB0B00401C00FB01A0A0EB30
:101760000B06E079000494F808B000EB0B2094F825
:1017700009B08344029806FB00B2100C2870100ACE
:101780006870AA70F0E0A078604567D1E0784045C5
:1017900064D1994562DB039881455FDC207950452F
:1017A0005CDC6079504559DB0198F8BB0020009063
:1017B000002106E0881D14F800B0009858440090FD
:1017C000491C607994F804B0A0EB0B00401C8842DF
:1017D000F0D80027002103E0881D205C0744491C45
:1017E0002079AAEB00008842F6D8002104E05818BE
:1017F000484500D104E0491C0398C01A8842F6D23B
:1018000000BF009801FB00766079C01D94F804B019
:10181000A0EB0B00205C4FEA004B6079083094F895
:1018200004E004E000C0092000C0024017E0A0EB83
:101830000E00205C0BEB002B60790930A0EB0E0052
:10184000205C58448219100C2870100A6870AA7025
:101850002079AAEB0000801D205C029028E0A0798E
:101860000290002104E05818484500D104E0491CCA
:101870000398C01A8842F6D200BF607994F804B089
:10188000A0EB0B00401C00FB01A0A0EB0B06E079D5
:10189000000494F808B000EB0B2094F809B08344DE
:1018A000029806FB00B2100C2870100A6870AA702B
:1018B0005AE06078484555D1A078604552D1E0782B
:1018C00040454FD1207950454CDC6079504549DB8B
:1018D000019880BB0027002103E0881D205C07449D
:1018E000491C2079AAEB00008842F6D86079C01D17
:1018F00094F804B0A0EB0B00205C4FEA004B607939
:10190000083094F804E0A0EB0E00205C0BEB002BF9
:1019100060790930A0EB0E00205C5844C219100C0D
:101920002870100A6870AA702079AAEB0000801D48
:10193000205C029016E0FFE7A07902902079AAEBE4
:101940000006E079000494F808B000EB0B2094F84E
:1019500009B08344029806FB00B2100C2870100AEC
:101960006870AA7000E000BF00BFFAE3207800F0C2
:10197000E000602872D0A02871D0C02802D0E028F2
:101980006ED1B8E16078484563D1A078604560D1F8
:101990009A455EDB039882455BDC2079404558DC44
:1019A0006079404555DB0198F0BB00200090002194
:1019B00006E0881D14F800B0009858440090491CB7
:1019C000607994F804B0A0EB0B00401C8842F0D87A
:1019D0000027002103E0881D205C0744491C207972
:1019E000A8EB00008842F6D8002104E058185045C2
:1019F00000D104E0491C0398C01A8842F6D200BF07
:101A0000009801FB00766079C01D94F804B0A0EB4B
:101A10000B00205C4FEA004B6079083094F804E03A
:101A2000A0EB0E00205C00E014E00BEB002B6079D3
:101A30000930A0EB0E00205C58448219100C28706D
:101A4000100A6870AA702079A8EB0000801D205C45
:101A500002902BE0A0790290002107E0B9E026E097
:101A6000A3E15818504500D104E0491C0398C01A5E
:101A70008842F6D200BF607994F804B0A0EB0B0066
:101A8000401C00FB0180A0EB0B06E079000494F8F9
:101A900008B000EB0B2094F809B08344029806FBD1
:101AA00000B2100C2870100A6870AA707EE160788D
:101AB000484563D1E078504560D19C455EDB039892
:101AC00084455BDC2079404558DC607940457FDB0C
:101AD0000198E8BB00200090002106E0881D14F862
:101AE00000B0009858440090491C607994F804B004
:101AF000A0EB0B00401C8842F0D80027002103E037
:101B0000881D205C0744491C2079A8EB000088420E
:101B1000F6D8002104E05818604500D104E0491CC3
:101B20000398C01A8842F6D200BF009801FB0076E5
:101B30006079C01D94F804B0A0EB0B00205C4FEA64
:101B4000004B6079083094F804E0A0EB0E0000E050
:101B500015E0205C0BEB002B60790930A0EB0E0048
:101B6000205C58448219100C2870100A6870AA7002
:101B70002079A8EB0000801D205C029028E0A0796D
:101B80000290002104E05818604500D104E0491C8F
:101B90000398C01A8842F6D200BF607994F804B066
:101BA000A0EB0B00401C00FB0180A0EB0B06E079D2
:101BB000000494F808B000EB0B2094F809B08344BB
:101BC000029806FB00B2100C2870100A6870AA7008
:101BD000ECE0A078604563D1E078504560D199454C
:101BE0005EDB039881455BDC2079404558DC6079F9
:101BF00040457FDB0198E8BB00200090002106E013
:101C0000881D14F800B0009858440090491C607971
:101C100094F804B0A0EB0B00401C8842F0D80027D9
:101C2000002103E0881D205C0744491C2079A8EBB3
:101C300000008842F6D8002104E05818484500D139
:101C400004E0491C0398C01A8842F6D200BF0098ED
:101C500001FB00766079C01D94F804B0A0EB0B0086
:101C6000205C4FEA004B6079083094F804E0A0EB68
:101C70000E0000E015E0205C0BEB002B60790930D2
:101C8000A0EB0E00205C58448219100C2870100A3A
:101C90006870AA702079A8EB0000801D205C02907B
:101CA00028E0A0790290002104E05818484500D1AE
:101CB00004E0491C0398C01A8842F6D200BF60793C
:101CC00094F804B0A0EB0B00401C00FB0180A0EBDB
:101CD0000B06E079000494F808B000EB0B2094F8B0
:101CE00009B08344029806FB00B2100C2870100A59
:101CF0006870AA705AE06078484555D1A078604570
:101D000052D1E07850454FD1207940454CDC607984
:101D1000404549DB019880BB0027002103E0881D76
:101D2000205C0744491C2079A8EB00008842F6D8C3
:101D30006079C01D94F804B0A0EB0B00205C4FEA62
:101D4000004B6079083094F804E0A0EB0E00205CB2
:101D50000BEB002B60790930A0EB0E00205C58449F
:101D6000C219100C2870100A6870AA702079A8EBAC
:101D70000000801D205C029016E0FFE7A079029031
:101D80002079A8EB0006E079000494F808B000EB95
:101D90000B2094F809B08344029806FB00B2100CA3
:101DA0002870100A6870AA7000E000BF00BFDCE570
:101DB000207800F0E00060286FD0A0286ED0C02806
:101DC00002D0E0286BD1B8E16078484564D1A078B2
:101DD000404561D19A455FDB039882455CDC207900
:101DE000604559DC6079604556DB0198F0BB002006
:101DF0000090002107E0FEE1881D14F800B0009873
:101E000058440090491C607994F804B0A0EB0B0092
:101E1000401C8842F0D80027002103E0881D205C88
:101E20000744491C2079ACEB00008842F6D8002119
:101E300004E05818504500D104E0491C0398C01A2A
:101E40008842F6D200BF009801FB00766079C01D81
:101E500094F804B0A0EB0B00205C4FEA004B6079D3
:101E6000083094F804E0A0EB0E0000E018E0205CDD
:101E70000BEB002B60790930A0EB0E00205C58447E
:101E80008219100C2870100A6870AA702079ACEBC7
:101E90000000801D205C02902BE0BDE02AE0A7E15D
:101EA000A0790290002104E05818504500D104E0C8
:101EB000491C0398C01A8842F6D200BF607994F892
:101EC00004B0A0EB0B00401C00FB01C0A0EB0B0614
:101ED000E079000494F808B000EB0B2094F809B006
:101EE0008344029806FB00B2100C2870100A687038
:101EF000AA707EE16078484563D1E078504560D1B2
:101F000098455EDB039880455BDC2079604558DCB2
:101F1000607960457FDB0198F0BB002000900021D4
:101F200006E0881D14F800B0009858440090491C41
:101F3000607994F804B0A0EB0B00401C8842F0D804
:101F40000027002103E0881D205C0744491C2079FC
:101F5000ACEB00008842F6D8002104E05818404558
:101F600000D104E0491C0398C01A8842F6D200BF91
:101F7000009801FB00766079C01D94F804B0A0EBD6
:101F80000B00205C4FEA004B6079083094F804E0C5
:101F9000A0EB0E00205C00E014E00BEB002B60795E
:101FA0000930A0EB0E00205C58448219100C2870F8
:101FB000100A6870AA702079ACEB0000801D205CCC
:101FC000029028E0A0790290002104E058184045D2
:101FD00000D104E0491C0398C01A8842F6D200BF21
:101FE000607994F804B0A0EB0B00401C00FB01C02A
:101FF000A0EB0B06E079000494F808B000EB0B208E
:1020000094F809B08344029806FB00B2100C2870C3
:10201000100A6870AA70ECE0A078404563D1E078BF
:10202000504560D199455EDB039881455BDC2079A2
:10203000604558DC607960457EDB0198F0BB00208C
:102040000090002106E0881D14F800B00098584464
:102050000090491C607994F804B0A0EB0B00401C80
:102060008842F0D80027002103E0881D205C074447
:10207000491C2079ACEB00008842F6D8002104E02E
:102080005818484500D104E0491C0398C01A8842FA
:10209000F6D200BF009801FB00766079C01D94F86D
:1020A00004B0A0EB0B00205C4FEA004B60790830D5
:1020B00094F804E0A0EB0E00205C00E014E00BEBD1
:1020C000002B60790930A0EB0E00205C5844821987
:1020D000100C2870100A6870AA702079ACEB000010
:1020E000801D205C029027E0A0790290002104E08E
:1020F0005818484500D104E0491C0398C01A88428A
:10210000F6D200BF607994F804B0A0EB0B00401C3D
:102110006044A0EB0B06E079000494F808B000EBF3
:102120000B2094F809B08344029806FB00B2100C0F
:102130002870100A6870AA705BE06078484556D134
:10214000A078404553D1E078504550D12079604582
:102150004DDC607960454ADB019888BB002700218F
:1021600004E069E2881D205C0744491C2079ACEB3F
:1021700000008842F6D86079C01D94F804B0A0EB46
:102180000B00205C4FEA004B6079083094F804E0C3
:10219000A0EB0E00205C0BEB002B60790930A0EB6C
:1021A0000E00205C5844C219100C2870100A687088
:1021B000AA702079ACEB0000801D205C029016E034
:1021C000FFE7A07902902079ACEB0006E0790004EB
:1021D00094F808B000EB0B2094F809B083440298FF
:1021E00006FB00B2100C2870100A6870AA7000E09C
:1021F00000BF00BF22E2207800F0E00060286ED02F
:10220000A0286DD0C02802D0E0286AD1B8E160785B
:10221000604563D1A078404560D19A455EDB039864
:1022200082455BDC2079484558DC6079484555DBC0
:102230000198E8BB00200090002106E0881D14F8FA
:1022400000B0009858440090491C607994F804B09C
:10225000A0EB0B00401C8842F0D80027002103E0CF
:10226000881D205C0744491C2079A9EB00008842A6
:10227000F6D8002104E05818504500D104E0491C6C
:102280000398C01A8842F6D200BF009801FB00767E
:102290006079C01D94F804B0A0EB0B00205C4FEAFD
:1022A000004B6079083094F804E0A0EB0E0000E0E9
:1022B00018E0205C0BEB002B60790930A0EB0E00DE
:1022C000205C58448219100C2870100A6870AA709B
:1022D0002079A9EB0000801D205C02902BE0BDE07E
:1022E0002AE0A7E1A0790290002104E058185045A7
:1022F00000D104E0491C0398C01A8842F6D200BFFE
:10230000607994F804B0A0EB0B00401C00FB01C006
:10231000A0EB0B06E079000494F808B000EB0B206A
:1023200094F809B08344029806FB00B2100C2870A0
:10233000100A6870AA707EE16078604563D1E07829
:10234000504560D198455EDB039880455BDC207981
:10235000484558DC607948457FDB0198F0BB002098
:102360000090002106E0881D14F800B00098584441
:102370000090491C607994F804B0A0EB0B00401C5D
:102380008842F0D80027002103E0881D205C074424
:10239000491C2079A9EB00008842F6D8002104E00E
:1023A0005818404500D104E0491C0398C01A8842DF
:1023B000F6D200BF009801FB00766079C01D94F84A
:1023C00004B0A0EB0B00205C4FEA004B60790830B2
:1023D00094F804E0A0EB0E00205C00E014E00BEBAE
:1023E000002B60790930A0EB0E00205C5844821964
:1023F000100C2870100A6870AA702079A9EB0000F0
:10240000801D205C029028E0A0790290002104E069
:102410005818404500D104E0491C0398C01A88426E
:10242000F6D200BF607994F804B0A0EB0B00401C1A
:1024300000FB0190A0EB0B06E079000494F808B0D3
:1024400000EB0B2094F809B08344029806FB00B21D
:10245000100C2870100A6870AA70ECE0A078404553
:1024600063D1E078504560D19C455EDB039884459C
:102470005BDC2079484558DC607948457FDB019872
:10248000F0BB00200090002106E0881D14F800B089
:10249000009858440090491C607994F804B0A0EB6F
:1024A0000B00401C8842F0D80027002103E0881D63
:1024B000205C0744491C2079A9EB00008842F6D82B
:1024C000002104E05818604500D104E0491C03983D
:1024D000C01A8842F6D200BF009801FB00766079EE
:1024E000C01D94F804B0A0EB0B00205C4FEA004B39
:1024F0006079083094F804E0A0EB0E00205C00E066
:1025000014E00BEB002B60790930A0EB0E00205C8F
:1025100058448219100C2870100A6870AA7020792B
:10252000A9EB0000801D205C029028E0A0790290B9
:10253000002104E05818604500D104E0491C0398CC
:10254000C01A8842F6D200BF607994F804B0A0EBBC
:102550000B00401C4844A0EB0B00461CE079000433
:1025600094F808B000EB0B2094F809B0834402986B
:1025700006FB00B2100C2870100A6870AA705AE0AE
:102580006078604555D1A078404552D1E0785045FB
:102590004FD1207948454CDC6079484549DB0198AA
:1025A00080BB0027002103E0881D205C0744491CF4
:1025B0002079A9EB00008842F6D86079C01D94F814
:1025C00004B0A0EB0B00205C4FEA004B60790830B0
:1025D00094F804E0A0EB0E00205C0BEB002B60797C
:1025E0000930A0EB0E00205C5844C219100C287072
:1025F000100A6870AA702079A9EB0000801D205C89
:10260000029016E0FFE7A07902902079A9EB00067E
:10261000E079000494F808B000EB0B2094F809B0BE
:102620008344029806FB00B2100C2870100A6870F0
:10263000AA7000E000BF00BF00E000BF00BF02982A
:1026400004B0BDE8F08F2DE9FC4707468846914667
:102650009A460A9E0025002411E0FE4850F8240006
:1026600053464A464146CDE900063846FEF71FFF6D
:10267000054615B12846BDE8FC87601CC4B23E2C57
:10268000EBDB002410E0F44850F8240053464A469F
:102690004146CDE900063846FEF709FF05460DB173
:1026A0002846E8E7601CC4B24B2CECDB002410E0A9
:1026B000EA4850F8240053464A464146CDE9000610
:1026C0003846FEF7F4FE05460DB12846D3E7601CF8
:1026D000C4B2682CECDB002410E0E14850F8240080
:1026E00053464A464146CDE900063846FEF7DFFE2E
:1026F00005460DB12846BEE7601CC4B2102CECDBC9
:10270000002410E0D74850F8240053464A4641467A
:10271000CDE900063846FEF7CAFE05460DB128464B
:10272000A9E7601CC4B2162CECDB2846A3E72DE910
:10273000FF4FB5B0064688469146DDF808A1002453
:10274000A3460025FF2734A800904A46414630465C
:10275000389BFFF778FF0446002C5CD09DF8D10031
:102760008DF808009DF8D2008DF80900042E00D0E5
:102770000EB94FF0010B4FF6FF71BB48DFF8ECC20A
:1027800000DF9DF8D00030B101281DD0022826D0EE
:1027900003283AD12EE002200090A31C02AAA42113
:1027A0000190002017F016FDC7B267B1BBF1000F12
:1027B00009D002200090A31C02AAA62101900020AB
:1027C00017F008FDC7B221E002200090A31C02AA66
:1027D000A6210190002017F0FDFCC7B216E00220F0
:1027E0000090A31C02AAA8210190002017F0F2FC7F
:1027F000C7B20BE002200090A31C02AAA221019004
:10280000002017F0E7FCC7B200E000BF00BF964809
:10281000DFF85CC200DFB7B9601E81B20DF10A00BB
:10282000FEF7D8FD78B1002506E0A81C02A9085CD7
:102830000AF80500681CC5B2601EA842F5DCC0B2EB
:1028400039B0BDE8F08F0020FAE72DE9FF4FA3B0C3
:10285000904699460020229000260090002798F884
:10286000010098F8001000EB012084B2B346204626
:10287000E11704EB5161C911A4EBC111C1F1800151
:1028800089B22291A9F102002299884201D8C6B2E8
:1028900011E02298C6B2A9F10200801BC0F3C7174D
:1028A000A9F1020006EBC711884204D906EBC71153
:1028B000401AC0B2009026B320128DF80400E0B296
:1028C0008DF80500002507E008F10200415DA81C15
:1028D00001AA1154681C85B2B542F5DBB31C01AAEC
:1028E000DDE9230117F0EDFC83440220DFF884C109
:1028F00000DFA01984B2E0B218B90120DFF874C17A
:1029000000DF6FB3002529E020128DF80400E0B24B
:102910008DF805004FF0000A0DE008F10200304488
:10292000504400EBC51001780AF1020001AA1154CD
:10293000401E1FFA80FABAF1800FEEDB822301AA53
:10294000DDE9230117F0BDFC83440220DFF824C138
:1029500000DF04F1800084B2681C85B2BD42D3DB85
:10296000009850B320128DF80400E0B28DF80500F5
:1029700000250BE008F102003044284400EBC710AA
:102980000178A81C01AA1154681C85B200988542E0
:10299000F0DB0098831C01AADDE9230117F091FC0C
:1029A00083440120DFF8CCC000DFA01984B2E0B27C
:1029B00018B90120DFF8BCC000DFBBF1000F03D164
:1029C000002027B0BDE8F08F0120FAE72DE9FC4197
:1029D00004460D4616461F464FF0000802200090A0
:1029E0003B46324629460190204617F0F3FB00F0A3
:1029F000FF08B8F1000F02D10120BDE8FC810020E2
:102A0000FBE72DE9FF4FC3B0064689469246DDF845
:102A10004081002400250027A34617A000680290EB
:102A200042A80090524649463046469BFFF70BFEAF
:102A30000446042E00D006B90127002C76D0601E73
:102A400081B24046FEF7A2FC83469DF809018DF84D
:102A50000C0013E000000010F80000102402001029
:102A6000C40300100404001060DA072021D0040021
:102A70003DCF040061CC0400FFFF00009DF80A0177
:102A80008DF80D00002506E018F80510A81C03AA13
:102A90001154681CC5B2601EA842F5DC601C03A975
:102AA00001F800B04FF6FF71FE48DFF8FCC300DF0D
:102AB0009DF8080130B1012827D0022837D003281B
:102AC00057D145E000210120FEF7AEFC0021084669
:102AD000FEF7AAFCA31C03AAA4210020FFF7B5FE61
:102AE0008DF80800012F07D1A31C03AAA6210020FE
:102AF000FFF7ABFE8DF8090001210846FEF794FCB4
:102B000001210020FEF790FC34E000210846FEF78A
:102B10008BFCA31C03AAA6210020FFF796FE8DF8CC
:102B2000080001210020FEF77FFC23E027E00021C0
:102B30000846FEF779FCA31C03AAA8210020FFF792
:102B400084FE8DF8080001210020FEF76DFC11E0E5
:102B500000210120FEF768FCA31C03AAA22100208B
:102B6000FFF773FE8DF8080001210846FEF75CFCB4
:102B700000E000BF00BFCB48DFF830C300DF17B96B
:102B80009DF8080038B1012F09D19DF8080030B92F
:102B90009DF8090018B9012047B0BDE8F08F00206A
:102BA000FAE72DE9FE470746884691469A46DDE951
:102BB0000B65062F7CD2DFE807F08161A04203237A
:102BC00000241AE002A9BA4850F8240053464A46A5
:102BD000CDE9000141463846FEF769FC28602868C7
:102BE00048B19DF80A009DF8091000EB01203080E3
:102BF0000120BDE8FE87601CC4B23E2CE2DB7DE014
:102C0000002419E002A9AB4850F8240053464A4674
:102C1000CDE9000141463846FEF749FC28602868A6
:102C200040B19DF80A009DF8091000EB01203080AA
:102C30000120DEE7601CC4B24B2CE3DB5EE04624DF
:102C400019E002A99C4850F8240053464A46CDE9B1
:102C5000000141463846FEF72AFC2860286840B14A
:102C60009DF80A009DF8091000EB0120308001203A
:102C7000BFE7601CC4B2682CE3DB3FE000241AE02D
:102C800002A98E4850F8240053464A46CDE9000177
:102C900041463846FEF70BFC2860286848B19DF88D
:102CA0000A009DF8091000EB012030800120A0E708
:102CB00023E0601CC4B2102CE2DB1FE0002419E00A
:102CC00002A97F4850F8240053464A46CDE9000146
:102CD00041463846FEF7EBFB2860286840B19DF876
:102CE0000A009DF8091000EB01203080012080E7E8
:102CF000601CC4B2162CE3DB00E000BF00BF002064
:102D000077E72DE9F043B3B080460F461446994665
:102D1000FF26C82C75DC38128DF80000F8B28DF84B
:102D20000100002506E019F80510A81C0DF8001098
:102D3000681CC5B2A542F6DBB8F1000F09D0B8F1A6
:102D4000010F25D0B8F1020F3FD0B8F1030F78D1B1
:102D500059E04FF6FF715348DFF84CC100DF002106
:102D60000120FEF761FBA31C6A46A4210020FFF7A7
:102D70006CFD064601210846FEF756FB4948DFF880
:102D80002CC100DF1EB9012033B0BDE8F08359E04B
:102D90004FF6FF714348DFF810C100DF00210846FD
:102DA000FEF742FBA31C6A46A6210020FFF74DFD5B
:102DB000064601210020FEF737FB3A48DFF8ECC059
:102DC00000DF0EB90120DFE73CE04FF6FF71354828
:102DD000DFF8D4C000DF00210846FEF725FBA31C66
:102DE0006A46A8210020FFF730FD06460121002099
:102DF000FEF71AFB2B48DFF8B4C000DF16B901203C
:102E0000C2E720E01EE04FF6FF712648DFF898C0C9
:102E100000DF00210120FEF707FBA31C6A46A22168
:102E20000020FFF712FD064601210846FEF7FCFAD6
:102E30001C48DFF878C000DF16B90120A4E700E0E5
:102E400000E000BF00BF00209EE72DE9F043B5B0D1
:102E500081460D4616469846C82E76DC28128DF817
:102E60000800E8B28DF80900B9F1000F09D0B9F1F6
:102E7000010F42D0B9F1020F6AD0B9F1030F7DD131
:102E800091E04FF6FF710748DFF81CC000DF281201
:102E90008DF80800E8B28DF8090002200090B31CFC
:102EA00002AA0FE060DA072021D004003DCF040021
:102EB00000000010F800001024020010C4030010ED
:102EC00004040010A4210190002017F083F9C7B278
:102ED0004B48DFF830C100DF77B9002406E0A01CC2
:102EE00002A9085C08F80400601CC4B2B442F6DB16
:102EF000012035B0BDE8F0837FE04FF6FF71404818
:102F0000DFF804C100DF28128DF80800E8B28DF860
:102F1000090002200090B31C02AAA6210190002003
:102F200017F058F9C7B23648DFF8D8C000DF77B9D4
:102F3000002406E0A01C02A9085C08F80400601C3C
:102F4000C4B2B442F6DB0120D3E757E000E054E01E
:102F50004FF6FF712A48DFF8B0C000DF28128DF865
:102F60000800E8B28DF8090002200090B31C02AA04
:102F7000A8210190002017F02DF900E03CE0C7B235
:102F80001F48DFF880C000DF67B9002406E0A01CFE
:102F900002A9085C08F80400601CC4B2B442F6DB65
:102FA0000120A6E729E04FF6FF711548DFF858C069
:102FB00000DF28128DF80800E8B28DF80900022021
:102FC0000090B31C02AAA2210190002017F002F980
:102FD000C7B20B48DFF82CC000DF67B9002406E059
:102FE000A01C02A9085C08F80400601CC4B2B4422A
:102FF000F6DB01207DE700E000BF00BF002078E79E
:1030000060DA07203DCF040021D00400002004E056
:103010000022FE490A54411CC8B20828F8DB0021EE
:10302000FA4AD21E917051701170704710B5014666
:10303000402900DC09B9002010BD481EC41700EB70
:103040005474C4F3C702C41700EB5474E410A0EB2B
:10305000C404E3B2ED48805C01249C402043C4B228
:10306000EA4884540120E7E710B50146402900DC16
:1030700009B9002010BD481EC41700EB5474C4F3F6
:10308000C702C41700EB5474E410A0EBC404E3B20D
:10309000DE48805C01249C40A043DC4CA05401200D
:1030A000E8E700B5DA48007C00F05000502804D072
:1030B000D748007C00F0500018B90120FFF7D4FF7A
:1030C00002E00120FFF7B2FFD148807C00F0200031
:1030D00048B9CF48007D00F0200020B9CC48807D61
:1030E00000F0200018B13320FFF7A0FF02E03320EA
:1030F000FFF7BAFFC648007E00F0080018B1342080
:10310000FFF794FF02E03420FFF7AEFFC048807C59
:1031100000F0040048B9BE48007D00F0040020B96A
:10312000BB48807D00F0040018B13520FFF77EFF1A
:1031300002E03520FFF798FF3620FFF795FFB448EF
:10314000007E00F0400018B13720FFF76FFF02E06B
:103150003720FFF789FFAE48007B00F0100018B160
:103160003820FFF763FF02E03820FFF77DFFA84813
:10317000807C00F0010048B9A548007D00F0010006
:1031800020B9A348807D00F0010018B13920FFF775
:103190004DFF02E03920FFF767FF9D48807C00F07B
:1031A000800048B99A48007D00F0800020B9984816
:1031B000807D00F0800018B13A20FFF737FF02E071
:1031C0003A20FFF751FF9248807C00F0080048B990
:1031D0008F48007D00F0080020B98D48807D00F008
:1031E000080018B13B20FFF721FF02E03B20FFF76A
:1031F0003BFF8748007E00F0010020B98448007E34
:1032000000F0020018B13C20FFF710FF02E03C2064
:10321000FFF72AFF7E48007B00F0040018B13E2033
:10322000FFF704FF02E03E20FFF71EFF7848007B17
:1032300000F0080018B13D20FFF7F8FE02E03D2045
:10324000FFF712FF00BD30B50024002300210FE07E
:10325000002209E06D48405C01259540284008B1F6
:10326000601CC4B2501CC2B2082AF3DB481CC1B2B5
:103270000829EDDB6548C01E4470002C03DC65485E
:1032800040782A2805D10120634D2870634D2870AD
:1032900004E00020604D2870604D2870002C39DD5E
:1032A00000210AE05948C01EC07801258D40284001
:1032B00008B1581CC3B2481CC1B20829F2DB23B1C3
:1032C0000120524DED1E287030BD002110E000227B
:1032D0000AE04E484D1C455D0120904005400DB16F
:1032E000581CC3B2501CC2B2082AF2DB481CC1B23F
:1032F0000629ECDB4BB14548C01E007840F00200C7
:10330000424DED1E28700120DEE700203F4DED1EEE
:10331000287003E000203D4DED1E28700120D3E70A
:1033200070B53F48007800287CD0FFF78CFF374805
:10333000C01E0078012804D002282AD0822872D129
:1033400084E03248C01E8078082803DD00202F4B1F
:10335000DB1E9870002119E02C4BDB1E9B7858185F
:10336000C31700EB5373DB10A0EBC303DAB227489B
:10337000C01EC07801239340184028B1501C234B35
:10338000DB1E9870012070BD481CC1B20829E3DB28
:1033900064E01E48C01E8078092803DA08201B4C10
:1033A000E41EA07000214EE0184CE41EA4780C44EA
:1033B000382594FBF5F605FB1640C41700EB547452
:1033C000C4F3C702114CE41EA4780C4494FBF5F638
:1033D00005FB1640C41700EB5474E410A0EBC404C2
:1033E000E3B20A48805C01249C402040E0B10748D9
:1033F000C01E80780844382490FBF4F504FB1500C7
:10340000401C024CE41EA0700120BCE7FB0500102C
:1034100018050010740400108504001088040010C2
:1034200049C007201BE015E00F4880780844382881
:1034300007DD0D48007840F080000B4C2070002024
:10344000A1E7481CC1B23029AEDB07E008200649DD
:10345000887003E000200449887000BF01E0FFF796
:10346000D5FD00208FE70000F805001010B5A2B0D0
:10347000FF208DF8040000208DF80500FE48407CF8
:103480008DF80600FC48807A8DF80700FA48C07A6B
:103490008DF8080000208DF809008DF80A00F74823
:1034A000407C8DF80B00F548807C8DF80C00F348CB
:1034B000C07C8DF80D00F148007D8DF80E00F048BD
:1034C000007A8DF80F00EE480089000A8DF8100090
:1034D000EB488068000C8DF81100E9488068000E08
:1034E0008DF81200E648007D8DF81300E448808ACC
:1034F000000A8DF81400E2484069000C8DF81500B0
:10350000DF484069000E8DF81600DD4890F8200075
:103510008DF81700DA48008C000A8DF81800D8489A
:10352000006A000C8DF81900D548006A000E8DF86D
:103530001A00D34890F82C008DF81B00D048808DDD
:10354000000A8DF81C00CE48C06A000C8DF81D00E2
:10355000CB48C06A000E8DF81E00C94890F83800AC
:103560008DF81F00C648008F000A8DF82000C4485F
:10357000806B000C8DF82100C148806B000E8DF827
:103580002200BF4890F844008DF82300BC48B0F8F2
:103590004400000A8DF82400B948406C000C8DF8F6
:1035A0002500B748406C000E8DF82600B54880789D
:1035B0008DF82700B34840798DF82800B148007A8B
:1035C0008DF8290000208DF82A008DF82B000024AA
:1035D0001FE0AD4810F82410A000283001AA1154B3
:1035E000A94830F82400C0F30721A0002930115465
:1035F000A54850F82400C0F30741A0002A30115418
:10360000A14850F82400010EA0002B301154601C7A
:10361000C4B20A2CDDDB9D4800788DF854009B482D
:103620000088000A8DF8550098480068000C8DF855
:10363000560096480068000E8DF857009448407870
:103640008DF85800924880788DF85900904800789D
:103650008DF85A008F4890F8A9008DF85B008E48CD
:1036600090F820008DF85C008B48008C000A8DF8E3
:103670005D008948006A000C8DF85E008648006A8B
:10368000000E8DF85F00844890F824008DF86000EB
:103690008148808C000A8DF861007F48406A000CE8
:1036A0008DF862007C48406A000E8DF863007B480C
:1036B00090F820008DF864007848008C000A8DF89E
:1036C00065007648006A000C8DF866007348006A51
:1036D000000E8DF86700714890F824008DF868009E
:1036E0006E48808C000A8DF869006C48406A000CB6
:1036F0008DF86A006948406A000E8DF86B006848D2
:1037000090F820008DF86C006548008C000A8DF858
:103710006D006348006A000C8DF86E006048006A16
:10372000000E8DF86F005E4890F824008DF8700050
:103730005B48808C000A8DF871005948406A000C83
:103740008DF872005648406A000E8DF87300002410
:1037500006E0002104F1700001AA1154601CC4B2FB
:103760000F2CF6DB7F210DF10600FDF70FFE8DF823
:10377000850000210846FDF757FE822301AAA621F5
:103780000020FFF762F830B901210020FDF74CFE60
:10379000012022B010BD01210020FDF745FE0020D0
:1037A000F7E710B5A2B0FF208DF8040000208DF8D7
:1037B0000500822301AAA621FFF708F900285AD0A4
:1037C0007F210DF10600FDF7E1FD9DF8851088428F
:1037D00068D19DF80600284948749DF80700012823
:1037E00003D09DF80700022804D19DF80700224964
:1037F000887202E00120204988729DF8080008289C
:1038000007DC9DF8080020B19DF808001A49C8722D
:1038100002E001201849C8729DF80B00174948744E
:103820009DF80C10154881749DF80D10C1749DF819
:103830000E1001759DF80F009DF8101000EB01208F
:1038400000EB014000EB01600D4988609DF813001A
:103850009DF8141000EB01209DF8151000EB0140BD
:103860009DF8161000EB0161054841619DF81700B5
:103870009DF8181017E033E1300C0010EC08082018
:103880009006001074C007200406001010C0072026
:10389000740400104C0C0010F008001018090010FF
:1038A00040090010EBE000EB01209DF8191000EB3F
:1038B00001409DF81A1000EB0161E24801629DF899
:1038C0001B009DF81C1000EB01209DF81D1000EB63
:1038D00001409DF81E1000EB0161DA48C1629DF8BD
:1038E0001F009DF8201000EB01209DF8211000EB37
:1038F00001409DF8221000EB0161D24881639DF8E0
:1039000023009DF8241000EB01209DF8251000EB0A
:1039100001409DF8261000EB0161CA4841649DF802
:103920002700C94988709DF82810C74841719DF843
:1039300029100172002418E0A000283001A9095CB8
:10394000A000293001AA105C01EB0021A0002A3060
:10395000105C01EB0041A0002B30105C01EB00601B
:10396000BA4941F82400601CC4B20A2CE4DB9DF87B
:1039700054009DF8551000EB01209DF8561000EB07
:1039800001409DF8571000EB0160B14908600846FE
:10399000006810B10120AF4908709DF85800AE4989
:1039A00048709DF8590088709DF85A0008709DF87D
:1039B0005B10AA4880F8A9109DF85C009DF85D1086
:1039C00000EB01209DF85E1000EB01409DF85F10B8
:1039D00000EB0160A24908629DF860009DF861104B
:1039E00000EB01209DF8621000EB01409DF8631090
:1039F00000EB01609A4948629DF864009DF86510EB
:103A000000EB01209DF8661000EB01409DF8671067
:103A100000EB0160934908629DF868009DF8691009
:103A200000EB01209DF86A1000EB01409DF86B103F
:103A300000EB01608B4948629DF86C009DF86D10A9
:103A400000EB01209DF86E1000EB01409DF86F1017
:103A500000EB0160844908629DF870009DF87110C8
:103A600000EB01209DF8721000EB01409DF87310EF
:103A700000EB01607C494862012022B010BD0120AA
:103A80007A4948748872C8726320794948746321FE
:103A900077488174C174017500206A4988600021EB
:103AA000684841610162C16281634164002405E0AC
:103AB0000020664941F82400601CC4B20A2CF7DBE0
:103AC0000020634908606449487088700870644940
:103AD0000862486263490862486263490862486252
:103AE0000020CAE7F0B50446154600220A2C7BD216
:103AF000DFE804F00506072645466484474800BF12
:103B000000BF524850F82400884200D2BBB14F4851
:103B100050F824000C26B0FBF6F706FB1702501CE9
:103B2000814204DC481E561C301AC2B204E0481E12
:103B3000C0F10D001044C2B22A700120F0BD7DE03A
:103B4000424850F82400884200D2BBB13F4850F8A8
:103B500024000326B0FBF6F706FB1702501C814237
:103B600004DC481E561C301AC2B204E0481EC0F1E4
:103B700004001044C2B22A700120DFE75EE000BFFB
:103B800000BF00BF314850F82400884200D2A3B1E2
:103B90002E4810F8240000F00102501C814204DC81
:103BA000481E561C301AC2B204E0481EC0F1030081
:103BB0001044C2B22A700120C0E73FE0234850F809
:103BC0002400884200D2C3B1204850F82400FE26C9
:103BD000B0FBF6F706FB1702501C814205DC481EBD
:103BE000561C301AC2B205E027E0481EC0F1FF00A3
:103BF0001044C2B22A700120A0E71FE0134850F819
:103C00002400884200D2BBB1104850F824003E2660
:103C1000B0FBF6F706FB1702501C814204DC481E7D
:103C2000561C301AC2B204E0481EC0F13F001044D6
:103C3000C2B22A70012081E700E000BF00BF00206F
:103C40007CE700009006001074C0072004060010F6
:103C500010C0072014C00720740400104C0C001082
:103C6000F00800101809001040090010300C001076
:103C7000EC08082000B5ADB000202C902B902A90C5
:103C80000890079006900590FE48406D00F01000E7
:103C900008B12DB000BDFB48406900F0804000B184
:103CA000F7E7F848406900F0005000B1F1E7F64846
:103CB00000682C90059800F0010030B1F14880694F
:103CC00040F40000EF49886105E0EE48C06940F427
:103CD0000000EC49C8611BE0EB4801682B98401DCF
:103CE000814215D9E84800682B90E648406D00F005
:103CF000100068B9E348406900F0804040B9E148ED
:103D0000406900F0005018B92A98401C80B22A90EF
:103D10002C9800F57A70DC4909688842DCD82A982A
:103D2000782800DAB5E70598401CC0B205900598E0
:103D300000F0010030B1D348806940F40000D1495F
:103D4000886105E0CF48C06940F40000CD49C861F2
:103D50000020089007E0FF2109AA0898115408984C
:103D6000401C80B2089008988228F4DB00210120D2
:103D7000FDF75AFB00210846FDF756FB002008908E
:103D800030E000200490822309AAA421FEF75DFD03
:103D90009DF825109DF8240001EB0020803080B2B2
:103DA00004900498000A8DF824000498C0B28DF89D
:103DB00025000598401CC0B20590059800F0010050
:103DC00030B1B048806940F40000AE49886105E038
:103DD000AC48C06940F40000AA49C8610898401C7A
:103DE00080B208900898B0F5007FCADB00200890E8
:103DF00030E000200490822309AAA621FEF725FDC9
:103E00009DF825109DF8240001EB0020803080B241
:103E100004900498000A8DF824000498C0B28DF82C
:103E200025000598401CC0B20590059800F00100DF
:103E300030B19448806940F400009249886105E0FF
:103E40009048C06940F400008E49C8610898401C41
:103E500080B208900898B0F5007FCADB0020089077
:103E600030E000200490822309AAA821FEF7EDFC8F
:103E70009DF825109DF8240001EB0020803080B2D1
:103E800004900498000A8DF824000498C0B28DF8BC
:103E900025000598401CC0B20590059800F001006F
:103EA00030B17848806940F400007649886105E0C7
:103EB0007448C06940F400007249C8610898401C09
:103EC00080B208900898B0F5007FCADB0020089007
:103ED00030E000200490822309AAA221FEF7B5FC5D
:103EE0009DF825109DF8240001EB0020803080B261
:103EF00004900498000A8DF824000498C0B28DF84C
:103F000025000598401CC0B20590059800F00100FE
:103F100030B15C48806940F400005A49886105E08E
:103F20005848C06940F400005649C8610898401CD0
:103F300080B208900898B0F5007FCADB01210846DE
:103F4000FDF772FA01210020FDF76EFA15208DF8B9
:103F5000240009A803230122002100900420FEF779
:103F600050FD01208DF8240009A80423012200211E
:103F700000901846FEF745FD80208DF824000020B3
:103F80008DF8250009A805230122002100900420B6
:103F9000FEF737FD00208DF824008DF82500012064
:103FA0008DF8260002208DF8270011208DF82800BA
:103FB00009A806230122002100900420FEF721FD1C
:103FC00000208DF824008DF8250001208DF82600B2
:103FD0008DF8270011208DF8280009A80723012259
:103FE000002100900420FEF70CFD0598401CC0B293
:103FF0000590059800F0010030B12248806940F436
:1040000000002049886105E01E48C06940F40000B6
:104010001C49C86100208DF824008DF8250001207E
:104020008DF826008DF8270011208DF8280009A8AA
:1040300008230122002100900420FEF7E2FC00206A
:104040008DF824008DF8250001208DF826008DF8CC
:10405000270011208DF8280009A80923012200213A
:1040600000900420FEF7CDFC00208DF824008DF890
:10407000250001208DF826008DF8270011208DF8ED
:10408000280003E000C0092044C0072009A80A2333
:104090000122002100900420FEF7B3FC02208DF8DD
:1040A000240009A801230222002100900420FEF729
:1040B000A8FC08208DF8240009A802231A46002134
:1040C00000900420FEF79DFC0598401CC0B20590AE
:1040D000059800F0010030B1FE48806940F400000E
:1040E000FC49886105E0FB48C06940F40000F949DB
:1040F000C86114208DF8240009A80323022200219E
:1041000000900420FEF77DFC04208DF8240009A80F
:1041100004230222002100901846FEF772FC1320AF
:104120008DF8240000208DF8250009A8052302221F
:10413000002100900420FEF764FC00208DF824008C
:1041400009A806230222002100900420FEF759FC52
:1041500000208DF8240009A80723022200210090E6
:104160000420FEF74EFC0598401CC0B2059005984F
:1041700000F0010030B1D748806940F40000D54913
:10418000886105E0D348C06940F40000D149C861A6
:1041900050208DF8240009A801230322002100905B
:1041A0000420FEF72EFC05208DF8240009A8022328
:1041B0000322002100900420FEF723FC02208DF84A
:1041C000240009A803231A46002100900420FEF7CA
:1041D00018FC02208DF8240009A8042303220021E2
:1041E00000901846FEF70DFC50208DF8240009A819
:1041F00005230322002100900420FEF702FC05980D
:10420000401CC0B20590059800F0010030B1B148E3
:10421000806940F40000AF49886105E0AD48C0699D
:1042200040F40000AB49C86101208DF82400002053
:104230008DF825008DF8260009A806230322002109
:1042400000900420FEF7DDFB01208DF82400002003
:104250008DF825008DF8260009A8072303220021E8
:1042600000900420FEF7CDFB08208DF8240009A85B
:1042700008230322002100900420FEF7C2FB112036
:104280008DF824008DF825008DF826008DF8270084
:104290008DF828008DF8290009A8012304220021A7
:1042A00000901046FEF7ADFB11208DF824008DF82C
:1042B00025008DF826008DF827008DF828008DF850
:1042C000290009A802230422002100901046FEF7CD
:1042D00098FB0598401CC0B20590059800F00100BD
:1042E00030B17C48806940F400007A49886105E07B
:1042F0007848C06940F400007649C86158208DF8BC
:1043000024008DF825008DF826008DF827008DF803
:1043100028008DF829008DF82A008DF82B008DF8E3
:104320002C008DF82D008DF82E008DF82F008DF8C3
:1043300030008DF831008DF832008DF833008DF8A3
:1043400034008DF835008DF836008DF837008DF883
:1043500038008DF839008DF83A008DF83B008DF863
:1043600036008DF83C008DF83D008DF83E008DF84C
:104370003F008DF840008DF841008DF842008DF827
:10438000430009A803230422002100901046FEF7F1
:1043900038FB05208DF8240009A8012306220021FE
:1043A00000900420FEF72DFB55208DF8240009A86D
:1043B00002230622002100900420FEF722FB552054
:1043C0008DF8240009A80323062200210090042070
:1043D000FEF717FB04208DF8240009A8012307220B
:1043E000002100900420FEF70CFB0598401CC0B291
:1043F0000590059800F0010030B13648806940F41E
:1044000000003449886105E03248C06940F400008A
:104410003049C86108208DF8240009A8022307222A
:10442000002100900420FEF7ECFA08208DF824000B
:1044300009A803230722002100900420FEF7E1FAD7
:1044400008208DF8240009A80423072200210090E9
:104450001846FEF7D6FA08208DF8240009A805238F
:104460000722002100900420FEF7CBFA3E208DF8B1
:10447000240009A801230822002100900420FEF74F
:10448000C0FA0598401CC0B20590059800F00100E4
:1044900030B11048806940F400000E49886105E0A1
:1044A0000C48C06940F400000A49C86100208DF83A
:1044B000240009A802230822002100900420FEF70E
:1044C000A0FA3F208DF8240009A801230922002129
:1044D000009001E000C009200420FEF792FA7F203E
:1044E0008DF8240009A8022309220021009004204D
:1044F000FEF787FA7F208DF8240009A803230922FC
:10450000002100900420FEF77CFA7F208DF8240023
:1045100009A804230922002100901846FEF771FA29
:104520000598401CC0B20590059800F0010030B11C
:10453000F748806940F40000F549886105E0F448D7
:10454000C06940F40000F249C8617F208DF8240062
:1045500009A805230922002100900420FEF751FA42
:104560007F208DF8240009A806230922002100904D
:104570000420FEF746FA00208DF824008DF825006F
:1045800001208DF8260012208DF8270009A80123AC
:104590000A22002100900420FEF733FA60208DF8F3
:1045A000240000208DF8250009A802230A220021FA
:1045B00000900420FEF725FA60208DF824000020EA
:1045C0008DF8250009A803230A2200210090042069
:1045D000FEF717FA0598401CC0B20590059800F048
:1045E000010030B1CA48806940F40000C8498861C0
:1045F00005E0C748C06940F40000C549C8616020B3
:104600008DF8240000208DF8250009A804230A2233
:10461000002100901846FEF7F4F960208DF8240080
:1046200000208DF8250009A805230A22002100900A
:104630000420FEF7E6F960208DF8240000208DF8B4
:10464000250009A806230A22002100900420FEF775
:10465000D8F960208DF8240000208DF8250009A8E5
:1046600007230A22002100900420FEF7CAF9002047
:104670008DF8240001208DF8250009A801230B22C4
:10468000002100900420FEF7BCF90598401CC0B240
:104690000590059800F0010030B19D48806940F414
:1046A00000009B49886105E09948C06940F400001A
:1046B0009749C86199208DF824008DF8250009A834
:1046C00002230B22002100900420FEF79AF9992082
:1046D0008DF824008DF8250009A803230B22002162
:1046E00000900420FEF78DF900208DF824008DF84D
:1046F00025008DF826008DF8270009A801230C223B
:10470000002100900420FEF77CF901208DF82400A0
:1047100011208DF825008DF826008DF8270009A8B6
:1047200002230C22002100900420FEF76AF90220E7
:104730008DF8240000208DF825008DF826008DF8D6
:10474000270009A803230C22002100900420FEF773
:1047500058F90598401CC0B20590059800F001007A
:1047600030B16B48806940F400006949886105E018
:104770006748C06940F400006549C86103208DF8AE
:10478000240033208DF825008DF826008DF82700B1
:1047900009A804230C22002100901846FEF731F9E5
:1047A00004208DF8240011208DF825008DF82600B6
:1047B0008DF8270009A805230C2200210090042071
:1047C000FEF71FF905208DF8240055208DF82500EF
:1047D0008DF826008DF8270009A806230C22002159
:1047E00000900420FEF70DF906208DF824006620C5
:1047F0008DF825008DF826008DF8270009A80723DD
:104800000C22002100900420FEF7FBF807208DF811
:10481000240077208DF825008DF826008DF82700DC
:1048200009A808230C22002100900420FEF7E9F8D3
:104830000598401CC0B20590059800F0010030B109
:104840003348806940F400003149886105E0304810
:10485000C06940F400002E49C86108208DF824008A
:1048600088208DF825008DF826008DF8270009A8EE
:1048700009230C22002100900420FEF7C2F8092031
:104880008DF8240099208DF825008DF826008DF8EC
:10489000270009A80A230C22002100900420FEF71B
:1048A000B0F800208DF824008DF8250009A8012318
:1048B0000D22002100900420FEF7A3F800208DF8BF
:1048C00024008DF8250009A802230D220021009064
:1048D0000420FEF796F800208DF824008DF82500BE
:1048E00009A803230D22002100900420FEF789F877
:1048F0000598401CC0B20590059800F0010048B131
:104900000348806940F400000149886108E0000024
:1049100000C00920FE48C06940F40000FC49C8619D
:1049200000208DF824008DF8250009A804230D220D
:10493000002100901846FEF764F800208DF824004E
:104940008DF8250009A805230D22002100900420E0
:10495000FEF757F800208DF8240006208DF825007A
:1049600009A806230D22002100900420FEF749F833
:1049700000208DF824008DF8250009A807230D22BA
:10498000002100900420FEF73CF800208DF8240060
:104990008DF8250009A808230D220021009004208D
:1049A000FEF72FF80598401CC0B20590059800F05E
:1049B000010030B1D648806940F40000D4498861D4
:1049C00005E0D348C06940F40000D149C861002027
:1049D0008DF824008DF8250009A809230D22002157
:1049E00000900420FEF70DF800208DF824008DF8CB
:1049F000250009A80A230D22002100900420FEF7BB
:104A000000F800208DF824008DF8250009A80B235C
:104A10000D22002100900420FDF7F3FF00208DF807
:104A200024008DF8250009A80C230D2200210090F8
:104A30000420FDF7E6FF00208DF824008DF8250006
:104A400010208DF8260009A801230E2200210090D5
:104A50000420FDF7D6FF0598401CC0B205900598CC
:104A600000F0010030B1AA48806940F40000A84974
:104A7000886105E0A648C06940F40000A449C86107
:104A800000208DF824008DF8250010208DF82600D8
:104A900009A802230E22002100900420FDF7B1FF97
:104AA00064208DF8240002208DF8250009A8032336
:104AB0000E22002100900420FDF7A3FF76208DF840
:104AC000240001208DF8250009A804230E220021CE
:104AD00000901846FDF795FF00208DF824008DF812
:104AE00025008DF826008DF8270009A801230F2244
:104AF000002100900420FDF784FF00208DF82400A1
:104B00008DF825008DF826008DF8270009A80223CE
:104B10000F22002100900420FDF773FF0598401C30
:104B2000C0B20590059800F0010030B17848806966
:104B300040F400007649886105E07548C06940F49A
:104B400000007349C86199208DF824008DF8250074
:104B50008DF826008DF8270009A803230F220021D5
:104B600000900420FDF74DFF00208DF824008DF803
:104B700025008DF826008DF8270009A804230F22B0
:104B8000002100901846FDF73CFF00208DF824001E
:104B90008DF825008DF826008DF8270009A801233F
:104BA0001022002100900420FDF72BFF00208DF83B
:104BB00024008DF825008DF826008DF8270009A81F
:104BC00002231022002100900420FDF71AFF00208C
:104BD0008DF824008DF825008DF826008DF827002B
:104BE00009A803231022002100900420FDF709FFEB
:104BF0000598401CC0B20590059800F0010030B146
:104C00004348806940F400004149886105E040481C
:104C1000C06940F400003E49C86199208DF8240025
:104C20008DF825008DF826008DF8270009A80423AB
:104C30001022002100901846FDF7E3FE00208DF8B9
:104C400024008DF825008DF826008DF8270009A88E
:104C500005231022002100900420FDF7D2FE112030
:104C60008DF8240010208DF8250011208DF82600E5
:104C700000208DF827008DF8280009A801231222B2
:104C8000002100900420FDF7BCFE60208DF8240078
:104C900009A802231222002100900420FDF7B1FE92
:104CA00000208DF824008DF8250009A80323122286
:104CB000002100900420FDF7A4FE0598401CC0B21E
:104CC0000590059800F0010030B11148806940F46A
:104CD00000000F49886105E00D48C06940F40000FC
:104CE0000B49C86100208DF824008DF8250009A823
:104CF00001231422002100900420FDF782FE0020F1
:104D00008DF824008DF8250009A80323122201E064
:104D100000C00920002100900420FDF772FE012050
:104D20008DF824008DF825008DF8260002208DF8DE
:104D3000270001208DF8280007208DF82900022087
:104D40008DF82A0001208DF82B0007208DF82C000B
:104D500002208DF82D0001208DF82E0007208DF8FF
:104D60002F0002208DF8300001208DF8310007203F
:104D70008DF8320002208DF8330001208DF83400C8
:104D800007208DF8350002208DF8360001208DF8BF
:104D9000370007208DF8380002208DF839000120F7
:104DA0008DF83A0007208DF83B0002208DF83C007A
:104DB00001208DF83D0007208DF83E0002208DF87F
:104DC0003F0001208DF8400007208DF841000220AF
:104DD0008DF8420001208DF8430007208DF8440033
:104DE00002208DF8450001208DF8460007208DF83F
:104DF000470002208DF8480001208DF84900072067
:104E00008DF84A0002208DF84B0001208DF84C00EF
:104E100007208DF84D0009A800231A4601210090B3
:104E20000420FDF7EEFD01208DF824008DF825000B
:104E30008DF8260002208DF8270001208DF828002B
:104E400002208DF829008DF82A0001208DF82B0012
:104E500002208DF82C008DF82D0001208DF82E00F9
:104E600002208DF82F008DF8300001208DF83100E0
:104E700002208DF832008DF8330001208DF83400C7
:104E800002208DF835008DF8360001208DF83700AE
:104E900002208DF838008DF8390001208DF83A0095
:104EA00002208DF83B008DF83C0001208DF83D007C
:104EB00002208DF83E008DF83F0001208DF8400063
:104EC00002208DF841008DF8420001208DF843004A
:104ED00002208DF844008DF8450001208DF8460031
:104EE00002208DF847008DF8480001208DF8490018
:104EF00002208DF84A008DF84B0001208DF84C00FF
:104F000002208DF84D0009A80123002219460090C7
:104F10000420FDF776FD01208DF824008DF8250092
:104F20008DF8260002208DF8270001208DF828003A
:104F300002208DF829008DF82A0001208DF82B0021
:104F400002208DF82C008DF82D0001208DF82E0008
:104F500002208DF82F008DF8300001208DF83100EF
:104F600002208DF832008DF8330001208DF83400D6
:104F700002208DF835008DF8360001208DF83700BD
:104F800002208DF838008DF8390001208DF83A00A4
:104F900002208DF83B008DF83C0001208DF83D008B
:104FA00002208DF83E008DF83F0001208DF8400072
:104FB00002208DF841008DF8420001208DF8430059
:104FC00002208DF844008DF8450001208DF8460040
:104FD00002208DF847008DF8480001208DF8490027
:104FE00002208DF84A008DF84B0001208DF84C000E
:104FF00002208DF84D0009A8022300220121009013
:105000000420FDF7FEFC0598401CC0B205900598F1
:1050100000F0010030B1FE48806940F40000FC4916
:10502000886105E0FA48C06940F40000F849C861A9
:1050300001208DF824008DF825008DF8260002202F
:105040008DF8270001208DF8280002208DF8290016
:105050008DF82A0001208DF82B0002208DF82C00FD
:105060008DF82D0001208DF82E0002208DF82F00E4
:105070008DF8300001208DF8310002208DF83200CB
:105080008DF8330001208DF8340002208DF83500B2
:105090008DF8360001208DF8370002208DF8380099
:1050A0008DF8390001208DF83A0002208DF83B0080
:1050B0008DF83C0001208DF83D0002208DF83E0067
:1050C0008DF83F0001208DF8400002208DF841004E
:1050D0008DF8420001208DF8430002208DF8440035
:1050E0008DF8450001208DF8460002208DF847001C
:1050F0008DF8480001208DF8490002208DF84A0003
:105100008DF84B0001208DF84C0002208DF84D00E9
:1051100009A803230022012100900420FDF771FC5F
:1051200001208DF824008DF825008DF8260002203E
:105130008DF8270001208DF8280002208DF8290025
:105140008DF82A0001208DF82B0002208DF82C000C
:105150008DF82D0001208DF82E0002208DF82F00F3
:105160008DF8300001208DF8310002208DF83200DA
:105170008DF8330001208DF8340002208DF83500C1
:105180008DF8360001208DF8370002208DF83800A8
:105190008DF8390001208DF83A0002208DF83B008F
:1051A0008DF83C0001208DF83D0002208DF83E0076
:1051B0008DF83F0001208DF8400002208DF841005D
:1051C0008DF8420001208DF8430002208DF8440044
:1051D0008DF8450001208DF8460002208DF847002B
:1051E0008DF8480001208DF8490002208DF84A0012
:1051F0008DF84B0001208DF84C0002208DF84D00F9
:1052000009A804230022012100901846FDF7F9FBAC
:1052100001208DF824008DF825008DF8260002204D
:105220008DF8270001208DF8280002208DF8290034
:105230008DF82A0001208DF82B0002208DF82C001B
:105240008DF82D0001208DF82E0002208DF82F0002
:105250008DF8300001208DF8310002208DF83200E9
:105260008DF8330001208DF8340002208DF83500D0
:105270008DF8360001208DF8370002208DF83800B7
:105280008DF8390001208DF83A0002208DF83B009E
:105290008DF83C0001208DF83D0002208DF83E0085
:1052A0008DF83F0001208DF8400002208DF841006C
:1052B0008DF8420001208DF8430002208DF8440053
:1052C0008DF8450001208DF8460002208DF847003A
:1052D0008DF8480001208DF8490002208DF84A0021
:1052E0008DF84B0001208DF84C0002208DF84D0008
:1052F00009A805230022012100900420FDF781FB6D
:1053000001208DF824008DF825008DF8260002205C
:105310008DF8270001208DF8280002208DF8290043
:105320008DF82A0001208DF82B0002208DF82C002A
:105330008DF82D0001208DF82E0002208DF82F0011
:105340008DF8300001208DF8310002208DF83200F8
:105350008DF8330001208DF8340002208DF83500DF
:105360008DF8360001208DF8370002208DF83800C6
:105370008DF8390001208DF83A0002208DF83B00AD
:105380008DF83C0001208DF83D0002208DF83E0094
:105390008DF83F0001208DF8400002208DF841007B
:1053A0008DF8420001208DF8430002208DF8440062
:1053B0008DF8450001208DF8460002208DF8470049
:1053C0008DF8480001208DF8490002208DF84A0030
:1053D0008DF84B0001208DF84C0002208DF84D0017
:1053E00009A806230022012100900420FDF709FBF3
:1053F00001208DF824008DF825008DF8260002206C
:105400008DF8270001208DF82800022002E000001E
:1054100000C009208DF829008DF82A0001208DF8A0
:105420002B0002208DF82C008DF82D0001208DF826
:105430002E0002208DF82F008DF8300001208DF80D
:10544000310002208DF832008DF8330001208DF8F4
:10545000340002208DF835008DF8360001208DF8DB
:10546000370002208DF838008DF8390001208DF8C2
:105470003A0002208DF83B008DF83C0001208DF8A9
:105480003D0002208DF83E008DF83F0001208DF890
:10549000400002208DF841008DF8420001208DF877
:1054A000430002208DF844008DF8450001208DF85E
:1054B000460002208DF847008DF8480001208DF845
:1054C000490002208DF84A008DF84B0001208DF82C
:1054D0004C0002208DF84D0009A80723002201216D
:1054E00000900420FDF78DFA0598401CC0B205908D
:1054F000059800F0010030B1FE48806940F40000DA
:10550000FC49886105E0FB48C06940F40000F949A6
:10551000C86101208DF824008DF825008DF8260043
:1055200002208DF8270001208DF8280002208DF838
:1055300029008DF82A0001208DF82B0002208DF81B
:105540002C008DF82D0001208DF82E0002208DF802
:105550002F008DF8300001208DF8310002208DF8E9
:1055600032008DF8330001208DF8340002208DF8D0
:1055700035008DF8360001208DF8370002208DF8B7
:1055800038008DF8390001208DF83A0002208DF89E
:105590003B008DF83C0001208DF83D0002208DF885
:1055A0003E008DF83F0001208DF8400002208DF86C
:1055B00041008DF8420001208DF8430002208DF853
:1055C00044008DF8450001208DF8460002208DF83A
:1055D00047008DF8480001208DF8490002208DF821
:1055E0004A008DF84B0001208DF84C0002208DF808
:1055F0004D0009A808230022012100900420FDF796
:1056000000FA01208DF824008DF825008DF8260081
:1056100002208DF8270001208DF8280002208DF847
:1056200029008DF82A0001208DF82B0002208DF82A
:105630002C008DF82D0001208DF82E0002208DF811
:105640002F008DF8300001208DF8310002208DF8F8
:1056500032008DF8330001208DF8340002208DF8DF
:1056600035008DF8360001208DF8370002208DF8C6
:1056700038008DF8390001208DF83A0002208DF8AD
:105680003B008DF83C0001208DF83D0002208DF894
:105690003E008DF83F0001208DF8400002208DF87B
:1056A00041008DF8420001208DF8430002208DF862
:1056B00044008DF8450001208DF8460002208DF849
:1056C00047008DF8480001208DF8490002208DF830
:1056D0004A008DF84B0001208DF84C0002208DF817
:1056E0004D0009A800231A46022100900420FDF76E
:1056F00088F901208DF824008DF825008DF826000A
:1057000002208DF8270001208DF8280002208DF856
:1057100029008DF82A0001208DF82B0002208DF839
:105720002C008DF82D0001208DF82E0002208DF820
:105730002F008DF8300001208DF8310002208DF807
:1057400032008DF8330001208DF8340002208DF8EE
:1057500035008DF8360001208DF8370002208DF8D5
:1057600038008DF8390001208DF83A0002208DF8BC
:105770003B008DF83C0001208DF83D0002208DF8A3
:105780003E008DF83F0001208DF8400002208DF88A
:1057900041008DF8420001208DF8430002208DF871
:1057A00044008DF8450001208DF8460002208DF858
:1057B00047008DF8480001208DF8490002208DF83F
:1057C0004A008DF84B0001208DF84C0002208DF826
:1057D0004D0009A801230022022100900420FDF7BA
:1057E00010F901208DF824008DF825008DF8260091
:1057F00002208DF8270001208DF8280002208DF866
:1058000029008DF82A0001208DF82B0002208DF848
:105810002C008DF82D0001208DF82E0002208DF82F
:105820002F008DF8300001208DF8310002208DF816
:1058300032008DF8330001208DF8340002208DF8FD
:1058400035008DF8360001208DF8370002208DF8E4
:1058500038008DF8390001208DF83A0002208DF8CB
:105860003B008DF83C0001208DF83D0002208DF8B2
:105870003E008DF83F0001208DF8400002208DF899
:1058800041008DF8420001208DF8430002208DF880
:1058900044008DF8450001208DF8460002208DF867
:1058A00047008DF8480001208DF8490002208DF84E
:1058B0004A008DF84B0001208DF84C0002208DF835
:1058C0004D0009A802230022194600900420FDF78C
:1058D00098F801208DF824008DF825008DF8260019
:1058E00002208DF8270001208DF8280002208DF875
:1058F000290001E000C009208DF82A0001208DF860
:105900002B0002208DF82C008DF82D0001208DF841
:105910002E0002208DF82F008DF8300001208DF828
:10592000310002208DF832008DF8330001208DF80F
:10593000340002208DF835008DF8360001208DF8F6
:10594000370002208DF838008DF8390001208DF8DD
:105950003A0002208DF83B008DF83C0001208DF8C4
:105960003D0002208DF83E008DF83F0001208DF8AB
:10597000400002208DF841008DF8420001208DF892
:10598000430002208DF844008DF8450001208DF879
:10599000460002208DF847008DF8480001208DF860
:1059A000490002208DF84A008DF84B0001208DF847
:1059B0004C0002208DF84D0009A80323002202218B
:1059C00000900420FDF71DF80598401CC0B205901A
:1059D000059800F0010030B1FE48806940F40000F5
:1059E000FC49886105E0FB48C06940F40000F949C2
:1059F000C86101208DF824008DF825008DF826005F
:105A000002208DF8270001208DF8280002208DF853
:105A100029008DF82A0001208DF82B0002208DF836
:105A20002C008DF82D0001208DF82E0002208DF81D
:105A30002F008DF8300001208DF8310002208DF804
:105A400032008DF8330001208DF8340002208DF8EB
:105A500035008DF8360001208DF8370002208DF8D2
:105A600038008DF8390001208DF83A0002208DF8B9
:105A70003B008DF83C0001208DF83D0002208DF8A0
:105A80003E008DF83F0001208DF8400002208DF887
:105A900041008DF8420001208DF8430002208DF86E
:105AA00044008DF8450001208DF8460002208DF855
:105AB00047008DF8480001208DF8490002208DF83C
:105AC0004A008DF84B0001208DF84C0002208DF823
:105AD0004D0009A804230022022100901846FCF77B
:105AE00090FF01208DF824008DF825008DF8260008
:105AF00002208DF8270001208DF8280002208DF863
:105B000029008DF82A0001208DF82B0002208DF845
:105B10002C008DF82D0001208DF82E0002208DF82C
:105B20002F008DF8300001208DF8310002208DF813
:105B300032008DF8330001208DF8340002208DF8FA
:105B400035008DF8360001208DF8370002208DF8E1
:105B500038008DF8390001208DF83A0002208DF8C8
:105B60003B008DF83C0001208DF83D0002208DF8AF
:105B70003E008DF83F0001208DF8400002208DF896
:105B800041008DF8420001208DF8430002208DF87D
:105B900044008DF8450001208DF8460002208DF864
:105BA00047008DF8480001208DF8490002208DF84B
:105BB0004A008DF84B0001208DF84C0002208DF832
:105BC0004D0009A805230022022100900420FCF7C3
:105BD00018FF01208DF824008DF825008DF826008F
:105BE00002208DF8270001208DF8280002208DF872
:105BF00029008DF82A0001208DF82B0002208DF855
:105C00002C008DF82D0001208DF82E0002208DF83B
:105C10002F008DF8300001208DF8310002208DF822
:105C200032008DF8330001208DF8340002208DF809
:105C300035008DF8360001208DF8370002208DF8F0
:105C400038008DF8390001208DF83A0002208DF8D7
:105C50003B008DF83C0001208DF83D0002208DF8BE
:105C60003E008DF83F0001208DF8400002208DF8A5
:105C700041008DF8420001208DF8430002208DF88C
:105C800044008DF8450001208DF8460002208DF873
:105C900047008DF8480001208DF8490002208DF85A
:105CA0004A008DF84B0001208DF84C0002208DF841
:105CB0004D0009A806230022022100900420FCF7D1
:105CC000A0FE01208DF824008DF825008DF8260017
:105CD00002208DF8270001208DF8280002208DF881
:105CE00029008DF82A0001208DF82B0002208DF864
:105CF0002C008DF82D0001208DF82E0002208DF84B
:105D00002F008DF8300001208DF8310002208DF831
:105D100032008DF8330001208DF8340002208DF818
:105D200035008DF8360001208DF8370002208DF8FF
:105D300038008DF8390001208DF83A0002208DF8E6
:105D40003B008DF83C0001208DF83D0002208DF8CD
:105D50003E008DF83F0001208DF8400002208DF8B4
:105D600041008DF8420001208DF8430002208DF89B
:105D700044008DF8450001208DF8460002208DF882
:105D800047008DF8480001208DF8490002208DF869
:105D90004A008DF84B0001208DF84C0002208DF850
:105DA0004D0009A807230022022100900420FCF7DF
:105DB00028FE01208DF824008DF825008DF826009E
:105DC00002208DF8270001208DF8280002208DF890
:105DD000290001E000C009208DF82A0001208DF87B
:105DE0002B0002208DF82C008DF82D0001208DF85D
:105DF0002E0002208DF82F008DF8300001208DF844
:105E0000310002208DF832008DF8330001208DF82A
:105E1000340002208DF835008DF8360001208DF811
:105E2000370002208DF838008DF8390001208DF8F8
:105E30003A0002208DF83B008DF83C0001208DF8DF
:105E40003D0002208DF83E008DF83F0001208DF8C6
:105E5000400002208DF841008DF8420001208DF8AD
:105E6000430002208DF844008DF8450001208DF894
:105E7000460002208DF847008DF8480001208DF87B
:105E8000490002208DF84A008DF84B0001208DF862
:105E90004C0002208DF84D0009A8082300220221A1
:105EA00000900420FCF7ADFD0598401CC0B20590A1
:105EB000059800F0010030B1FE48806940F4000010
:105EC000FC49886105E0FB48C06940F40000F949DD
:105ED000C86111208DF8240001208DF825008DF86F
:105EE00026008DF8270009A8012300220321009035
:105EF0000420FCF786FD11208DF8240005208DF884
:105F0000250001208DF826008DF8270009A802231E
:105F10000022032100900420FCF773FD11208DF86E
:105F200024000A208DF8250001208DF826008DF828
:105F3000270009A803230022194600900420FCF73B
:105F400060FD00208DF8280001208DF824008DF8D8
:105F5000250000208DF8260004208DF8270009A8D0
:105F600001231A46042100900846FCF74AFD002050
:105F70008DF8280002208DF8240001208DF82500DE
:105F800000208DF8260004208DF8270009A80223A0
:105F90000122042100900846FCF733FD0598401CBF
:105FA000C0B20590059800F0010030B1C148806989
:105FB00040F40000BF49886105E0BE48C06940F474
:105FC0000000BC49C86100208DF828008DF824002D
:105FD0008DF825008DF826008DF8270009A80323E9
:105FE0000122042100900846FCF70BFD00208DF8EB
:105FF00028008DF824008DF8250001208DF826005A
:1060000000208DF8270009A80423012219460090DA
:106010001846FCF7F6FC00208DF828008DF82400C7
:1060200001208DF825008DF8260000208DF827002E
:1060300009A805230122042100900846FCF7E1FC91
:1060400000208DF828008DF8240002208DF825000E
:1060500001208DF8260000208DF8270009A80623CE
:106060000122042100900846FCF7CBFC00208DF8AB
:1060700028008DF8240003208DF8250001208DF8DC
:10608000260000208DF8270009A8072301220421FB
:1060900000900846FCF7B5FC0598401CC0B205907E
:1060A000059800F0010030B18248806940F400009A
:1060B0008049886105E07F48C06940F400007D495F
:1060C000C86100208DF828008DF8240004208DF888
:1060D000250001208DF8260000208DF8270009A852
:1060E00008230122042100900846FCF78AFC0020C6
:1060F0008DF828008DF824008DF8250001208DF8FA
:1061000026008DF8270009A8092301220421009008
:106110000846FCF776FC01208DF8280000208DF859
:1061200024008DF8250001208DF826008DF8270029
:1061300009A80A230122042100900846FCF761FC0B
:1061400002208DF8280000208DF824008DF825000D
:1061500001208DF826008DF8270009A80B230122C5
:10616000042100900846FCF74CFC00208DF8280024
:106170008DF824008DF8250002208DF826000020DF
:106180008DF8270009A80C2301220421009008465D
:10619000FCF737FC0598401CC0B20590059800F04C
:1061A000010030B14348806940F4000041498861F2
:1061B00005E04048C06940F400003E49C861002045
:1061C0008DF828008DF8240001208DF8250002208C
:1061D0008DF8260000208DF8270009A80D23012244
:1061E000042100900846FCF70CFC00208DF82800E4
:1061F0008DF8240002208DF825008DF8260000205F
:106200008DF8270009A80E230122042100900846DA
:10621000FCF7F7FB00208DF828008DF82400032000
:106220008DF8250002208DF8260000208DF827002B
:1062300009A80F230122042100900846FCF7E1FB86
:1062400000208DF828008DF8240004208DF825000A
:1062500002208DF8260000208DF8270009A81023C1
:106260000122042100900846FCF7CBFB00208DF8AA
:1062700028008DF824008DF8250002208DF82600D6
:1062800001208DF8270009A8112301220421009084
:106290000846FCF7B6FB0598401CC0B2059005986F
:1062A00000F0010040B10348806940F4000001495A
:1062B000886107E000C00920FE48C06940F4000082
:1062C000FC49C86101208DF8280000208DF82400C9
:1062D0008DF8250002208DF8260001208DF827007A
:1062E00009A812230122042100900846FCF789FB2B
:1062F00002208DF8280000208DF824008DF825005C
:1063000002208DF8260001208DF8270009A813230C
:106310000122042100900846FCF773FB00208DF851
:1063200028008DF824008DF8250005208DF8260022
:1063300000208DF8270009A81423012204210090D1
:106340000846FCF75EFB00208DF828008DF824003D
:106350008DF8250006208DF8260000208DF82700F6
:1063600009A815230122042100900846FCF749FBE7
:1063700000208DF828008DF824008DF825000720D6
:106380008DF8260000208DF8270009A81623012289
:10639000042100900846FCF734FB0598401CC0B26D
:1063A0000590059800F0010030B1C248806940F4C2
:1063B0000000C049886105E0BE48C06940F40000A3
:1063C000BC49C86100208DF828008DF824008DF8A4
:1063D000250008208DF8260000208DF8270009A848
:1063E00017230122042100900846FCF70AFB002035
:1063F0008DF8280001208DF8240000208DF825005C
:1064000001208DF8260000208DF8270009A8182308
:106410000122042100900846FCF7F3FA00208DF8D1
:10642000280001208DF824008DF825008DF8260025
:1064300000208DF8270009A81923012204210090CB
:106440000846FCF7DEFA00208DF8280001208DF8C0
:10645000240002208DF8250001208DF82600002060
:106460008DF8270009A81A2301220421009008466C
:10647000FCF7C7FA00208DF8280001208DF82400D1
:1064800003208DF8250001208DF8260000208DF8CE
:10649000270009A81B230122042100900846FCF7CD
:1064A000B0FA00208DF8280001208DF82400042087
:1064B0008DF8250001208DF8260000208DF827009A
:1064C00009A81C230122042100900846FCF799FA30
:1064D0000598401CC0B20590059800F0010030B14D
:1064E0007448806940F400007249886105E0714891
:1064F000C06940F400006F49C86100208DF8280091
:1065000001208DF8240000208DF8250001208DF851
:1065100026008DF8270009A81D23012204210090E0
:106520000846FCF76EFA01208DF828008DF824004B
:1065300000208DF8250001208DF826008DF8270019
:1065400009A81E230122042100900846FCF759FAED
:1065500002208DF8280001208DF8240000208DF8FD
:10656000250001208DF826008DF8270009A81F239B
:106570000122042100900846FCF743FA00208DF820
:10658000280001208DF8240000208DF8250002202D
:106590008DF8260000208DF8270009A8202301226D
:1065A000042100900846FCF72CFA00208DF8280002
:1065B00001208DF824008DF8250002208DF826009A
:1065C00000208DF8270009A8212301220421009032
:1065D0000846FCF716FA0598401CC0B205900598CD
:1065E00000F0010030B13348806940F400003149C7
:1065F000886105E02F48C06940F400002D49C8615A
:1066000000208DF8280001208DF8240002208DF84C
:1066100025008DF8260000208DF8270009A82223E8
:106620000122042100900846FCF7EBF900208DF8C8
:10663000280001208DF8240003208DF82500022079
:106640008DF8260000208DF8270009A823230122B9
:10665000042100900846FCF7D4F900208DF82800AA
:1066600001208DF8240004208DF8250002208DF8EB
:10667000260000208DF8270009A8242301220421E8
:1066800000900846FCF7BDF900208DF82800012095
:106690008DF8240000208DF8250002208DF82600BA
:1066A00001208DF8270009A825230122042100904C
:1066B000084601E000C00920FCF7A3F901208DF88D
:1066C00028008DF8240000208DF8250002208DF888
:1066D000260001208DF8270009A826230122042185
:1066E00000900846FCF78DF90598401CC0B2059053
:1066F000059800F0010030B1FE48806940F40000C8
:10670000FC49886105E0FB48C06940F40000F94994
:10671000C86102208DF8280001208DF82400002097
:106720008DF8250002208DF8260001208DF8270025
:1067300009A827230122042100900846FCF761F9EB
:1067400000208DF8280001208DF8240000208DF80D
:10675000250005208DF8260000208DF8270009A8C7
:1067600028230122042100900846FCF74AF9002062
:106770008DF8280001208DF8240000208DF82500D8
:1067800006208DF8260000208DF8270009A829236F
:106790000122042100900846FCF733F900208DF80F
:1067A000280001208DF8240000208DF82500072006
:1067B0008DF8260000208DF8270009A82A23012241
:1067C000042100900846FCF71CF900208DF82800F1
:1067D00001208DF8240000208DF8250008208DF878
:1067E000260000208DF8270009A82B230122042170
:1067F00000900846FCF705F90598401CC0B20590CA
:10680000059800F0010030B1BA48806940F40000FA
:10681000B849886105E0B748C06940F40000B5494F
:10682000C86100208DF8280001208DF82400042084
:106830008DF8250000208DF8260004208DF8270013
:1068400009A82C230122042100900846FCF7D9F85E
:1068500001208DF828008DF8240004208DF82500F3
:1068600000208DF8260004208DF8270009A82D238C
:106870000122042100900846FCF7C3F800208DF89F
:10688000280003208DF8240007208DF82500002023
:106890008DF8260004208DF8270009A82E23012258
:1068A000042100900846FCF7ACF800208DF8280081
:1068B00009208DF8240004208DF8250000208DF893
:1068C000260004208DF8270009A82F230122042187
:1068D00000900846FCF795F800208DF828000A2063
:1068E0008DF8240004208DF8250000208DF8260066
:1068F00004208DF8270009A83023012204210090EC
:106900000846FCF77EF80598401CC0B20590059833
:1069100000F0010030B17748806940F4000075490B
:10692000886105E07348C06940F400007149C8619E
:1069300000208DF8280001208DF8240000208DF81B
:10694000250030208DF8260003208DF8270009A8A7
:1069500031230122042100900846FCF752F801205F
:106960008DF828008DF8240000208DF825003020B7
:106970008DF8260003208DF8270009A83223012274
:10698000042100900846FCF73CF800208DF8280010
:1069900001208DF8240000208DF825008DF82600B8
:1069A00010208DF8270009A833230122042100902C
:1069B0000846FCF726F800208DF8280002208DF804
:1069C000240000208DF825008DF8260010208DF879
:1069D000270009A834230122042100900846FCF76F
:1069E00010F800208DF8280001208DF824008DF883
:1069F000250000208DF8260010208DF8270009A81A
:106A000035230122042100900846FBF7FAFF059880
:106A1000401CC0B20590059800F0010030B1354827
:106A2000806940F400003349886105E03148C0695D
:106A300040F400002F49C86101208DF828008DF82E
:106A400024008DF8250000208DF8260010208DF8F8
:106A5000270009A836230122042100900846FBF7ED
:106A6000D0FF00208DF8280001208DF8240002209E
:106A70008DF8250000208DF8260010208DF82700C5
:106A800009A837230122042100900846FBF7B9FF2B
:106A900001208DF828008DF8240002208DF82500B3
:106AA00000208DF8260010208DF8270009A8382333
:106AB0000122042100900846FBF7A3FF00208DF877
:106AC000280001208DF8240002208DF825000120E7
:106AD0008DF8260010208DF8270009A839230122FF
:106AE000042100900846FBF78CFF00208DF8280059
:106AF000012001E000C009208DF8240026208DF837
:106B0000250001208DF8260010208DF8270009A807
:106B10003A230122042100900846FBF772FF0598F2
:106B2000401CC0B20590059800F0010030B1FE484D
:106B3000806940F40000FC49886105E0FA48C069BA
:106B400040F40000F849C86100208DF828000120B9
:106B50008DF8240003208DF8250001208DF82600F3
:106B600010208DF8270009A83B2301220421009062
:106B70000846FBF746FF00208DF8280001208DF81D
:106B8000240027208DF8250001208DF826001020F4
:106B90008DF8270009A83C23012204210090084613
:106BA000FBF72FFF00208DF8280001208DF824002E
:106BB00002208DF825008DF8260010208DF8270082
:106BC00009A83D230122042100900846FBF719FF84
:106BD00000208DF8280001208DF8240026208DF853
:106BE000250002208DF8260010208DF8270009A826
:106BF0003E230122042100900846FBF702FF0020FB
:106C00008DF8280001208DF8240003208DF8250040
:106C100002208DF8260010208DF8270009A83F23B8
:106C20000122042100900846FBF7EBFE0598401C6A
:106C3000C0B20590059800F0010030B1BA488069F3
:106C400040F40000B849886105E0B748C06940F4E5
:106C50000000B549C86100208DF8280001208DF89A
:106C6000240027208DF8250002208DF82600102012
:106C70008DF8270009A8402301220421009008462E
:106C8000FBF7BFFE00208DF8280001208DF82400BE
:106C900002208DF8250003208DF8260010208DF8A5
:106CA000270009A841230122042100900846FBF790
:106CB000A8FE00208DF8280001208DF82400262051
:106CC0008DF8250003208DF8260010208DF8270070
:106CD00009A842230122042100900846FBF791FEF7
:106CE00000208DF8280001208DF8240003208DF865
:106CF00025008DF8260010208DF8270009A84323D1
:106D00000122042100900846FBF77BFE00208DF84D
:106D1000280001208DF8240027208DF8250003206D
:106D20008DF8260010208DF8270009A844230122A1
:106D3000042100900846FBF764FE0598401CC0B291
:106D40000590059800F0010030B17748806940F463
:106D500000007549886105E07348C06940F400008F
:106D60007149C86100208DF828008DF824000120A9
:106D70008DF825008DF8260002208DF8270009A83F
:106D800045230122042100900846FBF73AFE00202B
:106D90008DF828008DF8240002208DF825000120B0
:106DA0008DF8260002208DF8270009A8462301222D
:106DB000042100900846FBF724FE00208DF82800EF
:106DC0008DF8240003208DF8250001208DF8260081
:106DD00002208DF8270009A84723012204210090F2
:106DE0000846FBF70EFE00208DF828008DF82400E1
:106DF00001208DF8250002208DF826008DF827004F
:106E000009A848230122042100900846FBF7F9FD58
:106E100000208DF828008DF8240002208DF8250030
:106E20008DF826008DF8270009A8492301220421A6
:106E300000900846FBF7E5FD0598401CC0B20590A0
:106E4000059800F0010030B13748806940F4000037
:106E50003549886105E03448C06940F40000324992
:106E6000C86100208DF828008DF8240003208DF8DB
:106E7000250002208DF826008DF8270009A84A2356
:106E80000122042100900846FBF7BBFD00208DF88D
:106E900028008DF824008DF8250003208DF82600A9
:106EA00002208DF8270009A84B230122042100901D
:106EB0000846FBF7A6FD00208DF828008DF8240079
:106EC00001208DF8250003208DF8260002208DF882
:106ED000270009A84C230122042100900846FBF753
:106EE00090FD00208DF828008DF8240002208DF8F8
:106EF000250003208DF8260002208DF8270009A820
:106F00004D230122042100900846FBF77AFD002062
:106F10008DF828008DF8240003208DF825008DF8C9
:106F20002600022002E0000000C009208DF82700A2
:106F300009A84E230122042100900846FBF761FDB9
:106F40000598401CC0B20590059800F0010030B1D2
:106F5000FE48806940F40000FC49886105E0FB4878
:106F6000C06940F40000F949C86100208DF828008C
:106F70008DF824008DF8250006208DF826000220CB
:106F80008DF8270009A84F2301220421009008460C
:106F9000FBF737FD00208DF828008DF82400012034
:106FA0008DF8250006208DF8260002208DF8270098
:106FB00009A850230122042100900846FBF721FD77
:106FC00000208DF828008DF8240002208DF825007F
:106FD00006208DF8260002208DF8270009A85123ED
:106FE0000122042100900846FBF70BFD00208DF8DC
:106FF00028008DF8240003208DF8250006208DF848
:10700000260002208DF8270009A85223012204211E
:1070100000900846FBF7F5FC00208DF828000120C1
:107020008DF824008DF8250000208DF8260004201E
:107030008DF8270009A801230222042100900846A8
:10704000FBF7DFFC0598401CC0B20590059800F0E6
:10705000010030B1BD48806940F40000BB4988613F
:1070600005E0BA48C06940F40000B849C861002092
:107070008DF8280002208DF8240001208DF82500CD
:1070800000208DF8260004208DF8270009A802238F
:107090001A46042100900846FBF7B3FC00208DF847
:1070A00028008DF824008DF825008DF826008DF835
:1070B000270009A803230222042100900846FBF7B9
:1070C000A0FC00208DF828008DF824008DF8250004
:1070D00001208DF8260000208DF8270009A8042340
:1070E0000222194600901846FBF78BFC00208DF811
:1070F00028008DF8240001208DF825008DF8260049
:1071000000208DF8270009A8052302220421009001
:107110000846FBF776FC00208DF828008DF8240047
:1071200002208DF8250001208DF8260000208DF822
:10713000270009A806230222042100900846FBF735
:1071400060FC0598401CC0B20590059800F0010055
:1071500030B17E48806940F400007C49886105E0D8
:107160007A48C06940F400007849C86100208DF871
:1071700028008DF8240003208DF8250001208DF8CB
:10718000260000208DF8270009A8072302220421E9
:1071900000900846FBF735FC00208DF828008DF89C
:1071A000240004208DF8250001208DF82600002001
:1071B0008DF8270009A80823022204210090084620
:1071C000FBF71FFC00208DF828008DF824008DF8B7
:1071D000250001208DF826008DF8270009A8092335
:1071E0000222042100900846FBF70BFC01208DF8D9
:1071F000280000208DF824008DF8250001208DF84E
:1072000026008DF8270009A80A23022204210090F5
:107210000846FBF7F6FB02208DF8280000208DF8C9
:1072200024008DF8250001208DF826008DF8270018
:1072300009A80B230222042100900846FBF7E1FB7A
:1072400000208DF828008DF824008DF825000220FC
:107250008DF8260000208DF8270009A80C230222B3
:10726000042100900846FBF7CCFB0598401CC0B2F7
:107270000590059800F0010030B13448806940F471
:1072800000003249886105E03048C06940F40000E0
:107290002E49C86100208DF828008DF824000120B7
:1072A0008DF8250002208DF8260000208DF827009B
:1072B00009A80D230222042100900846FBF7A1FB38
:1072C00000208DF828008DF8240002208DF825007C
:1072D0008DF8260000208DF8270009A80E23022231
:1072E000042100900846FBF78CFB00208DF8280055
:1072F0008DF8240003208DF8250002208DF826004B
:1073000000208DF8270009A80F23022204210090F5
:107310000846FBF776FB00208DF828008DF8240046
:1073200004208DF8250002208DF8260000208DF81D
:10733000270009A810230222042100900846FBF729
:1073400060FB00208DF8280002E0000000C009204A
:107350008DF824008DF8250002208DF826000120EC
:107360008DF8270009A81123022204210090084665
:10737000FBF747FB0598401CC0B20590059800F04C
:10738000010030B1FE48806940F40000FC4988618A
:1073900005E0FB48C06940F40000F949C8610120DC
:1073A0008DF8280000208DF824008DF8250002209B
:1073B0008DF8260001208DF8270009A8122302224B
:1073C000042100900846FBF71CFB02208DF82800E2
:1073D00000208DF824008DF8250002208DF826006D
:1073E00001208DF8270009A8132302220421009010
:1073F0000846FBF706FB00208DF828008DF82400D6
:107400008DF8250005208DF8260000208DF8270036
:1074100009A814230222042100900846FBF7F1FA80
:1074200000208DF828008DF824008DF82500062016
:107430008DF8260000208DF8270009A815230222C8
:10744000042100900846FBF7DCFA00208DF82800A4
:107450008DF824008DF8250007208DF826000020E7
:107460008DF8270009A8162302220421009008465F
:10747000FBF7C7FA0598401CC0B20590059800F0CC
:10748000010030B1BE48806940F40000BC49886109
:1074900005E0BB48C06940F40000B949C86100205C
:1074A0008DF828008DF824008DF8250008208DF82F
:1074B000260000208DF8270009A8172302220421A6
:1074C00000900846FBF79DFA00208DF82800012067
:1074D0008DF8240000208DF8250001208DF826006D
:1074E00000208DF8270009A818230222042100900B
:1074F0000846FBF786FA00208DF8280001208DF859
:1075000024008DF825008DF8260000208DF8270036
:1075100009A819230222042100900846FBF771FAFA
:1075200000208DF8280001208DF8240002208DF81D
:10753000250001208DF8260000208DF8270009A8DD
:107540001A230222042100900846FBF75AFA002071
:107550008DF8280001208DF8240003208DF82500E7
:1075600001208DF8260000208DF8270009A81B2394
:107570000222042100900846FBF743FA0598401CBC
:10758000C0B20590059800F0010030B17C488069D8
:1075900040F400007A49886105E07948C06940F408
:1075A00000007749C86100208DF8280001208DF87F
:1075B000240004208DF8250001208DF826000020ED
:1075C0008DF8270009A81C230222042100900846F8
:1075D000FBF717FA00208DF8280001208DF8240011
:1075E00000208DF8250001208DF826008DF8270059
:1075F00009A81D230222042100900846FBF701FA86
:1076000001208DF828008DF8240000208DF8250039
:1076100001208DF826008DF8270009A81E230222DC
:10762000042100900846FBF7ECF902208DF82800B1
:1076300001208DF8240000208DF8250001208DF810
:1076400026008DF8270009A81F230222042100909C
:107650000846FBF7D6F900208DF8280001208DF8A8
:10766000240000208DF8250002208DF8260000203F
:107670008DF8270009A82023022204210090084643
:10768000FBF7BFF90598401CC0B20590059800F0C3
:10769000010030B13A48806940F4000038498861FF
:1076A00005E03748C06940F400003549C861002052
:1076B0008DF8280001208DF824008DF82500022087
:1076C0008DF8260000208DF8270009A8212302222A
:1076D000042100900846FBF794F900208DF828005B
:1076E00001208DF8240002208DF825008DF8260059
:1076F00000208DF8270009A82223022204210090EF
:107700000846FBF77EF900208DF8280001208DF84F
:10771000240003208DF8250002208DF8260000208B
:107720008DF8270009A8232302220421009008468F
:10773000FBF767F900208DF8280001208DF8240060
:1077400004208DF8250002208DF8260000208DF8F9
:10775000270009A824230222042100900846FBF7F1
:1077600050F900208DF8280001208DF82400002019
:107770008DF8250002208DF82600012002E000008F
:1077800000C009208DF8270009A825230222042122
:1077900000900846FBF735F90598401CC0B20590EB
:1077A000059800F0010030B1FE48806940F4000007
:1077B000FC49886105E0FB48C06940F40000F949D4
:1077C000C86101208DF828008DF8240000208DF874
:1077D000250002208DF8260001208DF8270009A839
:1077E00026230222042100900846FBF70AF9022012
:1077F0008DF8280001208DF8240000208DF8250048
:1078000002208DF8260001208DF8270009A82723E3
:107810000222042100900846FBF7F3F800208DF8BF
:10782000280001208DF8240000208DF82500052077
:107830008DF8260000208DF8270009A828230222B1
:10784000042100900846FBF7DCF800208DF82800A2
:1078500001208DF8240000208DF8250006208DF8E9
:10786000260000208DF8270009A8292302220421E0
:1078700000900846FBF7C5F800208DF8280001208D
:107880008DF8240000208DF8250007208DF82600B3
:1078900000208DF8270009A82A2302220421009045
:1078A0000846FBF7AEF80598401CC0B20590059855
:1078B00000F0010030B1BB48806940F40000B949D4
:1078C000886105E0B748C06940F40000B549C86167
:1078D00000208DF8280001208DF8240000208DF86C
:1078E000250008208DF8260000208DF8270009A823
:1078F0002B230222042100900846FBF782F8002087
:107900008DF8280001208DF8240004208DF8250032
:1079100000208DF8260004208DF8270009A82C23CC
:107920000222042100900846FBF76BF801208DF835
:1079300028008DF8240004208DF8250000208DF803
:10794000260004208DF8270009A82D2302220421F7
:1079500000900846FBF755F800208DF8280003201A
:107960008DF8240007208DF8250000208DF82600D2
:1079700004208DF8270009A82E230222042100905C
:107980000846FBF73EF800208DF8280009208DF806
:10799000240004208DF8250000208DF82600042006
:1079A0008DF8270009A82F23022204210090084601
:1079B000FBF727F80598401CC0B20590059800F029
:1079C000010030B17748806940F400007549886152
:1079D00005E07448C06940F400007249C8610020A5
:1079E0008DF828000A208DF8240004208DF8250049
:1079F00000208DF8260004208DF8270009A83023E8
:107A00000222042100900846FAF7FBFF00208DF8BF
:107A1000280001208DF8240000208DF8250030205A
:107A20008DF8260003208DF8270009A831230222B3
:107A3000042100900846FAF7E4FF01208DF82800A1
:107A40008DF8240000208DF8250030208DF82600C8
:107A500003208DF8270009A8322302220421009078
:107A60000846FAF7CEFF00208DF8280001208DF897
:107A7000240000208DF825008DF8260010208DF8B8
:107A8000270009A833230222042100900846FAF7B0
:107A9000B8FF00208DF8280002208DF82400002077
:107AA0008DF825008DF8260010208DF8270009A8F4
:107AB00034230222042100900846FAF7A2FF059819
:107AC000401CC0B20590059800F0010030B1354867
:107AD000806940F400003349886105E03148C0699D
:107AE00040F400002F49C86100208DF828000120D3
:107AF0008DF824008DF8250000208DF82600102038
:107B00008DF8270009A83523022204210090084699
:107B1000FAF777FF01208DF828008DF824008DF802
:107B2000250000208DF8260010208DF8270009A8D8
:107B300036230222042100900846FAF762FF002053
:107B40008DF8280001208DF8240002208DF82500F2
:107B500000208DF8260010208DF8270009A8372373
:107B60000222042100900846FAF74BFF01208DF80D
:107B700028008DF8240002208DF8250000208DF8C3
:107B8000260010208DF8270009A83823022204219E
:107B900000900846FAF735FF00208DF828000120F4
:107BA00002E0000000C009208DF8240002208DF8BA
:107BB000250001208DF8260010208DF8270009A847
:107BC00039230222042100900846FAF71AFF05988B
:107BD000401CC0B20590059800F0010030B1FE488D
:107BE000806940F40000FC49886105E0FA48C069FA
:107BF00040F40000F849C86100208DF828000120F9
:107C00008DF8240026208DF8250001208DF826000F
:107C100010208DF8270009A83A23022204210090A1
:107C20000846FAF7EEFE00208DF8280001208DF8B6
:107C3000240003208DF8250001208DF82600102057
:107C40008DF8270009A83B23022204210090084652
:107C5000FAF7D7FE00208DF8280001208DF82400C7
:107C600027208DF8250001208DF8260010208DF8A2
:107C7000270009A83C230222042100900846FAF7B5
:107C8000C0FE00208DF8280001208DF8240002207D
:107C90008DF825008DF8260010208DF8270009A802
:107CA0003D230222042100900846FAF7AAFE002094
:107CB0008DF8280001208DF8240026208DF825005D
:107CC00002208DF8260010208DF8270009A83E23F9
:107CD0000222042100900846FAF793FE0598401C02
:107CE000C0B20590059800F0010030B1BA48806933
:107CF00040F40000B849886105E0B748C06940F425
:107D00000000B549C86100208DF8280001208DF8D9
:107D1000240003208DF8250002208DF82600102075
:107D20008DF8270009A83F2302220421009008466D
:107D3000FAF767FE00208DF8280001208DF8240056
:107D400027208DF8250002208DF8260010208DF8C0
:107D5000270009A840230222042100900846FAF7D0
:107D600050FE00208DF8280001208DF8240002200C
:107D70008DF8250003208DF8260010208DF82700AF
:107D800009A841230222042100900846FAF739FE8F
:107D900000208DF8280001208DF8240026208DF881
:107DA000250003208DF8260010208DF8270009A853
:107DB00042230222042100900846FAF722FE002006
:107DC0008DF8280001208DF8240003208DF825006F
:107DD0008DF8260010208DF8270009A843230222E1
:107DE000042100900846FAF70CFE0598401CC0B22A
:107DF0000590059800F0010030B17748806940F4A3
:107E000000007549886105E07348C06940F40000CE
:107E10007149C86100208DF8280001208DF82400E8
:107E200027208DF8250003208DF8260010208DF8DE
:107E3000270009A844230222042100900846FAF7EB
:107E4000E0FD00208DF828008DF8240001208DF839
:107E500025008DF8260002208DF8270009A845236B
:107E60000222042100900846FAF7CBFD00208DF88D
:107E700028008DF8240002208DF8250001208DF8BF
:107E8000260002208DF8270009A84623022204219B
:107E900000900846FAF7B5FD00208DF828008DF80F
:107EA000240003208DF8250001208DF826000220F3
:107EB0008DF8270009A847230222042100900846D4
:107EC000FAF79FFD00208DF828008DF8240001208E
:107ED0008DF8250002208DF826008DF8270009A8CE
:107EE00048230222042100900846FAF78AFD0598EB
:107EF000401CC0B20590059800F0010030B1364832
:107F0000806940F400003449886105E03248C06966
:107F100040F400003049C86100208DF828008DF839
:107F2000240002208DF825008DF826008DF827000A
:107F300009A849230222042100900846FAF761FDAE
:107F400000208DF828008DF8240003208DF82500EE
:107F500002208DF826008DF8270009A84A23022266
:107F6000042100900846FAF74CFD00208DF8280007
:107F70008DF824008DF8250003208DF826000220BE
:107F80008DF8270009A84B230222042100900846FF
:107F9000FAF737FD00208DF828008DF82400012025
:107FA0008DF8250003208DF8260002208DF827008B
:107FB00009A84C230222042100900846FAF721FD6B
:107FC00000208DF828008DF8240002208DF825006F
:107FD00003208DF8260001E000C0092002208DF862
:107FE000270009A84D230222042100900846FAF731
:107FF00008FD0598401CC0B20590059800F00100EE
:1080000030B1FE48806940F40000FC49886105E019
:10801000FA48C06940F40000F849C86100208DF8B2
:1080200028008DF8240003208DF825008DF8260007
:1080300002208DF8270009A84E2302220421009077
:108040000846FAF7DEFC00208DF828008DF82400A1
:108050008DF8250006208DF8260002208DF82700D7
:1080600009A84F230222042100900846FAF7C9FC10
:1080700000208DF828008DF8240001208DF82500BF
:1080800006208DF8260002208DF8270009A850232D
:108090000222042100900846FAF7B3FC00208DF874
:1080A00028008DF8240002208DF8250006208DF888
:1080B000260002208DF8270009A85123022204215E
:1080C00000900846FAF79DFC00208DF828008DF8F6
:1080D000240003208DF8250006208DF826000220BC
:1080E0008DF8270009A85223022204210090084697
:1080F000FAF787FC0598401CC0B20590059800F07F
:10810000010030B1BD48806940F40000BB4988617E
:1081100005E0BA48C06940F40000B849C8611620BB
:108120008DF8240017208DF8250009A801231A4690
:10813000092100900420FAF764FC70208DF82400D7
:1081400018208DF8250009A802230122092100909A
:108150000420FAF756FC00208DF8240005208DF845
:10816000250000208DF8260009A8032301220921FB
:1081700000900420FAF745FC02208DF8240009A89D
:1081800004230122092100901846FAF73AFC402006
:108190008DF8240015208DF8250009A8012302225E
:1081A000092100900420FAF72CFC0598401CC0B26D
:1081B0000590059800F0010030B19048806940F4C6
:1081C00000008E49886105E08C48C06940F40000D9
:1081D0008A49C86102208DF8240009A802231A46A2
:1081E000092100900420FAF70CFC60208DF824008F
:1081F00028208DF8250009A80123032209210090D9
:108200000420FAF7FEFB02208DF8240009A80223BF
:108210000322092100900420FAF7F3FB20208DF8B7
:10822000240013208DF8250009A801230422092128
:1082300000901046FAF7E5FB00208DF82400052099
:108240008DF8250000208DF8260009A802230422BD
:10825000092100901046FAF7D4FB0598401CC0B2E3
:108260000590059800F0010030B16448806940F441
:1082700000006249886105E06048C06940F4000080
:108280005E49C86102208DF8240009A80323042256
:10829000092100901046FAF7B4FB00208DF8240065
:1082A00020208DF8250009A801230522092100902E
:1082B0000420FAF7A6FB02208DF8240009A8022367
:1082C0000522092100900420FAF79BFB00208DF87D
:1082D000240020208DF8250009A801230622092169
:1082E00000900420FAF78DFB02208DF8240009A8E5
:1082F00002230622092100900420FAF782FB059848
:10830000401CC0B20590059800F0010030B13B4818
:10831000806940F400003949886105E03748C06948
:1083200040F400003549C86120208DF82400132056
:108330008DF8250009A801230722092100900420B7
:10834000FAF75FFB00208DF8240005208DF825004A
:1083500000208DF8260009A8022307220921009099
:108360000420FAF74EFB00208DF8240005208DF83C
:10837000250000208DF8260009A8032307220921E3
:1083800000900420FAF73DFB02208DF8240009A894
:1083900004230722092100901846FAF732FB202017
:1083A0008DF8240007208DF8250009A80123082254
:1083B000092100900420FAF724FB0598401CC0B264
:1083C0000590059800F0010030B10C48806940F438
:1083D00000000A49886105E00848C06940F40000CF
:1083E0000649C86102208DF8240009A8022308224A
:1083F000092100900420FAF704FB01E000C00920E5
:1084000020208DF8240013208DF8250009A80123D1
:108410000922114600900420FAF7F3FA00208DF8A3
:10842000240005208DF8250000208DF8260009A8DD
:1084300002230922114600900420FAF7E2FA0220F2
:108440008DF8240009A80323092211460090042076
:10845000FAF7D7FA00208DF8240050208DF8250077
:1084600000208DF8260009A801230A220921009086
:108470000420FAF7C6FA0598401CC0B2059005988A
:1084800000F0010030B1F748806940F40000F54980
:10849000886105E0F348C06940F40000F149C86113
:1084A00002208DF8240009A802230A220921009045
:1084B0000420FAF7A6FA00208DF824008DF8250094
:1084C00050208DF8260009A801230B2209210090D5
:1084D0000420FAF796FA02208DF8240009A8022356
:1084E0000B22092100900420FAF78BFA60208DF806
:1084F000240028208DF8250009A801230C22092139
:1085000000900420FAF77DFA20208DF82400132033
:108510008DF8240009A802230C22092100900420D0
:10852000FAF76FFA0598401CC0B20590059800F064
:10853000010030B1CB48806940F40000C94988612E
:1085400005E0C848C06940F40000C649C861002081
:108550008DF824008DF8250045208DF8260009A807
:1085600001230D22092100900420FAF74AFA002085
:108570008DF824008DF8240045208DF8260009A8E8
:1085800002230D22092100900420FAF73AFA022072
:108590008DF8240009A803230D220921009004204E
:1085A000FAF72FFA00208DF824008DF8240009A88E
:1085B00001230E22092100900420FAF722FA02205A
:1085C0008DF8240009A802230E220921009004201E
:1085D000FAF717FA0598401CC0B20590059800F00C
:1085E000010030B19F48806940F400009D498861D6
:1085F00005E09C48C06940F400009A49C861002029
:108600008DF8240003208DF8240009A801230F22EF
:10861000092100900420FAF7F4F902208DF82400D3
:1086200009A802230F22092100900420FAF7E9F992
:108630000598401CC0B20590059800F0010030B1CB
:108640008848806940F400008649886105E08548D3
:10865000C06940F400008349C861002011F075FF33
:108660004FF4A81011F071FF4FF4401011F06DFF9E
:108670004FF4741011F069FF4FF4A20011F065FF80
:108680004FF4CA0011F061FF0598401CC0B205907C
:10869000059800F0010030B17248806940F4000094
:1086A0007049886105E06F48C06940F400006D4979
:1086B000C86100208DF824008DF825008DF8260073
:1086C0008DF827008DF828008DF829008DF82A00F4
:1086D0008DF82B008DF82C008DF82D008DF82E00D4
:1086E0008DF82F008DF830008DF831008DF83200B4
:1086F0008DF833008DF834008DF835008DF8360094
:108700008DF837008DF838008DF839008DF83A0073
:108710008DF83B0009A800231A4611210090032080
:10872000FAF76FF90598401CC0B20590059800F063
:10873000010030B14B48806940F40000494988612C
:1087400005E04848C06940F400004649C86100207F
:10875000089023E009A800900898C0B200230246C0
:10876000302104900320FAF74CF90598401CC0B260
:108770000590059800F0010030B13A48806940F456
:1087800000003849886105E03648C06940F40000BF
:108790003449C8610898401C80B2089008980F2896
:1087A000D8DB0120089023E009A800900898C0B207
:1087B00000231A46014604900320FAF722F905988F
:1087C000401CC0B20590059800F0010030B125486A
:1087D000806940F400002349886105E02148C069B0
:1087E00040F400001F49C8610898401C80B20890FE
:1087F00008981328D8DB09A801230022114600900D
:108800001020FAF7FEF809A8022300221146009072
:108810001020FAF7F6F809A801231A460021009063
:108820001020FAF7EEF809A8012302220021009097
:108830001020FAF7E6F809A8012300221946009053
:108840001020FAF7DEF80598401CC0B20590059894
:1088500000F0010040B10348806940F40000014984
:10886000886107E000C00920FE48C06940F40000AC
:10887000FC49C86109A802230022012100901020B0
:10888000FAF7BFF809A80123002202210090102066
:10889000FAF7B7F809A80223002219460090102021
:1088A000FAF7AFF809A80123002203210090102055
:1088B000FAF7A7F809A8022300220321009010204C
:1088C000FAF79FF80598401CC0B20590059800F093
:1088D000010030B1E348806940F40000E14988615B
:1088E00005E0E048C06940F40000DE49C86109A81D
:1088F00001230022194600901120FAF782F809A8F6
:1089000002230022012100901120FAF77AF809A829
:1089100001230022022100901120FAF772F809A821
:1089200002230022194600901120FAF76AF809A8DC
:1089300001230022032100901120FAF762F809A810
:1089400002230022032100901120FAF75AF805981B
:10895000401CC0B20590059800F0010030B1C1483C
:10896000806940F40000BF49886105E0BD48C069E6
:1089700040F40000BB49C86109A801230022194640
:1089800000901220FAF73DF809A8022300220121E5
:1089900000901220FAF735F809A8012300220221DD
:1089A00000901220FAF72DF809A802230022194698
:1089B00000901220FAF725F809A8012300220321CC
:1089C00000901220FAF71DF809A8022300220321C3
:1089D00000901220FAF715F80598401CC0B20590D7
:1089E000059800F0010030B19E48806940F4000015
:1089F0009C49886105E09B48C06940F400009949A2
:108A0000C86109A801230022194600901320F9F734
:108A1000F8FF09A802230022012100901320F9F792
:108A2000F0FF09A801230022022100901320F9F78A
:108A3000E8FF09A802230022194600901320F9F745
:108A4000E0FF09A801230022032100901320F9F779
:108A5000D8FF09A802230022032100901320F9F770
:108A6000D0FF0598401CC0B20590059800F00100A9
:108A700030B17C48806940F400007A49886105E0A3
:108A80007848C06940F400007649C86109A801230C
:108A90000022114600901420F9F7B3FF09A8022321
:108AA0000022114600901420F9F7ABFF09A801231A
:108AB0000022114600901520F9F7A3FF09A8022310
:108AC0000022114600901520F9F79BFF09A8012309
:108AD0000022114600901620F9F793FF09A80223FF
:108AE0000022114600901620F9F78BFF0598401CD4
:108AF000C0B20590059800F0010030B15948806976
:108B000040F400005749886105E05648C06940F4C8
:108B100000005449C86109A80123002211460090B1
:108B20001720F9F76EFF09A80223002211460090D2
:108B30001720F9F766FF09A80123002219460090C3
:108B40001820F9F75EFF09A80223002201210090F6
:108B50001820F9F756FF09A80123002202210090EE
:108B60001820F9F74EFF09A80223002219460090A9
:108B70001820F9F746FF09A80123002203210090DD
:108B80001820F9F73EFF09A80223002203210090D4
:108B90001820F9F736FF0598401CC0B205900598DB
:108BA00000F0010030B12F48806940F400002D49E9
:108BB000886105E02B48C06940F400002949C8617C
:108BC00009A801230022194600901920F9F719FF7E
:108BD00009A802230022012100901920F9F711FFB2
:108BE00009A801230022022100901920F9F709FFAA
:108BF00009A802230022194600901920F9F701FF65
:108C000009A801230022032100901920F9F7F9FE99
:108C100009A802230022032100901920F9F7F1FE90
:108C20000598401CC0B20590059800F0010030B1D5
:108C30000C48806940F400000A49886105E0094851
:108C4000C06940F400000749C86109A80123002257
:108C5000194600901A20F9F7D4FE09A80223002231
:108C6000012101E000C0092000901A20F9F7C9FE97
:108C700009A801230022022100901A20F9F7C1FE61
:108C800009A802230022194600901A20F9F7B9FE1C
:108C900009A801230022032100901A20F9F7B1FE50
:108CA00009A802230022032100901A20F9F7A9FE47
:108CB0000598401CC0B20590059800F0010030B145
:108CC000FE48806940F40000FC49886105E0FB48EB
:108CD000C06940F40000F949C86109A801230022D5
:108CE000194600901B20F9F78CFE09A802230022E8
:108CF000012100901B20F9F784FE09A8012300221E
:108D0000022100901B20F9F77CFE09A80223002213
:108D1000194600901B20F9F774FE09A801230022D0
:108D2000032100901B20F9F76CFE09A80223002202
:108D3000032100901B20F9F764FE0598401CC0B287
:108D40000590059800F0010030B1DC48806940F4DE
:108D50000000DA49886105E0D848C06940F40000A5
:108D6000D649C86109A801230022194600901C2099
:108D7000F9F747FE09A802230022012100901C20D8
:108D8000F9F73FFE09A801230022022100901C20D0
:108D9000F9F737FE09A802230022194600901C208B
:108DA000F9F72FFE09A801230022032100901C20BF
:108DB000F9F727FE09A802230022032100901C20B6
:108DC000F9F71FFE0598401CC0B20590059800F009
:108DD000010030B1B948806940F40000B7498861AA
:108DE00005E0B648C06940F40000B449C86109A86C
:108DF00001230022114600901D20F9F702FE09A868
:108E000001230022114600901E20F9F7FAFD09A85F
:108E100001230022114600901F20F9F7F2FD09A856
:108E200002230022114600901F20F9F7EAFD059861
:108E3000401CC0B20590059800F0010030B19F4879
:108E4000806940F400009D49886105E09B48C06945
:108E500040F400009949C861002008903DE00020DE
:108E6000079033E00020069029E009A800900698BA
:108E7000C0B204900798C0B203900898C0B20290A4
:108E800001460020DDE90323F9F7BBFD0598401CEE
:108E9000C0B20590059800F0010030B187488069A4
:108EA00040F400008549886105E08448C06940F4C9
:108EB00000008249C8610698401C80B2069006985E
:108EC0000C28D2DD0798401C80B20790079805282F
:108ED000C8DB0898401C80B2089008980B28BEDBBD
:108EE0000020089031E00020069027E009A80090BB
:108EF0000698C0B2049008981530C0B203900022C2
:108F000001461046049BF9F77CFD0598401CC0B251
:108F10000590059800F0010030B16848806940F480
:108F200000006649886105E06448C06940F40000BB
:108F30006249C8610698401C80B2069006980C28C9
:108F4000D4DD0898401C80B2089008980A28CADB33
:108F50000020089031E00020069027E009A800904A
:108F60000698C0B2049008982930C0B2039000223D
:108F700001461046049BF9F744FD0598401CC0B219
:108F80000590059800F0010030B14C48806940F42C
:108F900000004A49886105E04848C06940F4000083
:108FA0004649C8610698401C80B2069006980C2875
:108FB000D4DD0898401C80B2089008980A28CADBC3
:108FC0000020089031E00020069027E009A80090DA
:108FD0000698C0B2049008983D30C0B203900022B9
:108FE00001461046049BF9F70CFD0598401CC0B2E1
:108FF0000590059800F0010030B13048806940F4D8
:1090000000002E49886105E02C48C06940F400004A
:109010002A49C8610698401C80B2069006980C2820
:10902000D4DD0898401C80B2089008980A28CADB52
:10903000012008903DE00020079033E000200690DA
:1090400029E009A800900698C0B204900798C0B221
:1090500003900898C0B2029001460120DDE9032385
:10906000F9F7CFFC0598401CC0B20590059800F0B8
:10907000010030B11148806940F400000F49886157
:1090800005E00E48C06940F400000C49C86106982C
:10909000401C80B2069006980C28D2DD0798401C30
:1090A00080B2079007980528C8DB0898401C80B25A
:1090B000089008980B28BEDB002001E000C00920C2
:1090C000089031E00020069027E009A8009006985B
:1090D000C0B2049008981530C0B203900022014637
:1090E0000120049BF9F78DFC0598401CC0B2059047
:1090F000059800F0010030B1DF48806940F40000BD
:10910000DD49886105E0DC48C06940F40000DA49C7
:10911000C8610698401C80B2069006980C28D4DDE1
:109120000898401C80B2089008980A28CADB0020E2
:10913000089031E00020069027E009A800900698EA
:10914000C0B2049008982930C0B2039000220146B2
:109150000120049BF9F755FC0598401CC0B205900E
:10916000059800F0010030B1C348806940F4000068
:10917000C149886105E0C048C06940F40000BE49AB
:10918000C8610698401C80B2069006980C28D4DD71
:109190000898401C80B2089008980A28CADB002072
:1091A000089031E00020069027E009A8009006987A
:1091B000C0B2049008983D30C0B20390002201462E
:1091C0000120049BF9F71DFC0598401CC0B20590D6
:1091D000059800F0010030B1A748806940F4000014
:1091E000A549886105E0A448C06940F40000A2498F
:1091F000C8610698401C80B2069006980C28D4DD01
:109200000898401C80B2089008980A28CADBFF2002
:109210008DF8240000208DF82500089008E000213A
:109220000898801C09AA11540898401C80B2089024
:1092300008987F28F3DB7F210DF12600F8F7A6F8C8
:109240008DF8A50000210846F8F7EEF8822309AA58
:10925000A4210020F9F7F9FA18B101210020F8F74C
:10926000E3F801210020F8F7DFF8FF208DF8240053
:1092700000208DF82500089008E000210898801C47
:1092800009AA11540898401C80B2089008987F28B9
:10929000F3DB7F210DF12600F8F778F88DF8A500B3
:1092A00000210846F8F7C0F8822309AAA621002069
:1092B000F9F7CBFA18B101210020F8F7B5F8012130
:1092C0000020F8F7B1F8FF208DF8240000208DF879
:1092D0002500089008E000210898801C09AA115474
:1092E0000898401C80B2089008982828F3DB2821B1
:1092F0000DF12600F8F74AF88DF84E000021012004
:10930000F8F792F82B2309AAA2210020F9F79DFA79
:1093100018B101210846F8F787F801210846F8F747
:1093200083F80598401CC0B20590059800F0010034
:1093300030B15148806940F400004F49886105E030
:109340004D48C06940F400004B49C861FF208DF8CA
:10935000240080208DF825000020089008E00021DE
:109360000898801C09AA11540898401C80B20890E3
:1093700008980428F3DB04210DF12600F8F706F81D
:109380008DF82A0000210120F8F74EF8072309AADA
:10939000A2210020F9F759FA18B101210846F8F77F
:1093A00043F801210846F8F73FF819208DF824000A
:1093B00064208DF825000020089008E0002109AA0B
:1093C0000898801C11540898401C80B20890089896
:1093D0006228F3DB62210DF12600F7F7D7FF8DF845
:1093E000880000210120F8F71FF8652309AAA421AD
:1093F0000020F9F72AFA18B101210846F8F714F805
:1094000001210846F8F710F800210120F8F70CF8C0
:1094100000210846F8F708F800208DF82500FC2008
:109420008DF824005A208DF82600032309AAA421D0
:109430000020F9F70AFA01210846F7F7F5FF0121A4
:109440000020F7F7F1FF0598401CC0B20590059881
:1094500000F0010030B10848806940F4000006497E
:10946000886105E00448C06940F400000249C86111
:1094700000BFFAF70EBC000000C00920FE480078CB
:109480004006000EFC490870FC4800784006000EBB
:10949000FA490870FA48406900F0804028B1F6485F
:1094A000007840F00100F4490870F548406900F088
:1094B000005028B1F148007840F00100EF490870F1
:1094C000F0480078D0B1EC48007800F00F000F2889
:1094D00003D10020EB49087025E0EA480078401CE1
:1094E000E84908700846007828281CDD012008702B
:1094F000E5480078401CE449087014E0DE48007834
:1095000000F00F000C2804D0DB48007800F00F00BA
:1095100048B9DC480078401CDA490870DA4800781D
:10952000401CD9490870D9480078D0B1D348007898
:1095300000F00F000F2803D10020D449087025E067
:10954000D2480078401CD149087008460078282885
:109550001CDD01200870CC484078401CCA49487086
:1095600014E0C648007800F00F000C2804D0C3486F
:10957000007800F00F0048B9C4480078401CC34987
:109580000870C1484078401CBF49487001207047AE
:10959000BF4800784006000EBD490870B848406BCF
:1095A00000F0020020B10846007840F00100087089
:1095B000B848007800F0800048B1B548007800F065
:1095C0000F000F2819D10020B249087015E0B048EB
:1095D000007800F00F000C2804D0AD48007800F0AF
:1095E0000F0050B9AB48007840F08000A9490870DE
:1095F000A5480079401CA449087101207047A04883
:10960000406B00F0010020B9A3480078401CA2493B
:1096100008709B48406B00F0100020B99F4800780C
:10962000401C9E4908709648406900F4000020B133
:109630009B480078401C9A4908709148406D00F0A2
:10964000806020B197480078401C96490870964881
:109650000078401C94490870084600780A2839DDD3
:10966000002008708C480078062803DD0120864918
:10967000887002E0002084498870002086490870C4
:1096800086480078062803DD01207F49C87002E083
:1096900000207D49C870002080490870804800780B
:1096A000062803DD01207849487102E00020764950
:1096B000487100207A4908707A480078082803DD4C
:1096C00001207149887102E000206F4988710020F3
:1096D00074490870704710B574480078401C73498D
:1096E000087008460078142878DD0020087070485B
:1096F000007801282CD16448007830B36248407863
:1097000018B361480078401E5F49087008464078E9
:10971000401E487067480088401C6649088008461B
:1097200000880A2814D10020614908706249087035
:109730000120624908706248008A20F040016048B8
:10974000018200205B49088002E00020594908801E
:109750004D48007838B35748008820BB4A48007805
:10976000401E4949087057480068574948600846F4
:109770000078012806D1022008700120487000F00E
:1097800062F90CE050484078401C4F494870084648
:109790004078097C884202DD01204B4948704A49E3
:1097A00008780AF0E4FF38484078B8B141480088AA
:1097B000A0B935484078401E334948704148006898
:1097C0004149486008460078012808D10220087005
:1097D00000F039F901203C4948700EE011E03A48A8
:1097E0004078012804D13848007C3749487004E0AB
:1097F00035484078401E34494870334908780AF0AB
:10980000B6FF21480079A0B31F480079401E1E49C9
:1098100008712E480078401C2C4908702C4840796B
:1098200040F26D11484300EB4000C000C0EB001057
:10983000800027490979C1EB0111490001EB410181
:10984000C900C1EB011100EB81002149C97801EB8E
:109850004101C900C1EB011100EB81001C4989786D
:10986000C1EB011100EB81001949497808441949FD
:109870000860164800782FE015C0072016C00720A2
:1098800000C0092017C0072008C0072018C0072003
:1098900019C007201AC007201CC007201DC00720C0
:1098A0001EC007201FC007201BC0072022C00720A2
:1098B0007404001020C007208404001087040010E6
:1098C0001805001044C007207C06001014C00720B3
:1098D000D605001010C0072000F0010098B34848DA
:1098E000407940F26D11484300EB4000C000C0EBEE
:1098F0000010800042490979C1EB0111490001EBD8
:109900004101C900C1EB011100EB81003C49C9785C
:1099100001EB4101C900C1EB011100EB81003849A5
:109920008978C1EB011100EB810035494978084481
:1099300034490968401A78280BD30020314908605F
:109940003149087005E0FFE700202F4908702D49D4
:1099500008602D48007800F0010030B12B48008AE3
:1099600040F008012948018205E02848008A20F0DB
:109970000801264801822648807930B12348008AB0
:1099800040F010012148018205E02048008A20F0C3
:1099900010011E4801821F4880783A2806D11B48D2
:1099A000808940F400401949888105E01748808982
:1099B000C0F30E0015498881164840782A2806D140
:1099C0001248008A40F080011048018205E00F48EB
:1099D000008A20F080010D48018210BD01207047EF
:1099E000FFF7FCFF00BFFFF749FDFFF7D1FDFFF7D1
:1099F00006FEFFF770FE0120DFF81CC000DFF2E773
:109A0000D605001010C0072014C00720180500104C
:109A100008C007207404001061CC040000200FE08F
:109A2000FF21F94A1154FF22F74914310A54FF214A
:109A3000F64A1154FF22F54914310A54411CC8B2A8
:109A40001428EDDB704700200FE00021EE4A11548E
:109A50000022ED4914310A540021EC4A115400222D
:109A6000EA4914310A54411CC8B21428EDDB70478E
:109A700038B500250024FFF7D1FF9DF8000020F045
:109A8000010000909DF8000020F0020000909DF879
:109A9000000020F0040000909DF8000020F0080075
:109AA000083000909DF8000020F0100000909DF814
:109AB000000020F0200000909DF8000020F0400001
:109AC000403000909DF8000020F080008030009031
:109AD0000EE001236A467021184610F0F2FB08B927
:109AE000681CC5B2601CC4B20A2C01DD002038BD60
:109AF000052DEEDB0120FAE707B59DF806004028AA
:109B000001DD00200EBD9DF8060027287EDC9DF8B3
:109B1000060000EBD07359109DF80700082876D294
:109B2000DFE800F004315E8EBBE8FDFC6AB9B648A0
:109B3000405C20F00100401CB34B5854B348405CDB
:109B400020F00100401CB14B5854012A0CD1AE4802
:109B5000405C20F00100401CAB4B5854AB48405CCB
:109B600020F00100A94B5854022A0BD1A648405CB2
:109B700020F00100A44B5854A448405C20F00100A0
:109B8000A24B585445E16AB99F48405C20F002005E
:109B9000801C9D4B58549D48405C20F00200801C66
:109BA0009A4B5854012A0CD19748405C20F002008F
:109BB000801C954B58549548405C20F00200934B14
:109BC0005854022A0BD19048405C20F002008E4B82
:109BD00058548E48405C20F002008C4B585418E1D9
:109BE0006AB98948405C20F00400001D864B585437
:109BF0008648405C20F00400001D844B5854012A24
:109C00000FD18148405C20F0040001E002E1FFE058
:109C1000001D7D4B58547D48405C20F004007B4B78
:109C20005854022A0BD17848405C20F00400764B4F
:109C300058547648405C20F00400744B5854E8E0D7
:109C40006AB97148405C20F0080008306E4B5854E7
:109C50006E48405C20F0080008306C4B5854012AD4
:109C60000CD16948405C20F008000830664B58541D
:109C70006648405C20F00800644B5854022A0BD11F
:109C80006148405C20F008005F4B58545F48405CDE
:109C900020F008005D4B5854BBE06AB95A48405C5C
:109CA00020F010001030584B58545848405C20F0B9
:109CB00010001030554B5854012A0CD15248405CCA
:109CC00020F010001030504B58545048405C20F0A9
:109CD00010004E4B5854022A0BD14B48405C20F0E8
:109CE0001000494B58544948405C20F01000474B45
:109CF00058548EE06AB94448405C20F0200020307F
:109D0000414B58544148405C20F0200020303F4BEC
:109D10005854012A0FD13C48405C01E047E019E06B
:109D200020F020002030384B58543848405C20F058
:109D30002000364B5854022A0BD13348405C20F0A7
:109D40002000314B58543148405C20F020002F4B0C
:109D500058545EE06AB92C48405C20F04000403026
:109D6000294B58542948405C20F040004030274B94
:109D70005854012A0CD12448405C20F04000403067
:109D8000214B58542148405C20F040001F4B585450
:109D9000022A0BD11C48405C20F040001A4B58545A
:109DA0001A48405C20F04000184B585431E06AB922
:109DB0001548405C20F080008030134B5854134805
:109DC000405C20F080008030104B5854012A0CD1A8
:109DD0000D48405C20F0800080300B4B58540B48FD
:109DE000405C20F08000094B5854022A0BD10648F1
:109DF000405C20F08000044B58540448405C20F044
:109E00008000024B585404E02C0600105406001049
:109E100000BF88E19DF806002728FADD9DF80600BE
:109E20004028F6DC9DF80630A3F1280000EBD07343
:109E3000C3F347019DF8070008287DD2DFE800F052
:109E400004315E8DBAE7FCFB6AB9FE48405C20F045
:109E500001035B1CFB484354FB48405C20F00100BD
:109E6000401CF94B5854012A0CD1F648405C20F0B4
:109E70000100401CF34B5854F348405C20F00103B0
:109E8000F1484354022A0BD1EE48405C20F0010314
:109E9000EC484354EC48405C20F00103EA4843544A
:109EA00040E16AB9E748405C20F00200801CE54BC5
:109EB0005854E548405C20F00200801CE24B5854A6
:109EC000012A0CD1DF48405C20F00200801CDD4BF1
:109ED0005854DD48405C20F00203DB484354022A1A
:109EE0000BD1D848405C20F00203D6484354D648F2
:109EF000405C20F00203D448435413E16AB9D148CE
:109F0000405C20F00400001DCE4B5854CE48405C0D
:109F100020F00400001DCC4B5854012A0ED1C94832
:109F2000405C20F004031B1DC6484354C648405CF7
:109F300020F00403C44800E0F3E04354022A0BD1AC
:109F4000C048405C20F00403BE484354BE48405C17
:109F500020F00403BC484354E4E06AB9B948405CCB
:109F600020F008030833B7484354B748405C20F05A
:109F700008030833B4484354012A0CD1B148405C6B
:109F800020F008030833AF484354AF48405C20F04A
:109F90000803AD484354022A0BD1AA48405C20F084
:109FA0000803A8484354A848405C20F00803A6488A
:109FB0004354B7E06AB9A348405C20F01000103069
:109FC000A04B5854A048405C20F0100010309E4B2D
:109FD0005854012A0CD19B48405C20F010031033E8
:109FE000984843549848405C20F0100396484354E6
:109FF000022A0BD19348405C20F01003914843544F
:10A000009148405C20F010038F4843548AE06AB9BD
:10A010008C48405C20F0200020308A4B58548A48FD
:10A02000405C20F020002030874B5854012A0FD18B
:10A030008448405C01E047E019E020F02003203331
:10A04000804843548048405C20F020037E484354BD
:10A05000022A0BD17B48405C20F02003794843540E
:10A060007948405C20F02003774843545AE06AB9AD
:10A070007448405C20F040004030724B58547248A5
:10A08000405C20F0400340336F484354012A0CD118
:10A090006C48405C20F0400340336A4843546A48AF
:10A0A000405C20F0400368484354022A0BD16548C5
:10A0B000405C20F04003634843546348405C20F018
:10A0C0004003614843542DE06AB95E48405C20F08B
:10A0D000800380335B4843545B48405C20F080033E
:10A0E000803359484354012A0CD15648405C20F033
:10A0F00080038033534843545348405C20F080032E
:10A1000051484354022A0BD14E48405C20F0800352
:10A110004C4843544C48405C20F080034A48435428
:10A1200000E000BF00BF0120ECE408B502469DF846
:10A13000000062F3020000909DF8000020F078001B
:10A14000603000909DF8000061F3C71000909DF80A
:10A15000000008BD08B502469DF8000062F3050046
:10A1600000909DF8000020F0400000909DF8000055
:10A1700061F3C71000909DF8000008BD30B587B0AE
:10A18000054601210020FFF7D0FF8DF804000021D3
:10A190000846FFF7DFFF8DF80500002405E0295D84
:10A1A00001AAA01C1154601CC4B2142CF7DB1623A6
:10A1B00001AA7021012010F084F8C0B28DF80000CF
:10A1C00001210846FFF7B1FF8DF804000021084681
:10A1D000FFF7C0FF8DF80500002407E005F114002B
:10A1E000015D01AAA01C1154601CC4B2142CF5DB43
:10A1F000162301AA7021012010F063F8C0B28DF877
:10A2000001009DF8000020B19DF8010008B1012077
:10A2100000E0002010B9012007B030BD0020FBE7AE
:10A2200008B59DF8000020F0010000909DF80000A6
:10A2300020F0020000909DF8000020F00400009043
:10A2400004E0000040060010680600109DF80000C1
:10A2500020F0080000909DF8000020F01000009011
:10A260009DF8000020F0200000909DF8000020F0F4
:10A270004000403000909DF8000020F080008030C9
:10A28000009001236A467021184610F01AF808B9A8
:10A29000012008BD0020FCE707B584B00020039032
:10A2A000029005980F285CD00BDC0F2871D2DFE8F4
:10A2B00000F02B2E3134373A3D404346494C4F5243
:10A2C000550065285CD010DC61284DD006DC2028C4
:10A2D00073D02D286AD0482872D15BE0622846D01E
:10A2E000632847D064286BD147E06F2858D006DC3C
:10A2F000662848D0672849D06E2861D15AE0702876
:10A300004BD072285CD14EE03F2002905BE00620EB
:10A31000029058E05B20029055E04F20029052E0FE
:10A32000662002904FE06D2002904CE07D2002906C
:10A3300049E00720029046E07F20029043E06F2032
:10A34000029040E0772002903DE07C2002903AE0CD
:10A350003920029037E05E20029034E079200290AC
:10A3600031E0712002902EE0772002902BE07C20DB
:10A37000029028E03920029025E05E20029022E041
:10A38000792002901FE0712002901CE06F20029063
:10A3900019E015E07620029015E0F320029012E01B
:10A3A0005C2002900FE0502002900CE040200290D0
:10A3B00009E002E05420029005E00020029002E053
:10A3C0000020029000BF00BF0498142882F0218072
:10A3D000DFE810F01F101400D900B40195028003CB
:10A3E000680453053E062907FB07C3089E096B0A4C
:10A3F000460B1A0CF50CC70D930E570F029800F080
:10A4000001000390039850B1FE48016C0091406C2C
:10A410000022014601900098FFF76EFB09E0F94821
:10A42000016C0091406C0222014601900098FFF7F8
:10A4300063FB029800F002000390039802280AD1FF
:10A44000F048016E0091406E002201460190009894
:10A45000FFF752FB09E0EB48016E0091406E0222CB
:10A46000014601900098FFF747FB029800F00400B6
:10A470000390039804280AD1E248016F0091406FCD
:10A480000022014601900098FFF736FB09E0DD4805
:10A49000016F0091406F0222014601900098FFF782
:10A4A0002BFB029800F008000390039808280AD1BB
:10A4B000D448816D0091C06D002201460190009842
:10A4C000FFF71AFB09E0CF48816D0091C06D0222B1
:10A4D000014601900098FFF70FFB029800F0100072
:10A4E0000390039810280AD1C648016D0091406D71
:10A4F0000022014601900098FFF7FEFA09E0C148EA
:10A50000016D0091406D0222014601900098FFF715
:10A51000F3FA029800F020000390039820280AD153
:10A52000B848816C0091C06C0022014601900098EF
:10A53000FFF7E2FA09E0B348816C0091C06C022297
:10A54000014601900098FFF7D7FA029800F040000A
:10A550000390039840280AD1AA48816E0091C06EEA
:10A560000022014601900098FFF7C6FA09E0A548CD
:10A57000816E0091C06E0222014601900098FFF7A3
:10A58000BBFA01F047BF029800F001000390039866
:10A5900050B19D48016E0091406E0022014601902D
:10A5A0000098FFF7A9FA09E09748016E0091406E04
:10A5B0000222014601900098FFF79EFA029800F0EF
:10A5C00002000390039802280AD18F48016C009181
:10A5D000406C0022014601900098FFF78DFA09E0D7
:10A5E0008948016C0091406C02220146019000985C
:10A5F000FFF782FA029800F0040003900398042801
:10A600000AD18148016D0091406D00220146019000
:10A610000098FFF771FA09E07B48016D0091406DE9
:10A620000222014601900098FFF766FA029800F0B6
:10A6300008000390039808280AD17348816F00919D
:10A64000C06F0022014601900098FFF755FA09E01B
:10A650006D48816F0091C06F022201460190009801
:10A66000FFF74AFA029800F01000039003981028B0
:10A670000AD16548016F0091406F002201460190A8
:10A680000098FFF739FA09E05F48016F0091406FC9
:10A690000222014601900098FFF72EFA029800F07E
:10A6A00020000390039820280AD15748816E00911A
:10A6B000C06E0022014601900098FFF71DFA09E0E4
:10A6C0005148816E0091C06E0222014601900098AF
:10A6D000FFF712FA029800F0400003900398402818
:10A6E0000AD14948816C0091C06C0022014601905A
:10A6F0000098FFF701FA09E04348816C0091C06CB3
:10A700000222014601900098FFF7F6F9069850B131
:10A710003D48816D0091C06D002201460190009876
:10A72000FFF7EAF909E03848816D0091C06D022217
:10A73000014601900098FFF7DFF922E7029800F048
:10A7400001000390039850B12F48016A0091406ABC
:10A750000022014601900098FFF7CEF909E02A484F
:10A76000016A0091406A0222014601900098FFF7B9
:10A77000C3F9029800F002000390039802280AD15E
:10A78000214801680091406800220146019000982C
:10A79000FFF7B2F909E01C48016800914068022205
:10A7A000014601900098FFF7A7F9029800F0040015
:10A7B0000390039804280AD1134801690091406965
:10A7C0000022014601900098FFF796F909E00E4833
:10A7D0000169009140690222014601900098FFF74B
:10A7E0008BF9029800F0080003900398082810D114
:10A7F0000548816B0091C06B0022014601900098D2
:10A8000004E000000DF804008DFB0400FFF774F96C
:10A8100009E0FE48816B0091C06B02220146019065
:10A820000098FFF769F9029800F010000390039870
:10A8300010280AD1F548016B0091406B00220146B7
:10A8400001900098FFF758F909E0F048016B00917A
:10A85000406B0222014601900098FFF74DF90298E3
:10A8600000F020000390039820280AD1E748816A6D
:10A870000091C06A0022014601900098FFF73CF960
:10A8800009E0E248816A0091C06A02220146019013
:10A890000098FFF731F9029800F040000390039808
:10A8A00040280AD1D94881680091C0680022014639
:10A8B00001900098FFF720F909E0D44881680091E1
:10A8C000C0680222014601900098FFF715F906982A
:10A8D00050B1CE4881690091C069002201460190C3
:10A8E0000098FFF709F909E0C84881690091C0693B
:10A8F0000222014601900098FFF7FEF841E6029817
:10A9000000F001000390039858B1C0488038016EF0
:10A910000091406E0022014601900098FFF7ECF88C
:10A920000AE0BA488038016E0091406E022201466A
:10A9300001900098FFF7E0F8029800F00200039001
:10A94000039802280BD1B1488038016C0091406C0B
:10A950000022014601900098FFF7CEF80AE0AB48CC
:10A960008038016C0091406C0222014601900098F1
:10A97000FFF7C2F8029800F004000390039804283F
:10A980000BD1A2488038016D0091406D0022014634
:10A9900001900098FFF7B0F80AE09C488038016DFC
:10A9A0000091406D0222014601900098FFF7A4F843
:10A9B000029800F008000390039808280BD19348F0
:10A9C0008038816F0091C06F00220146019000988D
:10A9D000FFF792F80AE08D488038816F0091C06FD0
:10A9E0000222014601900098FFF786F8029800F0D5
:10A9F00010000390039810280BD184488038016F11
:10AA00000091406F0022014601900098FFF774F812
:10AA10000AE07E488038016F0091406F02220146B3
:10AA200001900098FFF768F8029800F0200003906A
:10AA3000039820280BD175488038816E0091C06E34
:10AA40000022014601900098FFF756F80AE06F488F
:10AA50008038816E0091C06E0222014601900098FC
:10AA6000FFF74AF8029800F040000390039840284E
:10AA70000BD166488038816C0091C06C0022014681
:10AA800001900098FFF738F80AE060488038816C40
:10AA90000091C06C0222014601900098FFF72CF84B
:10AAA000069858B159488038816D0091C06D0022D8
:10AAB000014601900098FFF71FF80AE053488038DC
:10AAC000816D0091C06D0222014601900098FFF750
:10AAD00013F856E5029800F001000390039858B16E
:10AAE0004A488038016A0091406A0022014601907C
:10AAF0000098FFF701F80AE044488038016A0091A5
:10AB0000406A0222014601900098FEF7F5FF029884
:10AB100000F002000390039802280BD13B488038D4
:10AB20000168009140680022014601900098FEF7FC
:10AB3000E3FF0AE03548803801680091406802224E
:10AB4000014601900098FEF7D7FF029800F004003C
:10AB50000390039804280BD12C4880380169009198
:10AB600040690022014601900098FEF7C5FF0AE007
:10AB7000264880380169009140690222014601900F
:10AB80000098FEF7B9FF029800F0080003900398C0
:10AB900008280BD11D488038816B0091C06B0022C2
:10ABA000014601900098FEF7A7FF0AE01748803899
:10ABB000816B0091C06B0222014601900098FEF764
:10ABC0009BFF029800F010000390039810280BD10F
:10ABD0000E488038016B0091406B002201460190C5
:10ABE0000098FEF789FF0AE008488038016B009161
:10ABF000406B0222014601900098FEF77DFF02980B
:10AC000000F0200003900398202801E08DFB040051
:10AC10000AD1FD48816A0091C06A00220146019074
:10AC20000098FEF769FF09E0F748816A0091C06A61
:10AC30000222014601900098FEF75EFF029800F0A4
:10AC400040000390039840280AD1EF4881680091A2
:10AC5000C0680022014601900098FEF74DFF09E010
:10AC6000E94881680091C06802220146019000987D
:10AC7000FEF742FF069850B1E34881690091C06930
:10AC80000022014601900098FEF736FF09E0DE48F9
:10AC900081690091C0690222014601900098FEF787
:10ACA0002BFF6EE4029800F001000390039858B166
:10ACB000D5488038016E0091406E00220146019017
:10ACC0000098FEF719FF0AE0CF488038016E009126
:10ACD000406E0222014601900098FEF70DFF029897
:10ACE00000F002000390039802280BD1C648803878
:10ACF000016C0091406C0022014601900098FEF723
:10AD0000FBFE0AE0C0488038016C0091406C0222D2
:10AD1000014601900098FEF7EFFE029800F0040053
:10AD20000390039804280BD1B7488038016D009137
:10AD3000406D0022014601900098FEF7DDFE0AE01A
:10AD4000B1488038016D0091406D022201460190AA
:10AD50000098FEF7D1FE029800F0080003900398D7
:10AD600008280BD1A8488038816F0091C06F00225D
:10AD7000014601900098FEF7BFFE0AE0A248803825
:10AD8000816F0091C06F0222014601900098FEF78A
:10AD9000B3FE029800F010000390039810280BD126
:10ADA00099488038016F0091406F00220146019060
:10ADB0000098FEF7A1FE0AE093488038016F0091E9
:10ADC000406F0222014601900098FEF795FE02981E
:10ADD00000F020000390039820280BD18A48803887
:10ADE000816E0091C06E0022014601900098FEF72E
:10ADF00083FE0AE084488038816E0091C06E022292
:10AE0000014601900098FEF777FE029800F040009E
:10AE10000390039840280BD17B488038816C0091C7
:10AE2000C06C0022014601900098FEF765FE0AE022
:10AE300075488038816C0091C06C022201460190F7
:10AE40000098FEF759FE069858B16F488038816D1A
:10AE50000091C06D0022014601900098FEF74CFE63
:10AE60000AE069488038816D0091C06D0222014678
:10AE700001900098FEF740FE5FE4029800F00100A8
:10AE80000390039858B160488038016A0091406A85
:10AE90000022014601900098FEF72EFE0AE05A4873
:10AEA0008038016A0091406A0222014601900098B0
:10AEB000FEF722FE029800F0020003900398022899
:10AEC0000BD151488038016800914068002201464A
:10AED00001900098FEF710FE0AE04B4880380168A8
:10AEE000009140680222014601900098FEF704FE9E
:10AEF000029800F004000390039804280BD1424804
:10AF00008038016900914069002201460190009853
:10AF1000FEF7F2FD0AE03C48803801690091406983
:10AF20000222014601900098FEF7E6FD029800F02B
:10AF300008000390039808280BD133488038816BB0
:10AF40000091C06B0022014601900098FEF7D4FDED
:10AF50000AE02D488038816B0091C06B02220146C7
:10AF600001900098FEF7C8FD029800F010000390D1
:10AF7000039810280BD124488038016B0091406B56
:10AF80000022014601900098FEF7B6FD0AE01E4837
:10AF90008038016B0091406B0222014601900098BD
:10AFA000FEF7AAFD029800F02000039003982028E5
:10AFB0000BD115488038816A0091C06A0022014691
:10AFC00001900098FEF798FD0AE00F488038816AEA
:10AFD0000091C06A0222014601900098FEF78CFDA4
:10AFE000029800F040000390039840280ED10648D4
:10AFF000803881680091C068002201460190009865
:10B00000FEF77AFD0CE000000DFB0400F7488168B4
:10B010000091C0680222014601900098FEF76CFD85
:10B02000069850B1F14881690091C069002201463B
:10B0300001900098FEF760FD09E0EC4881690091FD
:10B04000C0690222014601900098FEF755FD55E4C3
:10B05000029800F001000390039858B1E34880384B
:10B06000016E0091406E0022014601900098FEF7AB
:10B0700043FD0AE0DD488038016E0091406E0222F7
:10B08000014601900098FEF737FD029800F002009B
:10B090000390039802280BD1D4488038016C0091AA
:10B0A000406C0022014601900098FEF725FD0AE061
:10B0B000CE488038016C0091406C0222014601901C
:10B0C0000098FEF719FD029800F004000390039821
:10B0D00004280BD1C5488038016D0091406D0022D5
:10B0E000014601900098FEF707FD0AE0BF4880384E
:10B0F000016D0091406D0222014601900098FEF71B
:10B10000FBFC029800F008000390039808280BD17C
:10B11000B6488038816F0091C06F002201460190CF
:10B120000098FEF7E9FC0AE0B0488038816F009192
:10B13000C06F0222014601900098FEF7DDFC0298E4
:10B1400000F010000390039810280BD1A748803816
:10B15000016F0091406F0022014601900098FEF7B8
:10B16000CBFC0AE0A1488038016F0091406F0222B9
:10B17000014601900098FEF7BFFC029800F0200005
:10B180000390039820280BD198488038816E009155
:10B19000C06E0022014601900098FEF7ADFC0AE067
:10B1A00092488038816E0091C06E02220146019063
:10B1B0000098FEF7A1FC029800F04000039003986D
:10B1C00040280BD189488038816C0091C06C0022E6
:10B1D000014601900098FEF78FFC0AE08348803812
:10B1E000816C0091C06C0222014601900098FEF72C
:10B1F00083FC069858B17D488038816D0091C06D00
:10B200000022014601900098FEF776FC0AE077489C
:10B210008038816D0091C06D022201460190009836
:10B22000FEF76AFC55E4029800F0010003900398D1
:10B2300058B16E488038016A0091406A0022014688
:10B2400001900098FEF758FC0AE068488038016ACF
:10B250000091406A0222014601900098FEF74CFCE2
:10B26000029800F002000390039802280BD15F4877
:10B2700080380168009140680022014601900098E2
:10B28000FEF73AFC0AE059488038016800914068AE
:10B290000222014601900098FEF72EFC029800F071
:10B2A00004000390039804280BD1504880380169AA
:10B2B000009140690022014601900098FEF71CFCB5
:10B2C0000AE04A488038016900914069022201463B
:10B2D00001900098FEF710FC029800F0080003901F
:10B2E000039808280BD141488038816B0091C06BCE
:10B2F0000022014601900098FEF7FEFB0AE03B4861
:10B300008038816B0091C06B022201460190009849
:10B31000FEF7F2FB029800F010000390039810284B
:10B320000BD132488038016B0091406B00220146FE
:10B3300001900098FEF7E0FB0AE02C488038016B92
:10B340000091406B0222014601900098FEF7D4FB69
:10B35000029800F020000390039820280BD1234886
:10B360008038816A0091C06A0022014601900098ED
:10B37000FEF7C2FB0AE01D488038816A0091C06A6E
:10B380000222014601900098FEF7B6FB029800F0F9
:10B3900040000390039840280BD1144880388168FE
:10B3A0000091C0680022014601900098FEF7A4FBBE
:10B3B0000AE00E48803881680091C0680222014688
:10B3C00001900098FEF798FB6BE4029800F00100F2
:10B3D0000390039870B10648016E0091406E002200
:10B3E000014601900098FEF787FB0DE08DFA0400FE
:10B3F0008DFE0400FC48016E0091406E0222014661
:10B4000001900098FEF778FB029800F0020003908C
:10B41000039802280AD1F448016C0091406C002284
:10B42000014601900098FEF767FB09E0EE48016CC9
:10B430000091406C0222014601900098FEF75CFBEF
:10B44000029800F004000390039804280AD1E6480B
:10B45000016D0091406D0022014601900098FEF7B9
:10B460004BFB09E0E048016D0091406D022201466E
:10B4700001900098FEF740FB029800F0080003904E
:10B48000039808280AD1D848816F0091C06F002224
:10B49000014601900098FEF72FFB09E0D248816F2A
:10B4A0000091C06F0222014601900098FEF724FB34
:10B4B000029800F010000390039810280AD1CA489F
:10B4C000016F0091406F0022014601900098FEF745
:10B4D00013FB09E0C448016F0091406F022201464E
:10B4E00001900098FEF708FB029800F020000390FE
:10B4F000039820280AD1BC48816E0091C06E0022BA
:10B50000014601900098FEF7F7FA09E0B648816E0F
:10B510000091C06E0222014601900098FEF7ECFAFD
:10B52000029800F040000390039840280AD1AE48EA
:10B53000816C0091C06C0022014601900098FEF7DA
:10B54000DBFA09E0A848816C0091C06C0222014638
:10B5500001900098FEF7D0FA8EE4029800F0010006
:10B560000390039850B1A048016A0091406A0022FC
:10B57000014601900098FEF7BFFA09E09A48016A77
:10B580000091406A0222014601900098FEF7B4FA49
:10B59000029800F002000390039802280AD1924812
:10B5A0000168009140680022014601900098FEF772
:10B5B000A3FA09E08C480168009140680222014624
:10B5C00001900098FEF798FA029800F004000390AA
:10B5D000039804280AD18448016900914069002237
:10B5E000014601900098FEF787FA09E07E4801695C
:10B5F000009140690222014601900098FEF77CFA12
:10B60000029800F008000390039808280AD17648B1
:10B61000816B0091C06B0022014601900098FEF7FB
:10B620006BFA09E07048816B0091C06B0222014601
:10B6300001900098FEF760FA029800F01000039065
:10B64000039810280AD16848016B0091406B0022D2
:10B65000014601900098FEF74FFA09E06248016B3D
:10B660000091406B0222014601900098FEF744FAD7
:10B67000029800F020000390039820280AD15A482D
:10B68000816A0091C06A0022014601900098FEF78D
:10B6900033FA09E05448816A0091C06A02220146E7
:10B6A00001900098FEF728FA029800F040000390FD
:10B6B000039840280AD14C4881680091C068002254
:10B6C000014601900098FEF717FA09E046488168A4
:10B6D0000091C0680222014601900098FEF70CFA22
:10B6E000069850B1404881690091C0690022014626
:10B6F00001900098FEF700FA09E03B48816900914B
:10B70000C0690222014601900098FEF7F5F99EE417
:10B71000029800F001000390039858B13248803835
:10B72000016E0091406E0022014601900098FEF7E4
:10B73000E3F90AE02C488038016E0091406E022245
:10B74000014601900098FEF7D7F9029800F0020038
:10B750000390039802280BD123488038016C009194
:10B76000406C0022014601900098FEF7C5F90AE0FE
:10B770001D488038016C0091406C02220146019006
:10B780000098FEF7B9F9029800F0040003900398BE
:10B7900004280BD114488038016D0091406D0022BF
:10B7A000014601900098FEF7A7F90AE00E4880389C
:10B7B000016D0091406D0222014601900098FEF754
:10B7C0009BF9029800F008000390039808280DD117
:10B7D00005488038816F0091C06F002201460190BA
:10B7E0000098FEF789F90BE08DFE0400FE48816F9A
:10B7F0000091C06F0222014601900098FEF77CF98B
:10B80000029800F010000390039810280AD1F6481F
:10B81000016F0091406F0022014601900098FEF7F1
:10B820006BF909E0F048016F0091406F0222014678
:10B8300001900098FEF760F9029800F02000039054
:10B84000039820280AD1E848816E0091C06E00223A
:10B85000014601900098FEF74FF909E0E248816E39
:10B860000091C06E0222014601900098FEF744F953
:10B87000029800F040000390039840280AD1DA486B
:10B88000816C0091C06C0022014601900098FEF787
:10B8900033F909E0D448816C0091C06C0222014662
:10B8A00001900098FEF728F9BCE4029800F001002E
:10B8B0000390039850B1CC48016A0091406A00227D
:10B8C000014601900098FEF717F909E0C648016AA1
:10B8D0000091406A0222014601900098FEF70CF99F
:10B8E000029800F002000390039802280AD1BE4893
:10B8F0000168009140680022014601900098FEF71F
:10B90000FBF809E0B848016800914068022201464E
:10B9100001900098FEF7F0F8029800F00400039000
:10B92000039804280AD1B0480169009140690022B7
:10B93000014601900098FEF7DFF809E0AA48016986
:10B94000009140690222014601900098FEF7D4F868
:10B95000029800F008000390039808280AD1A24832
:10B96000816B0091C06B0022014601900098FEF7A8
:10B97000C3F809E09C48816B0091C06B022201462C
:10B9800001900098FEF7B8F8029800F010000390BC
:10B99000039810280AD19448016B0091406B002253
:10B9A000014601900098FEF7A7F809E08E48016B68
:10B9B0000091406B0222014601900098FEF79CF82E
:10B9C000029800F020000390039820280AD18648AE
:10B9D000816A0091C06A0022014601900098FEF73A
:10B9E0008BF809E08048816A0091C06A0222014612
:10B9F00001900098FEF780F8029800F04000039054
:10BA0000039840280AD1784881680091C0680022D4
:10BA1000014601900098FEF76FF809E072488168CE
:10BA20000091C0680222014601900098FEF764F878
:10BA3000069850B16C4881690091C06900220146A6
:10BA400001900098FEF758F809E067488169009175
:10BA5000C0690222014601900098FEF74DF8B3E458
:10BA6000029800F001000390039858B15E488038B6
:10BA7000016E0091406E0022014601900098FEF791
:10BA80003BF80AE058488038016E0091406E02226F
:10BA9000014601900098FEF72FF8029800F002008E
:10BAA0000390039802280BD14F488038016C009115
:10BAB000406C0022014601900098FEF71DF80AE054
:10BAC00049488038016C0091406C02220146019087
:10BAD0000098FEF711F8029800F004000390039814
:10BAE00004280BD140488038016D0091406D002240
:10BAF000014601900098FDF7FFFF0AE03A488038C0
:10BB0000016D0091406D0222014601900098FDF701
:10BB1000F3FF029800F008000390039808280BD167
:10BB200031488038816F0091C06F0022014601903A
:10BB30000098FDF7E1FF0AE02B488038816F009103
:10BB4000C06F0222014601900098FDF7D5FF0298D0
:10BB500000F010000390039810280BD12248803881
:10BB6000016F0091406F0022014601900098FDF79F
:10BB7000C3FF0AE01C488038016F0091406F022229
:10BB8000014601900098FDF7B7FF029800F02000F1
:10BB90000390039820280BD113488038816E0091C0
:10BBA000C06E0022014601900098FDF7A5FF0AE053
:10BBB0000D488038816E0091C06E022201460190CE
:10BBC0000098FDF799FF029800F040000390039859
:10BBD00040280ED104488038816C0091C06C00224E
:10BBE00001460190009801E00DFE0400FDF784FF7E
:10BBF00009E0FE48816C0091C06C02220146019070
:10BC00000098FDF779FF77E2029800F001000390B9
:10BC1000039850B1F548016A0091406A002201463C
:10BC200001900098FDF768FF09E0F048016A009173
:10BC3000406A0222014601900098FDF75DFF0298DC
:10BC400000F002000390039802280AD1E748016837
:10BC5000009140680022014601900098FDF74CFFDA
:10BC600009E0E24801680091406802220146019023
:10BC70000098FDF741FF029800F00400039003983C
:10BC800004280AD1D948016900914069002201467F
:10BC900001900098FDF730FF09E0D4480169009158
:10BCA00040690222014601900098FDF725FF0298A5
:10BCB00000F008000390039808280AD1CB48816B54
:10BCC0000091C06B0022014601900098FDF714FF1F
:10BCD00009E0C648816B0091C06B022201460190C9
:10BCE0000098FDF709FF029800F0100003900398F8
:10BCF00010280AD1BD48016B0091406B002201461B
:10BD000001900098FDF7F8FE09E0B848016B00913A
:10BD1000406B0222014601900098FDF7EDFE02986B
:10BD200000F020000390039820280AD1AF48816AD0
:10BD30000091C06A0022014601900098FDF7DCFEE8
:10BD400009E0AA48816A0091C06A02220146019076
:10BD50000098FDF7D1FE029800F040000390039890
:10BD600040280AD1A14881680091C068002201469C
:10BD700001900098FDF7C0FE09E09C4881680091A1
:10BD8000C0680222014601900098FDF7B5FE0698B2
:10BD900050B1964881690091C06900220146019026
:10BDA0000098FDF7A9FE09E0904881690091C069FB
:10BDB0000222014601900098FDF79EFE2AE30298B8
:10BDC00000F001000390039858B188488038016E54
:10BDD0000091406E0022014601900098FDF78CFE14
:10BDE0000AE082488038016E0091406E02220146CE
:10BDF00001900098FDF780FE029800F00200039089
:10BE0000039802280BD179488038016C0091406C6E
:10BE10000022014601900098FDF76EFE0AE073488B
:10BE20008038016C0091406C02220146019000981C
:10BE3000FDF762FE029800F00400039003980428C6
:10BE40000BD16A488038016D0091406D0022014697
:10BE500001900098FDF750FE0AE064488038016DBB
:10BE60000091406D0222014601900098FDF744FECA
:10BE7000029800F008000390039808280BD15B4853
:10BE80008038816F0091C06F0022014601900098B8
:10BE9000FDF732FE0AE055488038816F0091C06F8F
:10BEA0000222014601900098FDF726FE029800F05C
:10BEB00010000390039810280BD14C488038016F74
:10BEC0000091406F0022014601900098FDF714FE9A
:10BED0000AE046488038016F0091406F0222014617
:10BEE00001900098FDF708FE029800F020000390F2
:10BEF000039820280BD13D488038816E0091C06E98
:10BF00000022014601900098FDF7F6FD0AE037484F
:10BF10008038816E0091C06E022201460190009827
:10BF2000FDF7EAFD029800F04000039003984028D6
:10BF30000BD12E488038816C0091C06C00220146E4
:10BF400001900098FDF7D8FD0AE028488038816C00
:10BF50000091C06C0222014601900098FDF7CCFDD3
:10BF600058E2029800F001000390039858B11F486E
:10BF70008038016A0091406A0022014601900098D1
:10BF8000FDF7BAFD0AE019488038016A0091406A5D
:10BF90000222014601900098FDF7AEFD029800F0E4
:10BFA00002000390039802280BD1104880380168E2
:10BFB000009140680022014601900098FDF79CFD29
:10BFC0000AE00A4880380168009140680222014670
:10BFD00001900098FDF790FD029800F00400039096
:10BFE000039804280ED10148803801E08DFD04003B
:10BFF0000169009140690022014601900098FDF717
:10C000007BFD09E0FB48016900914069022201467D
:10C0100001900098FDF770FD029800F00800039071
:10C02000039808280AD1F348816B0091C06B002265
:10C03000014601900098FDF75FFD09E0ED48816B36
:10C040000091C06B0222014601900098FDF754FD5B
:10C05000029800F010000390039810280AD1E548D8
:10C06000016B0091406B0022014601900098FDF7A2
:10C0700043FD09E0DF48016B0091406B022201465D
:10C0800001900098FDF738FD029800F02000039021
:10C09000039820280AD1D748816A0091C06A0022FB
:10C0A000014601900098FDF727FD09E0D148816A1B
:10C0B0000091C06A0222014601900098FDF71CFD24
:10C0C000029800F040000390039840280AD1C94824
:10C0D00081680091C0680022014601900098FDF738
:10C0E0000BFD09E0C34881680091C0680222014647
:10C0F00001900098FDF700FD8CE1029800F001002E
:10C100000390039850B1BC48016E0091406E00222C
:10C11000014601900098FDF7EFFC09E0B648016E7A
:10C120000091406E0222014601900098FDF7E4FC68
:10C13000029800F002000390039802280AD1AE484A
:10C14000016C0091406C0022014601900098FDF7BF
:10C15000D3FC09E0A848016C0091406C0222014622
:10C1600001900098FDF7C8FC029800F004000390CD
:10C17000039804280AD1A048016D0091406D002267
:10C18000014601900098FDF7B7FC09E09A48016D5F
:10C190000091406D0222014601900098FDF7ACFC31
:10C1A000029800F008000390039808280AD19248EA
:10C1B000816F0091C06F0022014601900098FDF749
:10C1C0009BFC09E08C48816F0091C06F0222014600
:10C1D00001900098FDF790FC029800F01000039089
:10C1E000039810280AD18448016F0091406F002203
:10C1F000014601900098FDF77FFC09E07E48016F41
:10C200000091406F0222014601900098FDF774FCF6
:10C21000029800F020000390039820280AD1764865
:10C22000816E0091C06E0022014601900098FDF7DA
:10C2300063FC09E07048816E0091C06E02220146E5
:10C2400001900098FDF758FC029800F04000039020
:10C25000039840280AD16848816C0091C06C002284
:10C26000014601900098FDF747FC09E06248816CA7
:10C270000091C06C0222014601900098FDF73CFC41
:10C28000C8E0029800F001000390039850B15A48AA
:10C29000016A0091406A0022014601900098FDF772
:10C2A0002BFC09E05448016A0091406A02220146D1
:10C2B00001900098FDF720FC029800F00200039026
:10C2C000039802280AD14C48016800914068002276
:10C2D000014601900098FDF70FFC09E0464801680F
:10C2E000009140680222014601900098FDF704FC8D
:10C2F000029800F004000390039804280AD13E48F5
:10C300000169009140690022014601900098FDF703
:10C31000F3FB09E0384801690091406902220146B7
:10C3200001900098FDF7E8FB029800F008000390E8
:10C33000039808280AD13048816B0091C06B002215
:10C34000014601900098FDF7D7FB09E02A48816B70
:10C350000091C06B0222014601900098FDF7CCFBD2
:10C36000029800F010000390039810280AD1224888
:10C37000016B0091406B0022014601900098FDF78F
:10C38000BBFB09E01C48016B0091406B0222014697
:10C3900001900098FDF7B0FB029800F02000039098
:10C3A000039820280AD11448816A0091C06A0022AB
:10C3B000014601900098FDF79FFB09E00E48816A55
:10C3C0000091C06A0222014601900098FDF794FB9B
:10C3D000029800F040000390039840280ED10648D0
:10C3E00081680091C0680022014601900098FDF725
:10C3F00083FB0DE00DFD04000DFF0400FE48816885
:10C400000091C0680222014601900098FDF774FB7C
:10C4100000E000BF00BF07B000BD0146002004E0FF
:10C420000023F64A1354421CD0B21428F8DB002231
:10C43000F24B143BDA749A745A741A74002004E0B4
:10C440000023EF4A1354421CD0B21428F8DB002218
:10C45000EB4B143BDA749A745A741A7470472DE9D2
:10C46000FC4707460E4615461C46DDF828904FF05F
:10C4700000080BE0C8F107010120884000EA09002C
:10C480000DF8080008F1010000F0FF08B8F1070FEF
:10C49000F0DB0A2097FBF0F018B99DF800000028A7
:10C4A0005FD00A2097FBF0F000F0FF0A9DF8002013
:10C4B00051460220FDF7F0FE0A2097FBF0F100FB49
:10C4C000117000F0FF0A9DF8012051460320FDF78E
:10C4D000E3FE0A2096FBF0F000F0FF0A9DF8022030
:10C4E00051460420FDF7D8FE0A2096FBF0F100FB30
:10C4F000116000F0FF0A9DF8032051460520FDF76A
:10C50000CBFE0A2095FBF0F000F0FF0A9DF8042016
:10C5100051460620FDF7C0FE0A2095FBF0F100FB16
:10C52000115000F0FF0A9DF8052051460720FDF745
:10C53000B3FE0A2094FBF0F000F0FF0A9DF80620FD
:10C5400051460820FDF7A8FE0A2094FBF0F100FBFD
:10C55000114000F0FF0A002251460920FDF79CFE21
:10C560008EE10A2097FBF0F100FB117018B99DF8DD
:10C570000100002854D00A2097FBF0F100FB117055
:10C5800000F0FF0A9DF8012051460320FDF784FECC
:10C590000A2096FBF0F000F0FF0A9DF802205146B9
:10C5A0000420FDF779FE0A2096FBF0F100FB1160F4
:10C5B00000F0FF0A9DF8032051460520FDF76CFEB0
:10C5C0000A2095FBF0F000F0FF0A9DF80420514688
:10C5D0000620FDF761FE0A2095FBF0F100FB1150EB
:10C5E00000F0FF0A9DF8052051460720FDF754FE94
:10C5F0000A2094FBF0F000F0FF0A9DF80620514657
:10C600000820FDF749FE0A2094FBF0F100FB1140E1
:10C6100000F0FF0A002251460920FDF73DFE2FE100
:10C620000A2096FBF0F010B99DF80200F0B30A2042
:10C6300096FBF0F000F0FF0A9DF80220514604201E
:10C64000FDF72AFE0A2096FBF0F100FB116000F0D6
:10C65000FF0A9DF8032051460520FDF71DFE0A2024
:10C6600095FBF0F000F0FF0A9DF8042051460620EB
:10C67000FDF712FE0A2095FBF0F100FB115000F0CF
:10C68000FF0A9DF8052051460720FDF705FE0A2008
:10C6900094FBF0F000F0FF0A9DF8062051460820B8
:10C6A000FDF7FAFD0A2094FBF0F100E009E000FB41
:10C6B000114000F0FF0A002251460920FDF7ECFD71
:10C6C000DEE00A2096FBF0F100FB116010B99DF846
:10C6D0000300E0B30A2096FBF0F100FB116000F0CC
:10C6E000FF0A9DF8032051460520FDF7D5FD0A20DD
:10C6F00095FBF0F000F0FF0A9DF80420514606205B
:10C70000FDF7CAFD0A2095FBF0F100FB115000F087
:10C71000FF0A9DF8052051460720FDF7BDFD0A20C0
:10C7200094FBF0F000F0FF0A9DF806205146082027
:10C73000FDF7B2FD0A2094FBF0F100FB114000F080
:10C74000FF0A002251460920FDF7A6FD98E0FFE709
:10C750000A2095FBF0F010B99DF8040078B30A2088
:10C7600095FBF0F000F0FF0A9DF8042051460620EA
:10C77000FDF792FD0A2095FBF0F100FB115000F04F
:10C78000FF0A9DF8052051460720FDF785FD0A2088
:10C7900094FBF0F000F0FF0A9DF8062051460820B7
:10C7A000FDF77AFD0A2094FBF0F100FB114000F048
:10C7B000FF0A002251460920FDF76EFD60E0FFE709
:10C7C0000A2095FBF0F100FB115010B99DF805000F
:10C7D00058B30A2095FBF0F100FB115000F0FF0A5E
:10C7E0009DF8052051460720FDF756FD0A2094FBD1
:10C7F000F0F000F0FF0A05E00DFF04004006001015
:10C80000680600109DF8062051460820FDF744FDFB
:10C810000A2094FBF0F100FB114000F0FF0A002217
:10C8200051460920FDF738FD2AE00A2095FBF0F07B
:10C8300010B99DF80600B8B10A2094FBF0F000F0A2
:10C84000FF0A9DF8062051460820FDF725FD0A2025
:10C8500094FBF0F100FB114000F0FF0A002251466A
:10C860000920FDF719FD0BE00A2094FBF0F100FB15
:10C87000114000F0FF0A002251460920FDF70CFD8F
:10C88000BDE8FC872DE9F04304460D4616461F46D9
:10C89000DDF81C80A146E01704EB1070C0F307110F
:10C8A00000220A20FDF7F8FCA146E01704EB107007
:10C8B0000011A4EB0010C1B200220B20FDF7ECFC2C
:10C8C000A946E81705EB1070C0F3071100220C20F1
:10C8D000FDF7E2FCE81705EB10700011A5EB001066
:10C8E000C1B200220D20FDF7D7FCB146F01706EBD0
:10C8F0001070C0F3071100220E20FDF7CDFCF017D9
:10C9000006EB10700011A6EB0010C1B200220F2040
:10C91000FDF7C2FCB946F81707EB1070C0F307111A
:10C9200000221020FDF7B8FCF81707EB107000117B
:10C93000A7EB0010C1B200221120FDF7ADFCC146EB
:10C940004FEAE87008EB1070C0F3071100221220C4
:10C95000FDF7A2FC4FEAE87008EB10700011A8EB9D
:10C960000010C1B200221320FDF796FCBDE8F08351
:10C97000F8B507460C4615461E46FE48FFF74DFD26
:10C98000FD48FFF74AFD142033462A462146009011
:10C990000020FFF764FD0A2094FBF0F020B900228C
:10C9A00011460420FDF778FC002001231A460146B9
:10C9B00000900420FFF766FFF8BDFCB507460C4663
:10C9C00015461E46EB48FFF728FDEB48FFF725FD0F
:10C9D000142033462A46214600900020FFF73FFDF1
:10C9E0000A2094FBF0F020B9002211460420FDF744
:10C9F00053FC002002230122014600900420FFF78F
:10CA000041FFDE48816E0091C06E00220146019018
:10CA10000098FDF771F8D9488030016900914069AC
:10CA20000022014601900098FDF766F8D34880384F
:10CA3000016E0091406E0022014601900098FDF7C2
:10CA40005BF8CE48016800914068002201460190E1
:10CA50000098FDF751F8FCBDFCB504460D4616469E
:10CA60001F46C448FFF7D9FCC348FFF7D6FC042093
:10CA70003B463246294600902046FFF7F0FC002056
:10CA80000346012290210090FFF7FCFEBB4880384E
:10CA9000016A0091406A0022014601900098FDF76A
:10CAA0002BF8B6488030816D0091C06D00220146A0
:10CAB00001900098FDF720F8FCBDFCB504460D463A
:10CAC00016461F46AB48FFF7A8FCAB48FFF7A5FC8E
:10CAD00004203B463246294600902046FFF7BFFC23
:10CAE00000200346024601460090FFF7CBFEA44813
:10CAF00081690091C0690022014601900098FCF70D
:10CB0000FBFF9E48803881690091C0690022014680
:10CB100001900098FCF7F0FF98488038816F0091F1
:10CB2000C06F0022014601900098FCF7E5FF934892
:10CB30008038016F0091406F0022014601900098FB
:10CB4000FCF7DAFF8D48016D0091406D002201462F
:10CB500001900098FCF7D0FF88488038816C0091E4
:10CB6000C06C0022014601900098FCF7C5FF834885
:10CB70008038816E0091C06E0022014601900098BD
:10CB8000FCF7BAFF7D4880300168009140680022C0
:10CB9000014601900098FCF7AFFF78488030016CA7
:10CBA0000091406C0022014601900098FCF7A4FF20
:10CBB00072488030816C0091C06C00220146019067
:10CBC0000098FCF799FF6D488030016B0091406B35
:10CBD0000022014601900098FCF78EFFFCBDFCB5D9
:10CBE00004460D4616461F466248FFF716FC62488B
:10CBF000FFF713FC04203B463246294600902046AE
:10CC0000FFF72DFC00200346024603210090FFF7AA
:10CC100039FE5B4881690091C0690022014601909C
:10CC20000098FCF769FF5548803881690091C06918
:10CC30000022014601900098FCF75EFF4F488038C3
:10CC4000816D0091C06D0022014601900098FCF7B3
:10CC500053FF4A488038016F0091406F002201461F
:10CC600001900098FCF748FF444801690091406931
:10CC70000022014601900098FCF73EFF3F48016DFD
:10CC80000091406D0022014601900098FCF734FFAE
:10CC90003A488038816C0091C06C002201460190B6
:10CCA0000098FCF729FF35488038816E0091C06EEE
:10CCB0000022014601900098FCF71EFF314881696F
:10CCC0000091C0690022014601900098FCF714FF12
:10CCD0002A488030016A0091406A00220146019092
:10CCE0000098FCF709FF25488030816B0091C06BEC
:10CCF0000022014601900098FCF7FEFEFCBDFCB549
:10CD000004460D4616461F461A48FFF786FB1A488A
:10CD1000FFF783FB04203B4632462946009020461D
:10CD2000FFF79DFB00200346024604210090FFF719
:10CD3000A9FD134881690091C06900220146019054
:10CD40000098FCF7D9FE0D48803881690091C069D0
:10CD50000022014601900098FCF7CEFE074880387B
:10CD6000816D0091C06D0022014601900098FCF792
:10CD7000C3FE09E02C060010540600100DF9040053
:10CD80000DF804000DFA0400FE48016F0091406F99
:10CD90000022014601900098FCF7AEFEF948803071
:10CDA0000169009140690022014601900098FCF75A
:10CDB000A3FEF448803081690091C06900220146D9
:10CDC00001900098FCF798FEEE488030016D0091CC
:10CDD000406D0022014601900098FCF78DFEE94865
:10CDE000816C0091C06C0022014601900098FCF714
:10CDF00083FEE448816E0091C06E002201460190DE
:10CE00000098FCF779FEE04881690091C069002232
:10CE1000014601900098FCF76FFEDB488038016AFC
:10CE20000091406A0022014601900098FCF764FEE0
:10CE3000D5488038816B0091C06B0022014601907B
:10CE40000098FCF759FEFCBDFCB504460D4616469D
:10CE50001F46CE48FFF7E1FACD48FFF7DEFA04207F
:10CE60003B463246294600902046FFF7F8FA00205C
:10CE70000346024601210090FFF704FDC1488038B7
:10CE800081690091C0690022014601900098FCF779
:10CE900033FEBC48016B0091406B002201460190BB
:10CEA0000098FCF729FEB748016D0091406D002203
:10CEB000014601900098FCF71FFEB248816F009177
:10CEC000C06F0022014601900098FCF715FEAD48A6
:10CED000016F0091406F0022014601900098FCF71D
:10CEE0000BFEA8488030016D0091406D0022014684
:10CEF00001900098FCF700FEA248816C0091C06C84
:10CF00000022014601900098FCF7F6FD9D48816ED5
:10CF10000091C06E0022014601900098FCF7ECFDE4
:10CF200099488038016800914068002201460190CC
:10CF30000098FCF7E1FD94488038016C0091406C4A
:10CF40000022014601900098FCF7D6FD8E488038FB
:10CF5000816C0091C06C0022014601900098FCF7A2
:10CF6000CBFD89488038016B0091406B002201465F
:10CF700001900098FCF7C0FDFCBDFCB504460D46D1
:10CF800016461F468148FFF748FA8148FFF745FAE1
:10CF900004203B463246294600902046FFF75FFAC0
:10CFA00000200346012211460090FFF76BFC7548F4
:10CFB000803881690091C069002201460190009883
:10CFC000FCF79AFD6F48016B0091406B002201460F
:10CFD00001900098FCF790FD6A48016D0091406D4A
:10CFE0000022014601900098FCF786FD6548816F9C
:10CFF0000091C06F0022014601900098FCF77CFD73
:10D000006048016F0091406F002201460190009836
:10D01000FCF772FD5B488030816D0091C06D00228D
:10D02000014601900098FCF767FD5648816C00911D
:10D03000C06C0022014601900098FCF75DFD51484C
:10D04000816E0091C06E0022014601900098FCF7AD
:10D0500053FD4D4880380168009140680022014628
:10D0600001900098FCF748FD47488038016C00911A
:10D07000406C0022014601900098FCF73DFD4248BB
:10D080008038816C0091C06C0022014601900098AC
:10D09000FCF732FD3C488038016B0091406B002268
:10D0A000014601900098FCF727FDFCBDFCB5044645
:10D0B0000D4616461F463548FFF7AFF93448FFF7CF
:10D0C000ACF904203B463246294600902046FFF743
:10D0D000C6F900200346022201210090FFF7D2FB8F
:10D0E0002848803881690091C0690022014601907A
:10D0F0000098FCF701FD2348016B0091406B002272
:10D10000014601900098FCF7F7FC1E48016D009164
:10D11000406D0022014601900098FCF7EDFC194893
:10D12000816F0091C06F0022014601900098FCF7CA
:10D13000E3FC1448016F0091406F0022014601900A
:10D140000098FCF7D9FC0F488030816F0091C06FC8
:10D150000022014601900098FCF7CEFC0948816C42
:10D160000091C06C0022014601900098FCF7C4FCBD
:10D170000448816E0091C06E002201460190009823
:10D1800008E000008DF804000DFA04002C060010E1
:10D1900054060010FCF7B0FCFE480168009140689E
:10D1A0000022014601900098FCF7A6FCF948016CAA
:10D1B0000091406C0022014601900098FCF79CFC15
:10D1C000F448816C0091C06C0022014601900098E7
:10D1D000FCF792FCEF48016B0091406B0022014686
:10D1E00001900098FCF788FCFCBDFCB504460D4698
:10D1F00016461F46E848FFF710F9E848FFF70DF913
:10D2000004203B463246294600902046FFF727F986
:10D2100000200346032201210090FFF733FBE04882
:10D2200081690091C0690022014601900098FCF7D5
:10D2300063FCDB488030016B0091406B00220146AB
:10D2400001900098FCF758FCD5488030016D0091A2
:10D25000406D0022014601900098FCF74DFCD0483B
:10D260008030816F0091C06F0022014601900098CC
:10D27000FCF742FCCA488030016F0091406F0022E9
:10D28000014601900098FCF737FCC2488038016FD6
:10D290000091406F0022014601900098FCF72CFCA1
:10D2A000BF488030816C0091C06C00220146019023
:10D2B0000098FCF721FCBA488030816E0091C06E66
:10D2C0000022014601900098FCF716FCB148016865
:10D2D000009140680022014601900098FCF70CFC88
:10D2E000AC48016C0091406C00220146019000980E
:10D2F000FCF702FCA748816C0091C06C002201463B
:10D3000001900098FCF7F8FBA248016B0091406B7C
:10D310000022014601900098FCF7EEFBFCBDFCB535
:10D3200004460D4616461F469B48FFF776F89B4875
:10D33000FFF773F804203B4632462946009020460A
:10D34000FFF78DF800200346042201210090FFF72B
:10D3500099FA934881690091C069002201460190C1
:10D360000098FCF7C9FB8E488030016B0091406B40
:10D370000022014601900098FCF7BEFB88488030EF
:10D38000016D0091406D0022014601900098FCF76C
:10D39000B3FB83488030816F0091C06F002201464B
:10D3A00001900098FCF7A8FB7D488030016F009148
:10D3B000406F0022014601900098FCF79DFB7548E4
:10D3C00081690091C0690022014601900098FCF734
:10D3D00093FB73488030816C0091C06C0022014641
:10D3E00001900098FCF788FB6D488030816E0091B9
:10D3F000C06E0022014601900098FCF77DFB654855
:10D400000168009140680022014601900098FCF7F5
:10D4100073FB6048016C0091406C00220146019052
:10D420000098FCF769FB5B48816C0091C06C00229E
:10D43000014601900098FCF75FFB5648016B009194
:10D44000406B0022014601900098FCF755FBFCBDA3
:10D45000FCB507460C4615461E464F48FEF7DDFF55
:10D460004E48FEF7DAFF102033462A462146009048
:10D470000020FEF7F4FF0020034602460121009041
:10D480000846FFF7FFF9464881690091C06900220C
:10D49000014601900098FCF72FFB41488030016B5A
:10D4A0000091406B0022014601900098FCF724FB9C
:10D4B0003B488030016D0091406D00220146019093
:10D4C0000098FCF719FB36488030816F0091C06FDF
:10D4D0000022014601900098FCF70EFB3048803096
:10D4E000016F0091406F0022014601900098FCF707
:10D4F00003FB28488038016D0091406D00220146F1
:10D5000001900098FCF7F8FA25488030016C0091F2
:10D51000406C0022014601900098FCF7EDFA20488B
:10D520008030816E0091C06E00220146019000980B
:10D53000FCF7E2FA174801680091406800220146B2
:10D5400001900098FCF7D8FA1248016C0091406CE9
:10D550000022014601900098FCF7CEFA0D48816C3C
:10D560000091C06C0022014601900098FCF7C4FABB
:10D57000FCBDFCB507460C4615461E460648FEF7A0
:10D580004CFF0648FEF749FF142033462A46214641
:10D59000009007E08DF904002C06001054060010DE
:10D5A0000DF804000020FEF75AFF0A2094FBF0F06B
:10D5B00020B9002211460420FCF76EFE0120002352
:10D5C0001A4601460090FFF75DF9FE488169009117
:10D5D000C0690022014601900098FCF78DFAF948D5
:10D5E0008030016B0091406B002201460190009851
:10D5F000FCF782FAF3488030016D0091406D002203
:10D60000014601900098FCF777FAEE488030816F70
:10D610000091C06F0022014601900098FCF76CFA5F
:10D62000E8488030016F0091406F00220146019070
:10D630000098FCF761FAE448016D0091406D00220A
:10D64000014601900098FCF757FADE488030016CE3
:10D650000091406C0022014601900098FCF74CFAC2
:10D66000D8488030816E0091C06E00220146019042
:10D670000098FCF741FAFCBDFCB507460C46154680
:10D680001E46D248FEF7C9FED148FEF7C6FE14205A
:10D6900033462A46214600900020FEF7E0FE0A208D
:10D6A00094FBF0F020B9002211460420FCF7F4FDB1
:10D6B000022000231A46012100900846FFF7E2F8F5
:10D6C000C04881690091C06900220146019000981C
:10D6D000FCF712FABB488030016B0091406B0022CE
:10D6E000014601900098FCF707FAB6488030016DBA
:10D6F0000091406D0022014601900098FCF7FCF972
:10D70000B0488030816F0091C06F002201460190C7
:10D710000098FCF7F1F9AB488030016F0091406F41
:10D720000022014601900098FCF7E6F9A648016D39
:10D730000091406D0022014601900098FCF7DCF951
:10D74000A0488030016C0091406C0022014601909D
:10D750000098FCF7D1F99B488030816E0091C06E33
:10D760000022014601900098FCF7C6F99648816EA8
:10D770000091C06E0022014601900098FCF7BCF9B0
:10D780009148803001690091406900220146019072
:10D790000098FCF7B1F98B488030016E0091406E23
:10D7A0000022014601900098FCF7A6F9864801681E
:10D7B000009140680022014601900098FCF79CF916
:10D7C000FCBDFCB504460D4616461F467F48FEF7D5
:10D7D00024FE7F48FEF721FE00203B4632462946C4
:10D7E00000902046FEF73BFE00200A2302468021DF
:10D7F00000900220FFF746F87348816E0091C06EDA
:10D800000022014601900098FCF776F96E488030BE
:10D810000169009140690022014601900098FCF7DF
:10D820006BF9FCBDFCB504460D4616461F4667481D
:10D83000FEF7F3FD6648FEF7F0FD04203B46324656
:10D84000294600902046FEF70AFE002003460246C5
:10D8500002210090FFF716F85A4881690091C069CB
:10D860000022014601900098FCF746F955488030A7
:10D87000816B0091C06B0022014601900098FCF77B
:10D880003BF950488030016D0091406D0022014607
:10D8900001900098FCF730F94A488030816F009180
:10D8A000C06F0022014601900098FCF725F9454819
:10D8B0008030016F0091406F002201460190009876
:10D8C000FCF71AF94048016D0091406D00220146B5
:10D8D00001900098FCF710F93A488030816C009173
:10D8E000C06C0022014601900098FCF705F935480C
:10D8F0008030816E0091C06E002201460190009838
:10D90000FCF7FAF830488030016800914068002246
:10D91000014601900098FCF7EFF82B488030016C2D
:10D920000091406C0022014601900098FCF7E4F859
:10D9300025488030816C0091C06C00220146019026
:10D940000098FCF7D9F820488030016B0091406BBB
:10D950000022014601900098FCF7CEF8FCBDFCB512
:10D9600004460D4616461F461848FEF756FD184851
:10D97000FEF753FD04203B463246294600902046E0
:10D98000FEF76DFD00200346012202210090FEF704
:10D9900079FF0C4881690091C0690022014601901D
:10D9A0000098FCF7A9F807488030816B0091C06BA4
:10D9B0000022014601900098FCF79EF80148803053
:10D9C000016D07E00DF804000DF904002C060010AD
:10D9D000540600100091406D00220146019000980D
:10D9E000FCF78AF8FE48816F0091C06F0022014663
:10D9F00001900098FCF780F8F948016F0091406FA2
:10DA00000022014601900098FCF776F8F448803037
:10DA1000816D0091C06D0022014601900098FCF7D5
:10DA20006BF8EF48816C0091C06C002201460190B8
:10DA30000098FCF761F8EA48816E0091C06E002200
:10DA4000014601900098FCF757F8E64801680091FC
:10DA500040680022014601900098FCF74DF8E1482B
:10DA6000016C0091406C0022014601900098FCF787
:10DA700043F8DC48816C0091C06C002201460190A3
:10DA80000098FCF739F8D748016B0091406B0022F1
:10DA9000014601900098FCF72FF8FCBDFCB5044648
:10DAA0000D4616461F46D048FEF7B7FCCF48FEF796
:10DAB000B4FC04203B463246294600902046FEF73F
:10DAC000CEFC00200346022211460090FEF7DAFE4B
:10DAD000C348803881690091C069002201460190E5
:10DAE0000098FCF709F8BE48816B0091C06B0022DA
:10DAF000014601900098FBF7FFFFB948016D0091C6
:10DB0000406D0022014601900098FBF7F5FFB448F4
:10DB1000816F0091C06F0022014601900098FBF7D1
:10DB2000EBFFAF48016F0091406F0022014601906A
:10DB30000098FBF7E1FFAA488030816F0091C06F29
:10DB40000022014601900098FBF7D6FFA448816CA3
:10DB50000091C06C0022014601900098FBF7CCFFB9
:10DB60009F48816E0091C06E00220146019000988E
:10DB7000FBF7C2FF9B480168009140680022014604
:10DB800001900098FBF7B8FF9648016C0091406C3B
:10DB90000022014601900098FBF7AEFF9148816C8E
:10DBA0000091C06C0022014601900098FBF7A4FF91
:10DBB0008C48016B0091406B002201460190009857
:10DBC000FBF79AFFFCBDFCB504460D4616461F4602
:10DBD0008548FEF722FC8548FEF71FFC04203B46E3
:10DBE0003246294600902046FEF739FC00200346C5
:10DBF000032202210090FEF745FE794880388169B2
:10DC00000091C0690022014601900098FBF774FF63
:10DC10007348816B0091C06B00220146019000980F
:10DC2000FBF76AFF6E48016D0091406D00220146CE
:10DC300001900098FBF760FF6948816F0091C06F09
:10DC40000022014601900098FBF756FF6448016FDF
:10DC50000091406F0022014601900098FBF74CFFB5
:10DC60005F488030016F0091406F002201460190B3
:10DC70000098FBF741FF5A48816C0091C06C00226C
:10DC8000014601900098FBF737FF5548816E0091DF
:10DC9000C06E0022014601900098FBF72DFF51480D
:10DCA0000168009140680022014601900098FBF74E
:10DCB00023FF4C48016C0091406C0022014601900A
:10DCC0000098FBF719FF4748816C0091C06C002257
:10DCD000014601900098FBF70FFF4248016B00914D
:10DCE000406B0022014601900098FBF705FFFCBD48
:10DCF000FCB504460D4616461F463B48FEF78DFB15
:10DD00003A48FEF78AFB04203B46324629460090FB
:10DD10002046FEF7A4FB00200346042202210090C7
:10DD2000FEF7B0FD2E48803881690091C06900225D
:10DD3000014601900098FBF7DFFE2948816B0091B6
:10DD4000C06B0022014601900098FBF7D5FE2448E5
:10DD5000016D0091406D0022014601900098FBF793
:10DD6000CBFE1F48816F0091C06F002201460190D9
:10DD70000098FBF7C1FE1A48016F0091406F002226
:10DD8000014601900098FBF7B7FE164881690091A3
:10DD9000C0690022014601900098FBF7ADFE1048D3
:10DDA000816C0091C06C0022014601900098FBF745
:10DDB000A3FE0B48816E0091C06E002201460190C7
:10DDC0000098FBF799FE074801680091406800221F
:10DDD000014601900098FBF78FFE0248016C07E0B6
:10DDE0008DF804008DF904002C0600105406001074
:10DDF0000091406C0022014601900098FBF77CFEE8
:10DE0000FE48816C0091C06C002201460190009890
:10DE1000FBF772FEF948016B0091406B002201464E
:10DE200001900098FBF768FEFCBDFCB507460C4668
:10DE300015461E46F248FEF7F0FAF248FEF7EDFAF4
:10DE4000102033462A46214600900020FEF707FBAB
:10DE5000002003460246022100900120FEF712FD39
:10DE6000E94881690091C06900220146019000984B
:10DE7000FBF742FEE4488030816B0091C06B0022CA
:10DE8000014601900098FBF737FEDF488030016DB6
:10DE90000091406D0022014601900098FBF72CFE96
:10DEA000D9488030816F0091C06F002201460190F7
:10DEB0000098FBF721FED4488030016F0091406F3D
:10DEC0000022014601900098FBF716FECB488038EF
:10DED000016D0091406D0022014601900098FBF712
:10DEE0000BFEC9488030016C0091406C0022014655
:10DEF00001900098FBF700FEC3488030816E0091CE
:10DF0000C06E0022014601900098FBF7F5FDBB486A
:10DF10000168009140680022014601900098FBF7DB
:10DF2000EBFDB648016C0091406C00220146019067
:10DF30000098FBF7E1FDB148816C0091C06C0022B4
:10DF4000014601900098FBF7D7FDFCBDFCB50746E4
:10DF50000C4615461E46AA48FEF75FFAA948FEF78A
:10DF60005CFA142033462A46214600900020FEF732
:10DF700076FA0A2094FBF0F020B900221146042022
:10DF8000FCF78AF9012000231A4602210090FEF7CF
:10DF900079FC9D4881690091C06900220146019089
:10DFA0000098FBF7A9FD98488030816B0091C06B09
:10DFB0000022014601900098FBF79EFD92488030B8
:10DFC000016D0091406D0022014601900098FBF721
:10DFD00093FD8D488030816F0091C06F0022014613
:10DFE00001900098FBF788FD87488030016F009111
:10DFF000406F0022014601900098FBF77DFD7F48AD
:10E000008038016D0091406D00220146019000981A
:10E01000FBF772FD7C488030016C0091406C00225F
:10E02000014601900098FBF767FD77488030816ECC
:10E030000091C06E0022014601900098FBF75CFD44
:10E04000FCBDFCB507460C4615461E466C48FEF75F
:10E05000E4F96C48FEF7E1F9142033462A462146DC
:10E0600000900020FEF7FBF90A2094FBF0F020B9A5
:10E07000002211460420FCF70FF9022000231A4663
:10E08000014600900120FEF7FDFB5F488169009189
:10E09000C0690022014601900098FBF72DFD5A4807
:10E0A0008030816B0091C06B002201460190009886
:10E0B000FBF722FD54488030016D0091406D002235
:10E0C000014601900098FBF717FD4F488030816FA3
:10E0D0000091C06F0022014601900098FBF70CFDF3
:10E0E00049488030016F0091406F00220146019045
:10E0F0000098FBF701FD41488038016D0091406DAB
:10E100000022014601900098FBF7F6FC3E48803063
:10E11000016C0091406C0022014601900098FBF7D1
:10E12000EBFC39488030816E0091C06E00220146C0
:10E1300001900098FBF7E0FC30488038816E009138
:10E14000C06E0022014601900098FBF7D5FC2B48D9
:10E150000169009140690022014601900098FBF797
:10E16000CBFC29488030016E0091406E00220146B0
:10E1700001900098FBF7C0FC2048803801680091AE
:10E1800040680022014601900098FBF7B5FCFCBDF9
:10E19000FCB504460D4616461F461948FEF73DF9E4
:10E1A0001848FEF73AF904203B46324629460090CB
:10E1B0002046FEF754F90020034602460521009050
:10E1C000FEF760FB104881690091C069002201469A
:10E1D00001900098FBF790FC084880380169009195
:10E1E00040690022014601900098FBF785FC064833
:10E1F0008030816D0091C06D002207E08DF9040030
:10E200002C060010540600100DF804000146019081
:10E210000098FBF771FCFE48016F0091406F0022EF
:10E22000014601900098FBF767FCF9488030016DCA
:10E230000091406D0022014601900098FBF75CFCC4
:10E24000F348816C0091C06C002201460190009857
:10E25000FBF752FCEE48816E0091C06E0022014631
:10E2600001900098FBF748FCEA4881690091C06979
:10E270000022014601900098FBF73EFCE5488038FB
:10E28000016A0091406A0022014601900098FBF764
:10E2900033FCE0488038816B0091C06B002201465E
:10E2A00001900098FBF728FCFCBDFCB504460D4628
:10E2B00016461F46D848FEF7B0F8D848FEF7ADF826
:10E2C00004203B463246294600902046FEF7C7F818
:10E2D00000200346024606210090FEF7D3FACC4800
:10E2E000803881690091C069002201460190009840
:10E2F000FBF702FCC64880300169009140690022AA
:10E30000014601900098FBF7F7FBC1488030816916
:10E310000091C0690022014601900098FBF7ECFBD8
:10E32000BB48816D0091C06D0022014601900098AC
:10E33000FBF7E2FBB648016F0091406F00220146F7
:10E3400001900098FBF7D8FBB1488030016D009137
:10E35000406D0022014601900098FBF7CDFBAC48D0
:10E36000816C0091C06C0022014601900098FBF77F
:10E37000C3FBA748816E0091C06E00220146019048
:10E380000098FBF7B9FBA34881690091C06900229E
:10E39000014601900098FBF7AFFB9E488038016A68
:10E3A0000091406A0022014601900098FBF7A4FB0F
:10E3B00098488038816B0091C06B00220146019023
:10E3C0000098FBF799FBFCBDFCB504460D461646CC
:10E3D0001F469148FEF721F89048FEF71EF80420EA
:10E3E0003B463246294600902046FEF738F800208A
:10E3F0000346024607210090FEF744FA844880381D
:10E4000081690091C0690022014601900098FBF7E4
:10E4100073FB7F488030016900914069002201460A
:10E4200001900098FBF768FB794880308169009182
:10E43000C0690022014601900098FBF75DFB74481B
:10E440008030816B0091C06B0022014601900098E2
:10E45000FBF752FB6E48816D0091C06D00220146B2
:10E4600001900098FBF748FB6948016F0091406FED
:10E470000022014601900098FBF73EFB6448803083
:10E48000016D0091406D0022014601900098FBF75C
:10E4900033FB5F48816C0091C06C00220146019003
:10E4A0000098FBF729FB5A48816E0091C06E00224C
:10E4B000014601900098FBF71FFB564881690091C7
:10E4C000C0690022014601900098FBF715FB5148F6
:10E4D0008038016A0091406A00220146019000984C
:10E4E000FBF70AFB4B488038816B0091C06B002220
:10E4F000014601900098FBF7FFFAFCBDFCB504460D
:10E500000D4616461F464448FDF787FF4348FDF772
:10E5100084FF04203B463246294600902046FDF702
:10E520009EFF00200346024608210090FEF7AAF94C
:10E530003748803881690091C06900220146019006
:10E540000098FBF7D9FA32488030816B0091C06B9C
:10E550000022014601900098FBF7CEFA2C4880304B
:10E56000016B0091406B0022014601900098FBF77F
:10E57000C3FA2748816D0091C06D002201460190C9
:10E580000098FBF7B9FA2248016F0091406F002212
:10E59000014601900098FBF7AFFA1D488030016DED
:10E5A0000091406D0022014601900098FBF7A4FA0B
:10E5B0001748816C0091C06C0022014601900098C0
:10E5C000FBF79AFA1248816E0091C06E0022014654
:10E5D00001900098FBF790FA0E4881690091C0699C
:10E5E0000022014601900098FBF786FA094880381E
:10E5F000016A0091406A0022014601900098FBF7F1
:10E600007BFA04488038816B0091C06B002207E0E0
:10E610008DF804000DFA04002C06001054060010BA
:10E62000014601900098FBF767FAFCBDFCB5044673
:10E630000D4616461F46FE48FDF7EFFEFD48FDF766
:10E64000ECFE04203B463246294600902046FDF76A
:10E6500006FF00200123024619460090FEF712F93A
:10E66000F548016900914069002201460190009837
:10E67000FBF742FA002201210846FBF70DFEEE48A7
:10E6800080300169009140690022014601900098A4
:10E69000FBF732FAE8488030016B0091406B0022B2
:10E6A000014601900098FBF727FAE3488030016D9E
:10E6B0000091406D0022014601900098FBF71CFA82
:10E6C000DD488030816F0091C06F002201460190CB
:10E6D0000098FBF711FAD8488030016F0091406F25
:10E6E0000022014601900098FBF706FAD348016D1D
:10E6F0000091406D0022014601900098FBF7FCF963
:10E70000CD488030816C0091C06C002201460190A0
:10E710000098FBF7F1F9C8488030816E0091C06E17
:10E720000022014601900098FBF7E6F9C3488030CB
:10E730000168009140680022014601900098FBF7B3
:10E74000DBF9BE488030016C0091406C002201462C
:10E7500001900098FBF7D0F9B8488030816C0091A7
:10E76000C06C0022014601900098FBF7C5F9B34840
:10E770008030016B0091406B0022014601900098AF
:10E78000FBF7BAF9FCBDFCB504460D4616461F461C
:10E79000A748FDF742FEA748FDF73FFE04203B4691
:10E7A0003246294600902046FDF759FE00200123FD
:10E7B0001A4619460090FEF765F89F4801690091D6
:10E7C00040690022014601900098FBF795F900226C
:10E7D00001210846FBF760FD9748803001690091F0
:10E7E00040690022014601900098FBF785F99248A4
:10E7F0008030016B0091406B00220146019000982F
:10E80000FBF77AF98C488030016D0091406D002251
:10E81000014601900098FBF76FF987488030816FBF
:10E820000091C06F0022014601900098FBF764F947
:10E8300081488030016F0091406F002201460190B5
:10E840000098FBF759F97D48816D0091C06D002259
:10E85000014601900098FBF74FF977488030816CB2
:10E860000091C06C0022014601900098FBF744F92A
:10E8700071488030816E0091C06E00220146019087
:10E880000098FBF739F96D488030016800914068C5
:10E890000022014601900098FBF72EF9674880306E
:10E8A000016C0091406C0022014601900098FBF73A
:10E8B00023F962488030816C0091C06C00220146CF
:10E8C00001900098FBF718F95C488030016B0091CB
:10E8D000406B0022014601900098FBF70DF9FCBD4A
:10E8E000FCB504460D4616461F465148FDF795FDFA
:10E8F0005048FDF792FD04203B46324629460090E1
:10E900002046FDF7ACFD00200123022219460090AD
:10E91000FDF7B8FF484801690091406900220146AF
:10E9200001900098FBF7E8F8002201210846FBF768
:10E93000B3FC4148803001690091406900220146E2
:10E9400001900098FBF7D8F83B488030016B0091AC
:10E95000406B0022014601900098FBF7CDF8364845
:10E960008030016D0091406D0022014601900098B9
:10E97000FBF7C2F830488030816F0091C06F0022F1
:10E98000014601900098FBF7B7F82B488030016FE3
:10E990000091406F0022014601900098FBF7ACF80F
:10E9A0002648816F0091C06F0022014601900098B7
:10E9B000FBF7A2F820488030816C0091C06C0022E7
:10E9C000014601900098FBF797F81B488030816E54
:10E9D0000091C06E0022014601900098FBF78CF870
:10E9E000164880300168009140680022014601907D
:10E9F0000098FBF781F811488030016C0091406C61
:10EA00000022014601900098FBF776F80B48803011
:10EA1000816C0091C06C0022014601900098FBF7C8
:10EA20006BF806488030016B0091406B002207E0D4
:10EA30002C060010540600100DF804000DF9040017
:10EA4000014601900098FBF757F8FCBDFCB5044661
:10EA50000D4616461F46F748FDF7DFFCF648FDF762
:10EA6000DCFC04203B463246294600902046FDF758
:10EA7000F6FC00200123032219460090FDF702FF57
:10EA8000EE4801690091406900220146019000981A
:10EA9000FBF732F8002201210846FBF7FDFBE748AF
:10EAA0008030016900914069002201460190009880
:10EAB000FBF722F8E1488030016B0091406B0022A7
:10EAC000014601900098FBF717F8DC488030016D93
:10EAD0000091406D0022014601900098FBF70CF870
:10EAE000D6488030816F0091C06F002201460190AE
:10EAF0000098FBF701F8D1488030016F0091406F1A
:10EB00000022014601900098FAF7F6FFCC48016F09
:10EB10000091406F0022014601900098FAF7ECFF47
:10EB2000C6488030816C0091C06C00220146019083
:10EB30000098FAF7E1FFC1488030816E0091C06E05
:10EB40000022014601900098FAF7D6FFBC488030B9
:10EB50000168009140680022014601900098FAF790
:10EB6000CBFFB7488030016C0091406C0022014619
:10EB700001900098FAF7C0FFB1488030816C009195
:10EB8000C06C0022014601900098FAF7B5FFAC482E
:10EB90008030016B0091406B00220146019000988B
:10EBA000FAF7AAFFFCBDFCB504460D4616461F4603
:10EBB000A048FDF732FCA048FDF72FFC04203B469F
:10EBC0003246294600902046FDF749FC00200123EB
:10EBD000042219460090FDF755FE984801690091FE
:10EBE00040690022014601900098FAF785FF002253
:10EBF00001210846FBF750FB9048803001690091E5
:10EC000040690022014601900098FAF775FF8B4891
:10EC10008030016B0091406B00220146019000980A
:10EC2000FAF76AFF85488030016D0091406D00223F
:10EC3000014601900098FAF75FFF80488030816FAD
:10EC40000091C06F0022014601900098FAF754FF2E
:10EC50007A488030016F0091406F00220146019098
:10EC60000098FAF749FF7648803081690091C069C1
:10EC70000022014601900098FAF73EFF6F4880306D
:10EC8000816C0091C06C0022014601900098FAF757
:10EC900033FF6A488030816E0091C06E00220146C9
:10ECA00001900098FAF728FF6548803001680091CC
:10ECB00040680022014601900098FAF71DFF604865
:10ECC0008030016C0091406C002201460190009858
:10ECD000FAF712FF5A488030816C0091C06C002214
:10ECE000014601900098FAF707FF55488030016B04
:10ECF0000091406B0022014601900098FAF7FCFE5B
:10ED0000FCBDFCB507460C4615461E464948FDF7B6
:10ED100084FB4948FDF781FB102033462A462146F3
:10ED200000900020FDF79BFB0020012302461946BE
:10ED300000901846FDF7A6FD404801690091406922
:10ED40000022014601900098FAF7D6FE0022012128
:10ED50000846FBF7A1FA3948803001690091406903
:10ED60000022014601900098FAF7C6FE3348803031
:10ED7000016B0091406B0022014601900098FAF768
:10ED8000BBFE2E488030016D0091406D002201468F
:10ED900001900098FAF7B0FE28488030816F00910A
:10EDA000C06F0022014601900098FAF7A5FE2348A3
:10EDB0008030016F0091406F002201460190009861
:10EDC000FAF79AFE1D488030016C0091406C0022D9
:10EDD000014601900098FAF78FFE18488030816E46
:10EDE0000091C06E0022014601900098FAF784FE5F
:10EDF000134880300168009140680022014601906C
:10EE00000098FAF779FE0E488030016C0091406C52
:10EE10000022014601900098FAF76EFE0848803003
:10EE2000816C0091C06C0022014601900098FAF7B5
:10EE300063FEFCBD2C060010540600100DF8040003
:10EE40000DF90400FCB507460C4615461E46FE4863
:10EE5000FDF7E3FAFD48FDF7E0FA102033462A46B5
:10EE6000214600900020FDF7FAFA00200123024617
:10EE7000022100901846FDF705FDF5480169009153
:10EE800040690022014601900098FAF735FE002201
:10EE900001210846FBF700FAED4880300169009136
:10EEA00040690022014601900098FAF725FEE848E3
:10EEB0008030816B0091C06B002201460190009868
:10EEC000FAF71AFEE2488030016D0091406D002291
:10EED000014601900098FAF70FFEDD488030816FFF
:10EEE0000091C06F0022014601900098FAF704FEDD
:10EEF000D7488030016F0091406F00220146019099
:10EF00000098FAF7F9FDD2488030016C0091406C0E
:10EF10000022014601900098FAF7EEFDCC488030BF
:10EF2000816E0091C06E0022014601900098FAF7B0
:10EF3000E3FDC84801680091406800220146019045
:10EF40000098FAF7D9FDC348016C0091406C00228B
:10EF5000014601900098FAF7CFFDBE48816C009100
:10EF6000C06C0022014601900098FAF7C5FDFCBD77
:10EF7000FCB507460C4615461E46B348FDF74DFA4C
:10EF8000B248FDF74AFA142033462A46214600903B
:10EF90000020FDF764FA0A2094FBF0F020B900226B
:10EFA00011460420FBF778F90120034600220146B0
:10EFB0000090FDF767FCA6480169009140690022B6
:10EFC000014601900098FAF797FD002201210846BA
:10EFD000FBF762F99E488030016900914069002288
:10EFE000014601900098FAF787FD99488030016B3F
:10EFF0000091406B0022014601900098FAF77CFDD9
:10F0000093488030016D0091406D002201460190CF
:10F010000098FAF771FD8E488030816F0091C06FC3
:10F020000022014601900098FAF766FD884880307A
:10F03000016F0091406F0022014601900098FAF79D
:10F040005BFD83488030016C0091406C00220146DA
:10F0500001900098FAF750FD7D488030816E009154
:10F06000C06E0022014601900098FAF745FDFCBDF4
:10F07000FCB507460C4615461E467348FDF7CDF90C
:10F080007248FDF7CAF9142033462A4621460090FB
:10F090000020FDF7E4F90A2094FBF0F020B90022EB
:10F0A00011460420FBF7F8F8012003460022022154
:10F0B0000090FDF7E7FB6648016900914069002276
:10F0C000014601900098FAF717FD00220121084639
:10F0D000FBF7E2F85E488030016900914069002248
:10F0E000014601900098FAF707FD59488030816B7E
:10F0F0000091C06B0022014601900098FAF7FCFCD9
:10F1000053488030016D0091406D0022014601900E
:10F110000098FAF7F1FC4E488030816F0091C06F83
:10F120000022014601900098FAF7E6FC484880303A
:10F13000016F0091406F0022014601900098FAF79C
:10F14000DBFC43488030016C0091406C002201469A
:10F1500001900098FAF7D0FC3D488030816E009114
:10F16000C06E0022014601900098FAF7C5FCFCBD74
:10F17000FCB507460C4615461E463348FDF74DF9CB
:10F180003248FDF74AF9142033462A4621460090BA
:10F190000020FDF764F90A2094FBF0F020B900226A
:10F1A00011460420FBF778F80220012300221946BB
:10F1B00000901846FDF766FB2548016900914069FB
:10F1C0000022014601900098FAF796FC00220121E6
:10F1D0000846FBF761F81E488030016900914069DC
:10F1E0000022014601900098FAF786FC184880300A
:10F1F000016B0091406B0022014601900098FAF7E4
:10F200007BFC13488030016D0091406D0022014667
:10F2100001900098FAF770FC0D488030816F0091E2
:10F22000C06F0022014601900098FAF765FC08487B
:10F230008030016F0091406F0022014601900098DC
:10F24000FAF75AFC024807E02C060010540600109A
:10F250000DF804008DF904008030016C0091406CC1
:10F260000022014601900098FAF746FCFE48816EA4
:10F270000091C06E0022014601900098FAF73CFC14
:10F28000F9488030816E0091C06E002201460190E5
:10F290000098FAF731FCF5480169009140690022B5
:10F2A000014601900098FAF727FCEF48016E0091A3
:10F2B000406E0022014601900098FAF71DFCEA48D2
:10F2C000803001680091406800220146019000985A
:10F2D000FAF712FCFCBDFCB507460C4615461E4667
:10F2E000E348FDF79AF8E348FDF797F81420334612
:10F2F0002A46214600900020FDF7B1F80A2094FB31
:10F30000F0F020B9002211460420FAF7C5FF0220D0
:10F3100001230022014600901846FDF7B3FAD248B7
:10F3200080380169009140690022014601900098EF
:10F33000FAF7E2FB002201210846FAF7ADFFCA48BE
:10F340000169009140690022014601900098FAF796
:10F35000D3FBC548816B0091C06B00220146019030
:10F360000098FAF7C9FBC048016D0091406D00227A
:10F37000014601900098FAF7BFFBBB48816F0091EE
:10F38000C06F0022014601900098FAF7B5FBB6481D
:10F39000016F0091406F0022014601900098FAF73A
:10F3A000ABFBB148016C0091406C0022014601901A
:10F3B0000098FAF7A1FBAC48816E0091C06E002264
:10F3C000014601900098FAF797FBA7488030816EBC
:10F3D0000091C06E0022014601900098FAF78CFB64
:10F3E000A2480169009140690022014601900098FD
:10F3F000FAF782FB9C48016E0091406E00220146A4
:10F4000001900098FAF778FB9748803001680091E6
:10F4100040680022014601900098FAF76DFBFCBDA0
:10F42000FCB504460D4616461F469148FCF7F5FF0D
:10F430009048FCF7F2FF04203B46324629460090F4
:10F440002046FDF70CF8002001230246022100901F
:10F45000FDF718FA8448803801690091406900225C
:10F46000014601900098FAF747FB00220121084667
:10F47000FAF712FF7C4801690091406900220146B9
:10F4800001900098FAF738FB7748816B0091C06BC8
:10F490000022014601900098FAF72EFB7248016D98
:10F4A0000091406D0022014601900098FAF724FB7C
:10F4B0006D48816F0091C06F002201460190009855
:10F4C000FAF71AFB6848016F0091406F002201466D
:10F4D00001900098FAF710FB63488030016D0091AD
:10F4E000406D0022014601900098FAF705FB5E4846
:10F4F000816C0091C06C0022014601900098FAF7DF
:10F50000FBFA5948816E0091C06E002201460190BD
:10F510000098FAF7F1FA5548016800914068002216
:10F52000014601900098FAF7E7FA5048016C009103
:10F53000406C0022014601900098FAF7DDFA4B4832
:10F54000816C0091C06C0022014601900098FAF78E
:10F55000D3FA4648016B0091406B002201460190AE
:10F560000098FAF7C9FAFCBDFCB504460D461646EC
:10F570001F463F48FCF751FF3E48FCF74EFF042072
:10F580003B463246294600902046FCF768FF0020A3
:10F5900001231A4602210090FDF774F932488038A1
:10F5A0000169009140690022014601900098FAF734
:10F5B000A3FA002201210846FAF76EFE2A480169E3
:10F5C000009140690022014601900098FAF794FAF0
:10F5D0002548816B0091C06B002201460190009884
:10F5E000FAF78AFA2048016D0091406D0022014629
:10F5F00001900098FAF780FA1B48816F0091C06F64
:10F600000022014601900098FAF776FA1648016F39
:10F610000091406F0022014601900098FAF76CFAC1
:10F6200011488030816D0091C06D0022014601902B
:10F630000098FAF761FA0C48816C0091C06C0022C6
:10F64000014601900098FAF757FA0748816E009139
:10F65000C06E0022014601900098FAF74DFA034867
:10F6600001680091406807E08DF804008DF90400FE
:10F670002C0600105406001000220146019000984C
:10F68000FAF73AFAFE48016C0091406C00220146FC
:10F6900001900098FAF730FAF948816C0091C06C3B
:10F6A0000022014601900098FAF726FAF448016B0F
:10F6B0000091406B0022014601900098FAF71CFA75
:10F6C000FCBDFCB504460D4616461F46ED48FCF74A
:10F6D000A4FEED48FCF7A1FE04203B463246294635
:10F6E00000902046FCF7BBFE0020012302221146B9
:10F6F0000090FDF7C7F8E5480169009140690022D4
:10F70000014601900098FAF7F7F900220121084616
:10F71000FAF7C2FDDD48803001690091406900229E
:10F72000014601900098FAF7E7F9D8488030816BDC
:10F730000091C06B0022014601900098FAF7DCF9B5
:10F74000D2488030016D0091406D00220146019049
:10F750000098FAF7D1F9CD488030816F0091C06FE1
:10F760000022014601900098FAF7C6F9C748803098
:10F77000016F0091406F0022014601900098FAF756
:10F78000BBF9BF488038816F0091C06F00220146ED
:10F7900001900098FAF7B0F9BC488030816C009174
:10F7A000C06C0022014601900098FAF7A5F9B7480D
:10F7B0008030816E0091C06E002201460190009859
:10F7C000FAF79AF9AE4801680091406800220146B4
:10F7D00001900098FAF790F9A948016C0091406CEB
:10F7E0000022014601900098FAF786F9A448816C3E
:10F7F0000091C06C0022014601900098FAF77CF954
:10F800009F48016B0091406B0022014601900098D7
:10F81000FAF772F9FCBDFCB504460D4616461F46C4
:10F820009848FCF7FAFD9848FCF7F7FD04203B46A2
:10F830003246294600902046FCF711FE00200123A5
:10F84000032202210090FDF71DF890480169009104
:10F8500040690022014601900098FAF74DF9002214
:10F8600001210846FAF718FD8848803001690091A7
:10F8700040690022014601900098FAF73DF983485B
:10F880008030816B0091C06B00220146019000988E
:10F89000FAF732F97D488030016D0091406D002209
:10F8A000014601900098FAF727F978488030816F77
:10F8B0000091C06F0022014601900098FAF71CF9F0
:10F8C00072488030016F0091406F00220146019024
:10F8D0000098FAF711F96A488038016F0091406F7B
:10F8E0000022014601900098FAF706F96748803037
:10F8F000816C0091C06C0022014601900098FAF7DB
:10F90000FBF862488030816E0091C06E0022014693
:10F9100001900098FAF7F0F85948016800914068A2
:10F920000022014601900098FAF7E6F85448016C6D
:10F930000091406C0022014601900098FAF7DCF833
:10F940004F48816C0091C06C0022014601900098E4
:10F95000FAF7D2F84A48016B0091406B0022014649
:10F9600001900098FAF7C8F8FCBDFCB504460D46B6
:10F9700016461F464348FCF750FD4348FCF74DFD33
:10F9800004203B463246294600902046FCF767FD9E
:10F9900000200123042202210090FCF773FF3B4862
:10F9A0000169009140690022014601900098FAF730
:10F9B000A3F8002201210846FAF76EFC3348803094
:10F9C0000169009140690022014601900098FAF710
:10F9D00093F82E488030816B0091C06B0022014665
:10F9E00001900098FAF788F828488030016D00915E
:10F9F000406D0022014601900098FAF77DF82348F7
:10FA00008030816F0091C06F002201460190009804
:10FA1000FAF772F81D488030016F0091406F0022A4
:10FA2000014601900098FAF767F81548816900913E
:10FA3000C0690022014601900098FAF75DF813486A
:10FA40008030816C0091C06C0022014601900098CA
:10FA5000FAF752F80D488030816E0091C06E002296
:10FA6000014601900098FAF747F8054801680091AF
:10FA700040680022014601900098FAF73DF807E03F
:10FA80008DF904002C060010540600100DF8040037
:10FA9000FE48016C0091406C0022014601900098E4
:10FAA000FAF72AF8F948816C0091C06C00220146EF
:10FAB00001900098FAF720F8F448016B0091406B30
:10FAC0000022014601900098FAF716F8FCBDFCB53B
:10FAD00004460D4616461F46ED48FCF79EFCED48D1
:10FAE000FCF79BFC04203B4632462946009020460A
:10FAF000FCF7B5FC00200123024605210090FCF72D
:10FB0000C1FEE5480169009140690022014601906B
:10FB10000098F9F7F1FF002201210846FAF7BCFB33
:10FB2000DD48803001690091406900220146019062
:10FB30000098F9F7E1FFD5488038016900914069E4
:10FB40000022014601900098F9F7D6FFD248803094
:10FB5000816D0091C06D0022014601900098F9F777
:10FB6000CBFFCD488030016F0091406F00220146ED
:10FB700001900098F9F7C0FFC4488038016D0091EA
:10FB8000406D0022014601900098F9F7B5FFC24888
:10FB90008030816C0091C06C002201460190009879
:10FBA000F9F7AAFFBC488030816E0091C06E002238
:10FBB000014601900098F9F79FFFB44880308169B1
:10FBC0000091C0690022014601900098F9F794FF66
:10FBD000AE48016A0091406A0022014601900098F7
:10FBE000F9F78AFFA948816B0091C06B002201469A
:10FBF00001900098F9F780FFFCBDFCB504460D4666
:10FC000016461F46A248FCF708FCA248FCF705FC74
:10FC100004203B463246294600902046FCF71FFC54
:10FC200000200123024606210090FCF72BFE9A4893
:10FC30000169009140690022014601900098F9F79E
:10FC40005BFF002201210846FAF726FB924880302C
:10FC50000169009140690022014601900098F9F77E
:10FC60004BFF8A48803801690091406900220146B3
:10FC700001900098F9F740FF84488038816900912D
:10FC8000C0690022014601900098F9F735FF8248CB
:10FC90008030816D0091C06D002201460190009876
:10FCA000F9F72AFF7C488030016F0091406F0022F5
:10FCB000014601900098F9F71FFF74488038016DE4
:10FCC0000091406D0022014601900098F9F714FF61
:10FCD00071488030816C0091C06C00220146019017
:10FCE0000098F9F709FF6C488030816E0091C06E72
:10FCF0000022014601900098F9F7FEFE634880302B
:10FD000081690091C0690022014601900098F9F7CD
:10FD1000F3FE5E48016A0091406A002201460190AC
:10FD20000098F9F7E9FE5948816B0091C06B0022F9
:10FD3000014601900098F9F7DFFEFCBDFCB50446D2
:10FD40000D4616461F465248FCF767FB5148FCF724
:10FD500064FB04203B463246294600902046FCF7CF
:10FD60007EFB00200123024607210090FCF78AFD5C
:10FD700049480169009140690022014601900098BC
:10FD8000F9F7BAFE002201210846FAF785FA42483F
:10FD9000803001690091406900220146019000987D
:10FDA000F9F7AAFE394880380169009140690022BC
:10FDB000014601900098F9F79FFE34488038816928
:10FDC0000091C0690022014601900098F9F794FE65
:10FDD0002E488038816B0091C06B00220146019053
:10FDE0000098F9F789FE2C488030816D0091C06D34
:10FDF0000022014601900098F9F77EFE26488030E7
:10FE0000016F0091406F0022014601900098F9F7C0
:10FE100073FE1E488038016D0091406D002201463E
:10FE200001900098F9F768FE1B488030816C0091C2
:10FE3000C06C0022014601900098F9F75DFE16485B
:10FE40008030816E0091C06E0022014601900098C2
:10FE5000F9F752FE0D48803081690091C069002297
:10FE6000014601900098F9F747FE0848016A0091A1
:10FE7000406A0022014601900098F9F73DFE0348D0
:10FE8000816B0091C06B0022014607E08DF90400F0
:10FE90002C060010540600100DF804000190009884
:10FEA000F9F72AFEFCBDFCB504460D4616461F4672
:10FEB000FE48FCF7B2FAFE48FCF7AFFA04203B46D6
:10FEC0003246294600902046FCF7C9FA002001235B
:10FED000024608210090FCF7D5FCF6480169009124
:10FEE00040690022014601900098F9F705FE0022C2
:10FEF00001210846FAF7D0F9EE48803001690091F7
:10FF000040690022014601900098F9F7F5FDEA48A2
:10FF1000816B0091C06B0022014601900098F9F7B7
:10FF2000EBFDE548016B0091406B0022014601901A
:10FF30000098F9F7E1FDDF488030816D0091C06DD8
:10FF40000022014601900098F9F7D6FDD94880308B
:10FF5000016F0091406F0022014601900098F9F76F
:10FF6000CBFDD548016D0091406D00220146019006
:10FF70000098F9F7C1FDCF488030816C0091C06CCA
:10FF80000022014601900098F9F7B6FDC94880307B
:10FF9000816E0091C06E0022014601900098F9F731
:10FFA000ABFDC64881690091C069002201460190FD
:10FFB0000098F9F7A1FDC0488030016A0091406ABD
:10FFC0000022014601900098F9F796FDBA4880306A
:10FFD000816B0091C06B0022014601900098F9F7F7
:10FFE0008BFDFCBDF8B504460D4616461F46AF48CE
:10FFF000FCF713FAAE48FCF710FA00203B463246F5
:020000040001F9
:10000000294600902046FCF72AFA0020012304220A
:10001000014600901046FCF735FCF8BDF8B50646E1
:100020000F4614461D46A148FCF7F7F9A048FCF717
:10003000F4F900202B46224601460090FCF70FFA07
:10004000012003460422002100901046FCF71AFC10
:10005000F8BDF8B507460C4615461E469348FCF712
:10006000DCF99348FCF7D9F9002033462A462146AB
:100070000090FCF7F4F900200323072201460090CA
:100080000420FCF7FFFBF8BDF8B507460C46154603
:100090001E468648FCF7C1F98548FCF7BEF90020EA
:1000A00033462A4621460090FCF7D9F9002009235F
:1000B0000422014600901046FCF7E4FBF8BDF8B5B9
:1000C00007460C4615461E467848FCF7A6F97848C0
:1000D000FCF7A3F9002033462A4621460090FCF79E
:1000E000BEF900200A230422014600901046FCF7C6
:1000F000C9FBF8BDF8B504460D4616461F466B48C9
:10010000FCF78BF96A48FCF788F900203B46324639
:10011000294600902046FCF7A2F900200A23024657
:10012000802100900220FCF7ADFBF8BDF8B5074632
:100130000C4615461E465D48FCF76FF95C48FCF717
:100140006CF9142033462A46214600900020FCF723
:1001500086F90A2094FBF0F020B900221146042011
:10016000FAF79AF80020012302463021009003207C
:10017000FCF788FBF8BDFCB507460C4615461E4645
:100180004A48FCF74AF94A48FCF747F91420334635
:100190002A46214600900020FCF761F90A2094FBD2
:1001A000F0F020B9002211460420FAF775F801207A
:1001B00003460022302100900320FCF763FB3E48F9
:1001C000816E0091C06E0022014601900098F9F7FF
:1001D00093FC394880300169009140690022014652
:1001E00001900098F9F788FC32488030016E009148
:1001F000406E0022014601900098F9F77DFC2E48E0
:100200000168009140680022014601900098F9F7CA
:1002100073FCFCBDFCB507460C4615461E4623483C
:10022000FCF7FBF82248FCF7F8F8002033462A4692
:1002300021460090FCF713F90020012302460146F5
:1002400000901020FCF71EFB1B48816A0091C06AD9
:100250000022014601900098F9F74EFC1648016C07
:100260000091406C0022014601900098F9F744FC8F
:10027000FCBDFCB507460C4615461E460B48FCF770
:10028000CCF80B48FCF7C9F8002033462A46214633
:100290000090FCF7E4F8002002230246014600909B
:1002A0001020FCF7EFFA0448816A09E02C060010E0
:1002B000540600100DF804000DF904000DFA0400B6
:1002C0000091C06A0022014601900098F9F714FCE1
:1002D000FE48016C0091406C00220146019000989C
:1002E000F9F70AFCF948016D0091406D00220146C2
:1002F00001900098F9F700FCF448816E0091C06EFF
:100300000022014601900098F9F7F6FBEF48803093
:100310000169009140690022014601900098F9F7B7
:10032000EBFBFCBDFCB507460C4615461E46E848EF
:10033000FCF773F8E748FCF770F8142033462A46B8
:10034000214600900020FCF78AF80A2094FBF0F088
:1003500020B9002211460420F9F79EFF0020012356
:100360001A46014600901020FCF78CFAD748816AA3
:100370000091C06A0022014601900098F9F7BCFB89
:10038000D248016C0091406C002201460190009817
:10039000F9F7B2FBFCBDFCB507460C4615461E46F8
:1003A000CB48FCF73AF8CB48FCF737F81420334633
:1003B0002A46214600900020FCF751F80A2094FBC1
:1003C000F0F020B9002211460420F9F765FF012062
:1003D00003460246002100901020FCF753FABB4868
:1003E000816A0091C06A0022014601900098F9F7E5
:1003F00083FBB648016C0091406C002201460190DD
:100400000098F9F779FBB148816E0091C06E002227
:10041000014601900098F9F76FFBAC488030016904
:10042000009140690022014601900098F9F764FBB1
:10043000A6488038016E0091406E0022014601906E
:100440000098F9F759FBA148016800914068002223
:10045000014601900098F9F74FFBFCBDFCB507463B
:100460000C4615461E469A48FBF7D7FF9948FBF7FE
:10047000D4FF142033462A46214600900020FBF783
:10048000EEFF0A2094FBF0F020B900221146042070
:10049000F9F702FF002001230222014600901020FC
:1004A000FCF7F0F98948816A0091C06A0022014690
:1004B00001900098F9F720FB8448016C0091406C92
:1004C0000022014601900098F9F716FBFCBDFCB52F
:1004D00007460C4615461E467D48FBF79EFF7D48A5
:1004E000FBF79BFF142033462A462146009000204C
:1004F000FBF7B5FF0A2094FBF0F020B9002211466B
:100500000420F9F7C9FE01200346022200210090D1
:100510001020FCF7B7F96D48816A0091C06A00228B
:10052000014601900098F9F7E7FA6848016C0091DC
:10053000406C0022014601900098F9F7DDFA63480B
:10054000816E0091C06E0022014601900098F9F77B
:10055000D3FA5E488030016900914069002201466B
:1005600001900098F9F7C8FA58488038016E009158
:10057000406E0022014601900098F9F7BDFA5348F9
:100580000168009140680022014601900098F9F747
:10059000B3FAFCBDFCB504460D4616461F464C4852
:1005A000FBF73BFF4B48FBF738FF04203B46324646
:1005B000294600902046FBF752FF0020012302222B
:1005C000194600901020FCF75DF94348816B0091BB
:1005D000C06B0022014601900098F9F78DFA3B4864
:1005E000816A0091C06A0022014601900098F9F7E3
:1005F00083FA3648016C0091406C0022014601905C
:100600000098F9F779FA31488038016B0091406B16
:100610000022014601900098F9F76EFA2B488038C5
:10062000016D0091406D0022014601900098F9F79C
:1006300063FA26488038816F0091C06F002201461E
:1006400001900098F9F758FA20488038016F00911E
:10065000406F0022014601900098F9F74DFA1B48BF
:100660008038816C0091C06C002201460190009896
:10067000F9F742FA15488038816E0091C06E002269
:10068000014601900098F9F737FA10488030016868
:10069000009140680022014601900098F9F72CFA79
:1006A0000A488030016C0091406C002201460190A4
:1006B0000098F9F721FA05488030816C0091C06CF0
:1006C000002201460190009808E000000DF90400A6
:1006D0002C060010540600100DF80400F9F70CFA6F
:1006E000FE48016B0091406B00220146019000988A
:1006F000F9F702FAFCBDFCB504460D4616461F4646
:10070000F748FBF78AFEF748FBF787FE04203B46D5
:100710003246294600902046FBF7A1FE0020012327
:100720002622194600901020FCF7ACF8EE48816BA9
:100730000091C06B0022014601900098F9F7DCF9A6
:10074000E6488038816A0091C06A00220146019023
:100750000098F9F7D1F9E1488038016C0091406CBC
:100760000022014601900098F9F7C6F9DE48803072
:10077000016B0091406B0022014601900098F9F74F
:10078000BBF9D9488030016D0091406D00220146CF
:1007900001900098F9F7B0F9D3488030816F00914B
:1007A000C06F0022014601900098F9F7A5F9CE48E4
:1007B0008030016F0091406F002201460190009847
:1007C000F9F79AF9C8488030816C0091C06C00221A
:1007D000014601900098F9F78FF9C3488030816E87
:1007E0000091C06E0022014601900098F9F784F94B
:1007F000BA480168009140680022014601900098C3
:10080000F9F77AF9B548016C0091406C0022014675
:1008100001900098F9F770F9B048816C0091C06CB4
:100820000022014601900098F9F766F9AB48016B88
:100830000091406B0022014601900098F9F75CF9A5
:10084000FCBDFCB504460D4616461F46A448FBF702
:10085000E4FDA448FBF7E1FD04203B46324629466F
:1008600000902046FBF7FBFD0020012303221946E0
:1008700000901020FCF706F89B48816B0091C06B3C
:100880000022014601900098F9F736F99348803824
:10089000816A0091C06A0022014601900098F9F730
:1008A0002BF98E488038016C0091406C0022014683
:1008B00001900098F9F720F98B488030816B009106
:1008C000C06B0022014601900098F9F715F986489F
:1008D0008030016D0091406D00220146019000982A
:1008E000F9F70AF980488030816F0091C06F0022CB
:1008F000014601900098F9F7FFF87B488030016FBE
:100900000091406F0022014601900098F9F7F4F839
:1009100075488030816C0091C06C002201460190C6
:100920000098F9F7E9F870488030816E0091C06E48
:100930000022014601900098F9F7DEF86748016847
:10094000009140680022014601900098F9F7D4F820
:100950006248016C0091406C0022014601900098B1
:10096000F9F7CAF85D48816C0091C06C002201461D
:1009700001900098F9F7C0F85848016B0091406B5E
:100980000022014601900098F9F7B6F8FCBDFCB5CD
:1009900004460D4616461F465148FBF73EFD51489A
:1009A000FBF73BFD04203B4632462946009020469B
:1009B000FBF755FD00200123272219460090102047
:1009C000FBF760FF4848816B0091C06B0022014635
:1009D00001900098F9F790F840488038816A0091BA
:1009E000C06A0022014601900098F9F785F83B485B
:1009F0008038016C0091406C002201460190009803
:100A0000F9F77AF838488030816B0091C06B00228A
:100A1000014601900098F9F76FF833488030016D76
:100A20000091406D0022014601900098F9F764F8AA
:100A30002D488030816F0091C06F002201460190E7
:100A40000098F9F759F828488030016F0091406FFD
:100A50000022014601900098F9F74EF822488030B4
:100A6000816C0091C06C0022014601900098F9F75A
:100A700043F81D488030816E0091C06E002201460F
:100A800001900098F9F738F814480168009140681F
:100A90000022014601900098F9F72EF80F48016CEA
:100AA0000091406C0022014601900098F9F724F86B
:100AB0000A48816C0091C06C0022014601900098A8
:100AC000F9F71AF80548016B0091406B00220146C6
:100AD00001900098F9F710F8FCBD00008DF90400B2
:100AE0002C060010540600100DF80400FCB5044656
:100AF0000D4616461F46F948FBF78FFCF848FBF7F2
:100B00008CFC04203B463246294600902046FBF7E9
:100B1000A6FC002001230222114600901020FBF7C2
:100B2000B1FEF048016B0091406B0022014601903C
:100B30000098F8F7E1FFEC48816A0091C06A002252
:100B4000014601900098F8F7D7FFE748016C009143
:100B5000406C0022014601900098F8F7CDFFE14873
:100B60008030016B0091406B00220146019000989B
:100B7000F8F7C2FFDB488030016D0091406D002224
:100B8000014601900098F8F7B7FFD6488030816F92
:100B90000091C06F0022014601900098F8F7ACFF69
:100BA000D0488030016F0091406F002201460190D3
:100BB0000098F8F7A1FFCB488030816C0091C06CA1
:100BC0000022014601900098F8F796FFC548803052
:100BD000816E0091C06E0022014601900098F8F7E6
:100BE0008BFFC148803001680091406800220146B7
:100BF00001900098F8F780FFBB488030016C0091AD
:100C0000406C0022014601900098F8F775FFB64845
:100C10008030816C0091C06C0022014601900098E8
:100C2000F8F76AFFB0488030016B0091406B0022FA
:100C3000014601900098F8F75FFFFCBDFCB5044643
:100C40000D4616461F46A548FBF7E7FBA448FBF7F1
:100C5000E4FB04203B463246294600902046FBF741
:100C6000FEFB002001232622022100901020FBF72A
:100C700009FE9C48016B0091406B002201460190E7
:100C80000098F8F739FF9848816A0091C06A0022FD
:100C9000014601900098F8F72FFF9348016C0091EE
:100CA000406C0022014601900098F8F725FF8D481E
:100CB0008030016B0091406B00220146019000984A
:100CC000F8F71AFF87488030016D0091406D0022CF
:100CD000014601900098F8F70FFF82488030816F3D
:100CE0000091C06F0022014601900098F8F704FFC0
:100CF0007C488030016F0091406F002201460190D6
:100D00000098F8F7F9FE77488030816C0091C06C4C
:100D10000022014601900098F8F7EEFE71488030FD
:100D2000816E0091C06E0022014601900098F8F794
:100D3000E3FE6D4880300168009140680022014662
:100D400001900098F8F7D8FE67488030016C009158
:100D5000406C0022014601900098F8F7CDFE6248F1
:100D60008030816C0091C06C002201460190009897
:100D7000F8F7C2FE5C488030016B0091406B0022A6
:100D8000014601900098F8F7B7FEFCBDFCB504469B
:100D90000D4616461F465148FBF73FFB5048FBF7F0
:100DA0003CFB04203B463246294600902046FBF798
:100DB00056FB002001230322022100901020FBF7A4
:100DC00061FD4848016B0091406B00220146019093
:100DD0000098F8F791FE4448816A0091C06A0022A9
:100DE000014601900098F8F787FE3F48016C00919A
:100DF000406C0022014601900098F8F77DFE3948CA
:100E00008030816B0091C06B0022014601900098F8
:100E1000F8F772FE33488030016D0091406D00227A
:100E2000014601900098F8F767FE2E488030816FE8
:100E30000091C06F0022014601900098F8F75CFE17
:100E400028488030016F0091406F002201460190D8
:100E50000098F8F751FE23488030816C0091C06CF7
:100E60000022014601900098F8F746FE1D488030A8
:100E7000816E0091C06E0022014601900098F8F743
:100E80003BFE19488030016800914068002201460D
:100E900001900098F8F730FE13488030016C009103
:100EA000406C0022014601900098F8F725FE0E489C
:100EB0008030816C0091C06C002201460190009846
:100EC000F8F71AFE08488030016B0091406B002251
:100ED000014601900098F8F70FFEFCBD2C060010AB
:100EE000540600100DF804000DF90400FCB504468A
:100EF0000D4616461F46F948FBF78FFAF848FBF7F0
:100F00008CFA04203B463246294600902046FBF7E7
:100F1000A6FA002001232722022100901020FBF7CF
:100F2000B1FCF048016B0091406B0022014601903A
:100F30000098F8F7E1FDEC48816A0091C06A002250
:100F4000014601900098F8F7D7FDE748016C009141
:100F5000406C0022014601900098F8F7CDFDE14871
:100F60008030816B0091C06B002201460190009897
:100F7000F8F7C2FDDB488030016D0091406D002222
:100F8000014601900098F8F7B7FDD6488030816F90
:100F90000091C06F0022014601900098F8F7ACFD67
:100FA000D0488030016F0091406F002201460190CF
:100FB0000098F8F7A1FDCB488030816C0091C06C9F
:100FC0000022014601900098F8F796FDC548803050
:100FD000816E0091C06E0022014601900098F8F7E2
:100FE0008BFDC148803001680091406800220146B5
:100FF00001900098F8F780FDBB488030016C0091AB
:10100000406C0022014601900098F8F775FDB64843
:101010008030816C0091C06C0022014601900098E4
:10102000F8F76AFDB0488030016B0091406B0022F8
:10103000014601900098F8F75FFDFCBDFCB5044641
:101040000D4616461F46A548FBF7E7F9A448FBF7EF
:10105000E4F904203B463246294600902046FBF73F
:10106000FEF9002001230222032100901020FBF74B
:1010700009FC9C48816A0091C06A002201460190E7
:101080000098F8F739FD9848816A0091C06A0022FB
:10109000014601900098F8F72FFD9348016C0091EC
:1010A000406C0022014601900098F8F725FD8D481C
:1010B0008030016B0091406B002201460190009846
:1010C000F8F71AFD87488030016D0091406D0022CD
:1010D000014601900098F8F70FFD82488030816F3B
:1010E0000091C06F0022014601900098F8F704FDBE
:1010F0007C488030016F0091406F002201460190D2
:101100000098F8F7F9FC77488030816C0091C06C4A
:101110000022014601900098F8F7EEFC71488030FB
:10112000816E0091C06E0022014601900098F8F790
:10113000E3FC6D4880300168009140680022014660
:1011400001900098F8F7D8FC67488030016C009156
:10115000406C0022014601900098F8F7CDFC6248EF
:101160008030816C0091C06C002201460190009893
:10117000F8F7C2FC5C488030016B0091406B0022A4
:10118000014601900098F8F7B7FCFCBDFCB5044699
:101190000D4616461F465148FBF73FF95048FBF7EE
:1011A0003CF904203B463246294600902046FBF796
:1011B00056F9002001232622032100901020FBF77E
:1011C00061FB4848816A0091C06A00220146019093
:1011D0000098F8F791FC4448816A0091C06A0022A7
:1011E000014601900098F8F787FC3F48016C009198
:1011F000406C0022014601900098F8F77DFC3948C8
:101200008030016B0091406B0022014601900098F4
:10121000F8F772FC33488030016D0091406D002278
:10122000014601900098F8F767FC2E488030816FE6
:101230000091C06F0022014601900098F8F75CFC15
:1012400028488030016F0091406F002201460190D4
:101250000098F8F751FC23488030816C0091C06CF5
:101260000022014601900098F8F746FC1D488030A6
:10127000816E0091C06E0022014601900098F8F73F
:101280003BFC19488030016800914068002201460B
:1012900001900098F8F730FC13488030016C009101
:1012A000406C0022014601900098F8F725FC0E489A
:1012B0008030816C0091C06C002201460190009842
:1012C000F8F71AFC08488030016B0091406B00224F
:1012D000014601900098F8F70FFCFCBD2C060010A9
:1012E000540600100DF804000DF90400FCB5044686
:1012F0000D4616461F46FE48FBF78FF8FD48FBF7E4
:101300008CF804203B463246294600902046FBF7E5
:10131000A6F8002001230322114600901020FBF7BD
:10132000B1FAF548816A0091C06A00220146019035
:101330000098F8F7E1FBF148816A0091C06A002249
:10134000014601900098F8F7D7FBEC48016C00913A
:10135000406C0022014601900098F8F7CDFBE6486A
:101360008030816B0091C06B002201460190009893
:10137000F8F7C2FBE0488030016D0091406D00221B
:10138000014601900098F8F7B7FBDB488030816F89
:101390000091C06F0022014601900098F8F7ACFB65
:1013A000D5488030016F0091406F002201460190C6
:1013B0000098F8F7A1FBD0488030816C0091C06C98
:1013C0000022014601900098F8F796FBCA48803049
:1013D000816E0091C06E0022014601900098F8F7DE
:1013E0008BFBC648803001680091406800220146AE
:1013F00001900098F8F780FBC0488030016C0091A4
:10140000406C0022014601900098F8F775FBBB483C
:101410008030816C0091C06C0022014601900098E0
:10142000F8F76AFBB5488030016B0091406B0022F1
:10143000014601900098F8F75FFBFCBDFCB504463F
:101440000D4616461F46AA48FAF7E7FFA948FAF7DD
:10145000E4FF04203B463246294600902046FAF736
:10146000FEFF002001232722032100901020FBF71C
:1014700009FAA148816A0091C06A002201460190E0
:101480000098F8F739FB9D48816A0091C06A0022F4
:10149000014601900098F8F72FFB9848016C0091E5
:1014A000406C0022014601900098F8F725FB924815
:1014B0008030816B0091C06B002201460190009842
:1014C000F8F71AFB8C488030016D0091406D0022C6
:1014D000014601900098F8F70FFB87488030816F34
:1014E0000091C06F0022014601900098F8F704FBBC
:1014F00081488030016F0091406F002201460190C9
:101500000098F8F7F9FA7C488030816C0091C06C43
:101510000022014601900098F8F7EEFA76488030F4
:10152000816E0091C06E0022014601900098F8F78C
:10153000E3FA724880300168009140680022014659
:1015400001900098F8F7D8FA6C488030016C00914F
:10155000406C0022014601900098F8F7CDFA6748E8
:101560008030816C0091C06C00220146019000988F
:10157000F8F7C2FA61488030016B0091406B00229D
:10158000014601900098F8F7B7FAFCBDFCB5064695
:101590000F4614461D465648FAF73FFF5548FAF7DE
:1015A0003CFF02202B462246002100900846FAF715
:1015B00056FF002003460122114600900220FBF74F
:1015C00061F94D48816B0091C06B0022014601908A
:1015D0000098F8F791FA48488030816C0091C06C0F
:1015E0000022014601900098F8F786FA4348016C02
:1015F0000091406C0022014601900098F8F77CFAB7
:101600003E488030016C0091406C00220146019000
:101610000098F8F771FAFCBDFCB506460F46144673
:101620001D463348FAF7F9FE3248FAF7F6FE022073
:101630002B462246002100900846FAF710FF0020B2
:1016400003460222012100901046FBF71BF92A48AD
:10165000016B0091406B0022014601900098F8F761
:101660004BFA25488030816C0091C06C0022014605
:1016700001900098F8F740FA2048016C0091406C06
:101680000022014601900098F8F736FA1B48803096
:10169000016C0091406C0022014601900098F8F71F
:1016A0002BFAFCBDFCB506460F4614461D461048F5
:1016B000FAF7B3FE0F48FAF7B0FE02202B46224697
:1016C000002100900846FAF7CAFE002003460322D4
:1016D000012100900220FBF7D5F80748816A0091AC
:1016E000C06A0022014601900098F8F705FA07E069
:1016F0002C060010540600100DF804000DF904002B
:10170000FE48816C0091C06C002201460190009857
:10171000F8F7F2F9F9488030016C0091406C002232
:10172000014601900098F8F7E7F9F548016C00913F
:10173000406C0022014601900098F8F7DDF9FCBDED
:10174000FCB507460C4615461E46EE48FAF765FE00
:10175000ED48FAF762FE082033462A4621460090FB
:101760000020FAF77CFE00200346012202210090AF
:101770000846FBF787F8E1488038816B0091C06B21
:101780000022014601900098F8F7B6F9DB48816C19
:101790000091C06C0022014601900098F8F7ACF966
:1017A000D6488030816C0091C06C002201460190C7
:1017B0000098F8F7A1F9D248816A0091C06A002226
:1017C000014601900098F8F797F9FCBDFCB5074673
:1017D0000C4615461E46CB48FAF71FFECA48FAF7D4
:1017E0001CFE082033462A46214600900020FAF7C6
:1017F00036FE002003460222114600901046FBF7F9
:1018000041F8BE488038016B0091406B00220146D0
:1018100001900098F8F770F9B848816C0091C06C9D
:101820000022014601900098F8F766F9B34880302D
:10183000816C0091C06C0022014601900098F8F77D
:101840005BF9AF48816A0091C06A002201460190AD
:101850000098F8F751F9FCBDFCB507460C46154653
:101860001E46A848FAF7D9FDA748FAF7D6FD082082
:1018700033462A46214600900020FAF7F0FD00206A
:1018800003460322022100900846FAF7FBFF9B481B
:101890008038816A0091C06A002201460190009858
:1018A000F8F72AF99548816C0091C06C0022014636
:1018B00001900098F8F720F990488030816C0091F1
:1018C000C06C0022014601900098F8F715F98C4889
:1018D000816A0091C06A0022014601900098F8F7E1
:1018E0000BF9FCBDFCB507460C4615461E4685485F
:1018F000FAF793FD8448FAF790FD102033462A4604
:10190000214600900020FAF7AAFD00200346024677
:10191000032100900220FAF7B5FF7848816F00910B
:10192000C06F0022014601900098F8F7E5F873486F
:10193000016F0091406F0022014601900098F8F776
:10194000DBF86E488030016D0091406D0022014649
:1019500001900098F8F7D0F868488030016E009147
:10196000406E0022014601900098F8F7C5F86448DF
:101970000168009140680022014601900098F8F744
:10198000BBF85F48016C0091406C00220146019059
:101990000098F8F7B1F85A48816C0091C06C0022A9
:1019A000014601900098F8F7A7F8FCBDFCB5074682
:1019B0000C4615461E465348FAF72FFD5248FAF7D3
:1019C0002CFD102033462A46214600900020FAF7CD
:1019D00046FD002003460122032100900220FAF771
:1019E00051FF4648816F0091C06F0022014601906F
:1019F0000098F8F781F84148016F0091406F00228C
:101A0000014601900098F8F777F83C488038816BE0
:101A10000091C06B0022014601900098F8F76CF825
:101A200036488030016E0091406E002201460190E0
:101A30000098F8F761F83248016800914068002288
:101A4000014601900098F8F757F82D48016C009175
:101A5000406C0022014601900098F8F74DF82848A4
:101A6000816C0091C06C0022014601900098F8F74B
:101A700043F8FCBDFCB507460C4615461E462148FA
:101A8000FAF7CBFC2048FAF7C8FC102033462A4668
:101A9000214600900020FAF7E2FC002003460222D3
:101AA000032100901046FAF7EDFE1448816F009173
:101AB000C06F0022014601900098F8F71DF80F480A
:101AC000016F0091406F0022014601900098F8F7E5
:101AD00013F80A488038016B0091406B00220146E0
:101AE00001900098F8F708F804488030016E0091E2
:101AF000406E002201460190009807E08DF8040036
:101B00008DF904002C06001054060010F7F7F4FFBE
:101B1000FE4801680091406800220146019000984B
:101B2000F7F7EAFFF948016C0091406C002201468A
:101B300001900098F7F7E0FFF448816C0091C06CC9
:101B40000022014601900098F7F7D6FFFCBDFCB5D6
:101B500007460C4615461E46ED48FAF75EFCED4872
:101B6000FAF75BFC102033462A46214600900020FD
:101B7000FAF775FC0020034603221146009002206C
:101B8000FAF780FEE448816F0091C06F00220146A1
:101B900001900098F7F7B0FFDF48016F0091406FA8
:101BA0000022014601900098F7F7A6FFDA48803836
:101BB000816A0091C06A0022014601900098F7F7FF
:101BC0009BFFD2488038016E0091406E0022014692
:101BD00001900098F7F790FFCC48016800914068A9
:101BE0000022014601900098F7F786FFC748016C74
:101BF0000091406C0022014601900098F7F77CFFAD
